{"contracts/JobEscrow.sol":{"JobEscrow":{"abi":[{"inputs":[{"internalType":"uint256","name":"_jobId","type":"uint256"},{"internalType":"address","name":"_client","type":"address"},{"internalType":"address","name":"_aiVerifier","type":"address"},{"internalType":"uint256","name":"_amount","type":"uint256"},{"internalType":"string","name":"_metadataURI","type":"string"}],"stateMutability":"nonpayable","type":"constructor"},{"inputs":[{"internalType":"address","name":"sender","type":"address"},{"internalType":"uint256","name":"tokenId","type":"uint256"},{"internalType":"address","name":"owner","type":"address"}],"name":"ERC721IncorrectOwner","type":"error"},{"inputs":[{"internalType":"address","name":"operator","type":"address"},{"internalType":"uint256","name":"tokenId","type":"uint256"}],"name":"ERC721InsufficientApproval","type":"error"},{"inputs":[{"internalType":"address","name":"approver","type":"address"}],"name":"ERC721InvalidApprover","type":"error"},{"inputs":[{"internalType":"address","name":"operator","type":"address"}],"name":"ERC721InvalidOperator","type":"error"},{"inputs":[{"internalType":"address","name":"owner","type":"address"}],"name":"ERC721InvalidOwner","type":"error"},{"inputs":[{"internalType":"address","name":"receiver","type":"address"}],"name":"ERC721InvalidReceiver","type":"error"},{"inputs":[{"internalType":"address","name":"sender","type":"address"}],"name":"ERC721InvalidSender","type":"error"},{"inputs":[{"internalType":"uint256","name":"tokenId","type":"uint256"}],"name":"ERC721NonexistentToken","type":"error"},{"anonymous":false,"inputs":[{"indexed":true,"internalType":"address","name":"owner","type":"address"},{"indexed":true,"internalType":"address","name":"approved","type":"address"},{"indexed":true,"internalType":"uint256","name":"tokenId","type":"uint256"}],"name":"Approval","type":"event"},{"anonymous":false,"inputs":[{"indexed":true,"internalType":"address","name":"owner","type":"address"},{"indexed":true,"internalType":"address","name":"operator","type":"address"},{"indexed":false,"internalType":"bool","name":"approved","type":"bool"}],"name":"ApprovalForAll","type":"event"},{"anonymous":false,"inputs":[{"indexed":false,"internalType":"uint256","name":"_fromTokenId","type":"uint256"},{"indexed":false,"internalType":"uint256","name":"_toTokenId","type":"uint256"}],"name":"BatchMetadataUpdate","type":"event"},{"anonymous":false,"inputs":[{"indexed":true,"internalType":"address","name":"freelancer","type":"address"},{"indexed":false,"internalType":"string","name":"dropboxFileRef","type":"string"}],"name":"ClientVerificationRequested","type":"event"},{"anonymous":false,"inputs":[{"indexed":true,"internalType":"address","name":"client","type":"address"},{"indexed":false,"internalType":"uint256","name":"amount","type":"uint256"}],"name":"EscrowFundsReturned","type":"event"},{"anonymous":false,"inputs":[{"indexed":true,"internalType":"address","name":"freelancer","type":"address"}],"name":"FreelancerAssigned","type":"event"},{"anonymous":false,"inputs":[{"indexed":true,"internalType":"address","name":"to","type":"address"},{"indexed":false,"internalType":"uint256","name":"amount","type":"uint256"}],"name":"FundsReleased","type":"event"},{"anonymous":false,"inputs":[{"indexed":true,"internalType":"address","name":"freelancer","type":"address"},{"indexed":false,"internalType":"uint256","name":"timestamp","type":"uint256"}],"name":"JobAccepted","type":"event"},{"anonymous":false,"inputs":[{"indexed":true,"internalType":"address","name":"client","type":"address"},{"indexed":false,"internalType":"uint256","name":"timestamp","type":"uint256"}],"name":"JobCancelled","type":"event"},{"anonymous":false,"inputs":[{"indexed":false,"internalType":"uint256","name":"timestamp","type":"uint256"},{"indexed":false,"internalType":"string","name":"verifiedBy","type":"string"},{"indexed":false,"internalType":"string","name":"dropboxLink","type":"string"}],"name":"JobCompleted","type":"event"},{"anonymous":false,"inputs":[{"indexed":true,"internalType":"address","name":"client","type":"address"},{"indexed":false,"internalType":"uint256","name":"amount","type":"uint256"}],"name":"JobFunded","type":"event"},{"anonymous":false,"inputs":[{"indexed":false,"internalType":"uint256","name":"_tokenId","type":"uint256"}],"name":"MetadataUpdate","type":"event"},{"anonymous":false,"inputs":[{"indexed":true,"internalType":"address","name":"from","type":"address"},{"indexed":true,"internalType":"address","name":"to","type":"address"},{"indexed":true,"internalType":"uint256","name":"tokenId","type":"uint256"}],"name":"Transfer","type":"event"},{"stateMutability":"payable","type":"fallback"},{"inputs":[],"name":"acceptJob","outputs":[],"stateMutability":"nonpayable","type":"function"},{"inputs":[],"name":"aiVerifier","outputs":[{"internalType":"address","name":"","type":"address"}],"stateMutability":"view","type":"function"},{"inputs":[],"name":"amount","outputs":[{"internalType":"uint256","name":"","type":"uint256"}],"stateMutability":"view","type":"function"},{"inputs":[{"internalType":"address","name":"to","type":"address"},{"internalType":"uint256","name":"tokenId","type":"uint256"}],"name":"approve","outputs":[],"stateMutability":"nonpayable","type":"function"},{"inputs":[{"internalType":"address","name":"_freelancer","type":"address"}],"name":"assignFreelancer","outputs":[],"stateMutability":"nonpayable","type":"function"},{"inputs":[{"internalType":"address","name":"owner","type":"address"}],"name":"balanceOf","outputs":[{"internalType":"uint256","name":"","type":"uint256"}],"stateMutability":"view","type":"function"},{"inputs":[],"name":"cancelJob","outputs":[],"stateMutability":"nonpayable","type":"function"},{"inputs":[],"name":"client","outputs":[{"internalType":"address","name":"","type":"address"}],"stateMutability":"view","type":"function"},{"inputs":[],"name":"clientTokenId","outputs":[{"internalType":"uint256","name":"","type":"uint256"}],"stateMutability":"view","type":"function"},{"inputs":[],"name":"clientVerificationRequested","outputs":[{"internalType":"bool","name":"","type":"bool"}],"stateMutability":"view","type":"function"},{"inputs":[],"name":"completedAt","outputs":[{"internalType":"uint256","name":"","type":"uint256"}],"stateMutability":"view","type":"function"},{"inputs":[],"name":"createdAt","outputs":[{"internalType":"uint256","name":"","type":"uint256"}],"stateMutability":"view","type":"function"},{"inputs":[],"name":"dropboxFinalSubmission","outputs":[{"internalType":"string","name":"","type":"string"}],"stateMutability":"view","type":"function"},{"inputs":[],"name":"freelancer","outputs":[{"internalType":"address","name":"","type":"address"}],"stateMutability":"view","type":"function"},{"inputs":[],"name":"freelancerTokenId","outputs":[{"internalType":"uint256","name":"","type":"uint256"}],"stateMutability":"view","type":"function"},{"inputs":[],"name":"fundEscrow","outputs":[],"stateMutability":"payable","type":"function"},{"inputs":[],"name":"fundsReleasedTo","outputs":[{"internalType":"address","name":"","type":"address"}],"stateMutability":"view","type":"function"},{"inputs":[{"internalType":"uint256","name":"tokenId","type":"uint256"}],"name":"getApproved","outputs":[{"internalType":"address","name":"","type":"address"}],"stateMutability":"view","type":"function"},{"inputs":[],"name":"getContractBalance","outputs":[{"internalType":"uint256","name":"","type":"uint256"}],"stateMutability":"view","type":"function"},{"inputs":[],"name":"getJobInfo","outputs":[{"internalType":"uint256","name":"_jobId","type":"uint256"},{"internalType":"address","name":"_client","type":"address"},{"internalType":"address","name":"_freelancer","type":"address"},{"internalType":"address","name":"_aiVerifier","type":"address"},{"internalType":"uint256","name":"_amount","type":"uint256"},{"internalType":"enum JobEscrow.JobStatus","name":"_status","type":"uint8"},{"internalType":"string","name":"_metadataURI","type":"string"},{"internalType":"string","name":"_dropboxFinalSubmission","type":"string"},{"internalType":"string","name":"_verifiedBy","type":"string"},{"internalType":"uint256","name":"_createdAt","type":"uint256"},{"internalType":"uint256","name":"_completedAt","type":"uint256"},{"internalType":"address","name":"_fundsReleasedTo","type":"address"},{"internalType":"bool","name":"_clientVerificationRequested","type":"bool"}],"stateMutability":"view","type":"function"},{"inputs":[{"internalType":"address","name":"owner","type":"address"},{"internalType":"address","name":"operator","type":"address"}],"name":"isApprovedForAll","outputs":[{"internalType":"bool","name":"","type":"bool"}],"stateMutability":"view","type":"function"},{"inputs":[],"name":"jobId","outputs":[{"internalType":"uint256","name":"","type":"uint256"}],"stateMutability":"view","type":"function"},{"inputs":[],"name":"metadataURI","outputs":[{"internalType":"string","name":"","type":"string"}],"stateMutability":"view","type":"function"},{"inputs":[],"name":"name","outputs":[{"internalType":"string","name":"","type":"string"}],"stateMutability":"view","type":"function"},{"inputs":[{"internalType":"uint256","name":"tokenId","type":"uint256"}],"name":"ownerOf","outputs":[{"internalType":"address","name":"","type":"address"}],"stateMutability":"view","type":"function"},{"inputs":[],"name":"refundToClient","outputs":[],"stateMutability":"nonpayable","type":"function"},{"inputs":[{"internalType":"string","name":"dropboxLink","type":"string"}],"name":"requestClientVerification","outputs":[],"stateMutability":"nonpayable","type":"function"},{"inputs":[{"internalType":"address","name":"from","type":"address"},{"internalType":"address","name":"to","type":"address"},{"internalType":"uint256","name":"tokenId","type":"uint256"}],"name":"safeTransferFrom","outputs":[],"stateMutability":"nonpayable","type":"function"},{"inputs":[{"internalType":"address","name":"from","type":"address"},{"internalType":"address","name":"to","type":"address"},{"internalType":"uint256","name":"tokenId","type":"uint256"},{"internalType":"bytes","name":"data","type":"bytes"}],"name":"safeTransferFrom","outputs":[],"stateMutability":"nonpayable","type":"function"},{"inputs":[{"internalType":"address","name":"operator","type":"address"},{"internalType":"bool","name":"approved","type":"bool"}],"name":"setApprovalForAll","outputs":[],"stateMutability":"nonpayable","type":"function"},{"inputs":[],"name":"status","outputs":[{"internalType":"enum JobEscrow.JobStatus","name":"","type":"uint8"}],"stateMutability":"view","type":"function"},{"inputs":[{"internalType":"bytes4","name":"interfaceId","type":"bytes4"}],"name":"supportsInterface","outputs":[{"internalType":"bool","name":"","type":"bool"}],"stateMutability":"view","type":"function"},{"inputs":[],"name":"symbol","outputs":[{"internalType":"string","name":"","type":"string"}],"stateMutability":"view","type":"function"},{"inputs":[{"internalType":"uint256","name":"tokenId","type":"uint256"}],"name":"tokenURI","outputs":[{"internalType":"string","name":"","type":"string"}],"stateMutability":"view","type":"function"},{"inputs":[{"internalType":"address","name":"from","type":"address"},{"internalType":"address","name":"to","type":"address"},{"internalType":"uint256","name":"tokenId","type":"uint256"}],"name":"transferFrom","outputs":[],"stateMutability":"nonpayable","type":"function"},{"inputs":[],"name":"verifiedBy","outputs":[{"internalType":"string","name":"","type":"string"}],"stateMutability":"view","type":"function"},{"inputs":[{"internalType":"string","name":"dropboxLink","type":"string"}],"name":"verifyByAI","outputs":[],"stateMutability":"nonpayable","type":"function"},{"inputs":[],"name":"verifyByClient","outputs":[],"stateMutability":"nonpayable","type":"function"},{"stateMutability":"payable","type":"receive"}],"evm":{"bytecode":{"linkReferences":{},"object":"60806040523480156200001157600080fd5b50604051620029a3380380620029a3833981016040819052620000349162000132565b6040518060400160405280601081526020016f536563757265576f726b457363726f7760801b8152506040518060400160405280600381526020016253574560e81b81525081600090816200008a9190620002cf565b506001620000998282620002cf565b5050506007859055600880546001600160a01b038087166001600160a01b031992831617909255600a805492861692909116919091179055600b829055600d620000e48282620002cf565b5050426010555050600c805460ff19169055506200039b9050565b80516001600160a01b03811681146200011757600080fd5b919050565b634e487b7160e01b600052604160045260246000fd5b600080600080600060a086880312156200014b57600080fd5b8551945060206200015e818801620000ff565b94506200016e60408801620000ff565b6060880151608089015191955093506001600160401b03808211156200019357600080fd5b818901915089601f830112620001a857600080fd5b815181811115620001bd57620001bd6200011c565b604051601f8201601f19908116603f01168101908382118183101715620001e857620001e86200011c565b816040528281528c868487010111156200020157600080fd5b600093505b8284101562000225578484018601518185018701529285019262000206565b60008684830101528096505050505050509295509295909350565b600181811c908216806200025557607f821691505b6020821081036200027657634e487b7160e01b600052602260045260246000fd5b50919050565b601f821115620002ca57600081815260208120601f850160051c81016020861015620002a55750805b601f850160051c820191505b81811015620002c657828155600101620002b1565b5050505b505050565b81516001600160401b03811115620002eb57620002eb6200011c565b6200030381620002fc845462000240565b846200027c565b602080601f8311600181146200033b5760008415620003225750858301515b600019600386901b1c1916600185901b178555620002c6565b600085815260208120601f198616915b828110156200036c578886015182559484019460019091019084016200034b565b50858210156200038b5787850151600019600388901b60f8161c191681555b5050505050600190811b01905550565b6125f880620003ab6000396000f3fe6080604052600436106101c95760003560e01c806388c0d819116100f357806388c0d819146104aa5780639571dca6146104bf57806395d89b41146104d45780639b789b7e146104e95780639ca2e6c1146104fe578063a22cb4651461052c578063a37dda2c1461054c578063a5d737ac1461056c578063aa8c217c14610574578063ad84d4bc1461058a578063b07c7475146105aa578063b88d4fde146105bf578063c2939d97146105df578063c87b56dd146105f5578063cf09e0d014610615578063e985e9c51461062b578063ee30cfa01461064b578063f2e29c2e14610661578063f7dd865a1461068157610219565b806301ffc9a71461025057806303ee438c1461028557806306fdde03146102a7578063081812fc146102bc578063095ea7b3146102e9578063109e94cf1461030b57806312ddbf0e1461032b5780631fc82c0114610340578063200d2ed21461036057806323b872dd1461038757806338771242146103a7578063393e950b146103cb5780633f7e999f146103e057806342842e0e146104015780636352211e146104215780636e4e15b9146104415780636f9fb98a1461046157806370a082311461047457806382c839901461049457610219565b366102195760405162461bcd60e51b815260206004820152601b60248201527a111a5c9958dd081c185e5b595b9d1cc81b9bdd08185b1b1bddd959602a1b60448201526064015b60405180910390fd5b60405162461bcd60e51b815260206004820152600c60248201526b125b9d985b1a590818d85b1b60a21b6044820152606401610210565b34801561025c57600080fd5b5061027061026b366004611ecd565b6106a1565b60405190151581526020015b60405180910390f35b34801561029157600080fd5b5061029a6106cc565b60405161027c9190611f3a565b3480156102b357600080fd5b5061029a61075a565b3480156102c857600080fd5b506102dc6102d7366004611f4d565b6107ec565b60405161027c9190611f73565b3480156102f557600080fd5b50610309610304366004611fa3565b610801565b005b34801561031757600080fd5b506008546102dc906001600160a01b031681565b34801561033757600080fd5b50610309610810565b34801561034c57600080fd5b506012546102dc906001600160a01b031681565b34801561036c57600080fd5b50600c5461037a9060ff1681565b60405161027c9190612005565b34801561039357600080fd5b506103096103a2366004612013565b61097f565b3480156103b357600080fd5b506103bd60115481565b60405190815260200161027c565b3480156103d757600080fd5b50610309610a0a565b3480156103ec57600080fd5b5060125461027090600160a01b900460ff1681565b34801561040d57600080fd5b5061030961041c366004612013565b610aa6565b34801561042d57600080fd5b506102dc61043c366004611f4d565b610ac6565b34801561044d57600080fd5b50600a546102dc906001600160a01b031681565b34801561046d57600080fd5b50476103bd565b34801561048057600080fd5b506103bd61048f36600461204f565b610ad1565b3480156104a057600080fd5b506103bd60135481565b3480156104b657600080fd5b5061029a610b19565b3480156104cb57600080fd5b5061029a610b26565b3480156104e057600080fd5b5061029a610b33565b3480156104f557600080fd5b50610309610b42565b34801561050a57600080fd5b50610513610d04565b60405161027c9d9c9b9a9998979695949392919061206a565b34801561053857600080fd5b50610309610547366004612123565b610f43565b34801561055857600080fd5b506009546102dc906001600160a01b031681565b610309610f4e565b34801561058057600080fd5b506103bd600b5481565b34801561059657600080fd5b506103096105a536600461204f565b61108c565b3480156105b657600080fd5b5061030961119f565b3480156105cb57600080fd5b506103096105da3660046121ea565b6112d5565b3480156105eb57600080fd5b506103bd60075481565b34801561060157600080fd5b5061029a610610366004611f4d565b6112ed565b34801561062157600080fd5b506103bd60105481565b34801561063757600080fd5b50610270610646366004612265565b6113fe565b34801561065757600080fd5b506103bd60145481565b34801561066d57600080fd5b5061030961067c366004612298565b61142c565b34801561068d57600080fd5b5061030961069c366004612298565b611508565b60006001600160e01b03198216632483248360e11b14806106c657506106c6826115dd565b92915050565b600d80546106d9906122e0565b80601f0160208091040260200160405190810160405280929190818152602001828054610705906122e0565b80156107525780601f1061072757610100808354040283529160200191610752565b820191906000526020600020905b81548152906001019060200180831161073557829003601f168201915b505050505081565b606060008054610769906122e0565b80601f0160208091040260200160405190810160405280929190818152602001828054610795906122e0565b80156107e25780601f106107b7576101008083540402835291602001916107e2565b820191906000526020600020905b8154815290600101906020018083116107c557829003601f168201915b5050505050905090565b60006107f78261162d565b506106c682611665565b61080c828233611680565b5050565b6008546001600160a01b0316331461083a5760405162461bcd60e51b81526004016102109061231a565b6001600c5460ff16600681111561085357610853611fcd565b148061087557506002600c5460ff16600681111561087357610873611fcd565b145b6108b25760405162461bcd60e51b815260206004820152600e60248201526d4e6f7420726566756e6461626c6560901b6044820152606401610210565b6012546001600160a01b0316156108db5760405162461bcd60e51b81526004016102109061233f565b600c805460ff19166006179055600854601280546001600160a01b039092166001600160a01b0319909216821790556040514791906108fc8315029083906000818181858888f19350505050158015610938573d6000803e3d6000fd5b506008546040518281526001600160a01b03909116907f73d5ba87e3f97f1bd195d8e3930ee6caaeb35b20c78aa7c9b7a52727867d46dc906020015b60405180910390a250565b6001600160a01b0382166109a9576000604051633250574960e11b81526004016102109190611f73565b60006109b683833361168d565b9050836001600160a01b0316816001600160a01b031614610a04576040516364283d7b60e01b81526001600160a01b0380861660048301526024820184905282166044820152606401610210565b50505050565b6008546001600160a01b03163314610a345760405162461bcd60e51b81526004016102109061231a565b601254600160a01b900460ff16610a7d5760405162461bcd60e51b815260206004820152600d60248201526c139bdd081c995c5d595cdd1959609a1b6044820152606401610210565b610aa46040518060400160405280600681526020016510db1a595b9d60d21b815250611781565b565b610ac1838383604051806020016040528060008152506112d5565b505050565b60006106c68261162d565b60006001600160a01b038216610afd5760006040516322718ad960e21b81526004016102109190611f73565b506001600160a01b031660009081526003602052604090205490565b600e80546106d9906122e0565b600f80546106d9906122e0565b606060018054610769906122e0565b6009546001600160a01b03163314610b6c5760405162461bcd60e51b815260040161021090612369565b6001600c5460ff166006811115610b8557610b85611fcd565b14610bc35760405162461bcd60e51b815260206004820152600e60248201526d135d5cdd08189948199d5b99195960921b6044820152606401610210565b601454600114610c0a5760405162461bcd60e51b815260206004820152601260248201527113919508185b1c9958591e481b5a5b9d195960721b6044820152606401610210565b600c805460ff1916600217905560016014819055600954610c36916001600160a01b0390911690611895565b610ccc601454600d8054610c49906122e0565b80601f0160208091040260200160405190810160405280929190818152602001828054610c75906122e0565b8015610cc25780601f10610c9757610100808354040283529160200191610cc2565b820191906000526020600020905b815481529060010190602001808311610ca557829003601f168201915b50505050506118fa565b60405142815233907f6c777e30d9c6cf565ff0d7e5d27d65d66ccecc1143dbe98dc30689556fd34e79906020015b60405180910390a2565b600754600854600954600a54600b54600c54601054601154601254600d805460009a8b9a8b9a8b9a8b9a8b9a60609a8b9a8b9a8e9a8b9a8b9a8b9a90996001600160a01b03918216999082169890821697909660ff918216969495600e95600f959294909390821692600160a01b90920416908790610d82906122e0565b80601f0160208091040260200160405190810160405280929190818152602001828054610dae906122e0565b8015610dfb5780601f10610dd057610100808354040283529160200191610dfb565b820191906000526020600020905b815481529060010190602001808311610dde57829003601f168201915b50505050509650858054610e0e906122e0565b80601f0160208091040260200160405190810160405280929190818152602001828054610e3a906122e0565b8015610e875780601f10610e5c57610100808354040283529160200191610e87565b820191906000526020600020905b815481529060010190602001808311610e6a57829003601f168201915b50505050509550848054610e9a906122e0565b80601f0160208091040260200160405190810160405280929190818152602001828054610ec6906122e0565b8015610f135780601f10610ee857610100808354040283529160200191610f13565b820191906000526020600020905b815481529060010190602001808311610ef657829003601f168201915b505050505094509c509c509c509c509c509c509c509c509c509c509c509c509c50909192939495969798999a9b9c565b61080c33838361194a565b6008546001600160a01b03163314610f785760405162461bcd60e51b81526004016102109061231a565b6000600c5460ff166006811115610f9157610f91611fcd565b14610fcf5760405162461bcd60e51b815260206004820152600e60248201526d105b1c9958591e48199d5b99195960921b6044820152606401610210565b600b54341461101b5760405162461bcd60e51b8152602060048201526018602482015277135d5cdd081b585d18da081859dc99595908185b5bdd5b9d60421b6044820152606401610210565b600c805460ff1916600117905560006013819055600854611047916001600160a01b0390911690611895565b61105a601354600d8054610c49906122e0565b60405134815233907f543137dade665d4d6ce455fcd386a7703dad323aedf71d16ad6116042bcd23d590602001610cfa565b6008546001600160a01b031633146110b65760405162461bcd60e51b81526004016102109061231a565b6009546001600160a01b03161561110d5760405162461bcd60e51b815260206004820152601b60248201527a119c99595b185b98d95c88185b1c9958591e48185cdcda59db9959602a1b6044820152606401610210565b6001600160a01b0381166111555760405162461bcd60e51b815260206004820152600f60248201526e496e76616c6964206164647265737360881b6044820152606401610210565b600980546001600160a01b0319166001600160a01b0383169081179091556040517f6b493de20a114cabad54f840ad7bf515cdbf07ae1024cbd8960f15c5101d18e390600090a250565b6008546001600160a01b031633146111c95760405162461bcd60e51b81526004016102109061231a565b6000600c5460ff1660068111156111e2576111e2611fcd565b148061120557506002600c5460ff16600681111561120257611202611fcd565b14155b6112965760405162461bcd60e51b815260206004820152605660248201527f43616e6e6f742063616e63656c20656974686572206e6f74206372656174656460448201527f206f7220616c72656164792061636365707465642c20706c65617365206e656760648201527537ba34b0ba32903bb4ba3410333932b2b630b731b2b960511b608482015260a401610210565b600c805460ff1916600517905560405142815233907f802f1675de6bcae4f345ab030a16843f3d5c2556a4e27e5bfaaa38ee2c6a0bb690602001610cfa565b6112e084848461097f565b610a0433858585856119e0565b60606112f88261162d565b5060008281526006602052604081208054611312906122e0565b80601f016020809104026020016040519081016040528092919081815260200182805461133e906122e0565b801561138b5780601f106113605761010080835404028352916020019161138b565b820191906000526020600020905b81548152906001019060200180831161136e57829003601f168201915b5050505050905060006113a960408051602081019091526000815290565b905080516000036113bb575092915050565b8151156113ed5780826040516020016113d5929190612392565b60405160208183030381529060405292505050919050565b6113f684611af9565b949350505050565b6001600160a01b03918216600090815260056020908152604080832093909416825291909152205460ff1690565b6009546001600160a01b031633146114565760405162461bcd60e51b815260040161021090612369565b6002600c5460ff16600681111561146f5761146f611fcd565b146114af5760405162461bcd60e51b815260206004820152601060248201526f129bd8881b9bdd081858d8d95c1d195960821b6044820152606401610210565b6012805460ff60a01b1916600160a01b179055600e6114ce8282612407565b50336001600160a01b03167f0b03097dfedda1602fa76f142dfe98df97517a61fc4217f55178b5235576cf7f826040516109749190611f3a565b600a546001600160a01b031633146115555760405162461bcd60e51b815260206004820152601060248201526f27b7363c9020a4903b32b934b334b2b960811b6044820152606401610210565b6002600c5460ff16600681111561156e5761156e611fcd565b146115aa5760405162461bcd60e51b815260206004820152600c60248201526b139bdd081858d8d95c1d195960a21b6044820152606401610210565b600e6115b68282612407565b506115da60405180604001604052806002815260200161414960f01b815250611781565b50565b60006001600160e01b031982166380ac58cd60e01b148061160e57506001600160e01b03198216635b5e139f60e01b145b806106c657506301ffc9a760e01b6001600160e01b03198316146106c6565b60008061163983611b6e565b90506001600160a01b0381166106c657604051637e27328960e01b815260048101849052602401610210565b6000908152600460205260409020546001600160a01b031690565b610ac18383836001611b89565b60008061169984611b6e565b90506001600160a01b038316156116b5576116b5818486611c86565b6001600160a01b038116156116f3576116d2600085600080611b89565b6001600160a01b038116600090815260036020526040902080546000190190555b6001600160a01b03851615611722576001600160a01b0385166000908152600360205260409020805460010190555b60008481526002602052604080822080546001600160a01b0319166001600160a01b0389811691821790925591518793918516917fddf252ad1be2c89b69c2b068fc378daa952ba7f163c4a11628f55a4df523b3ef91a4949350505050565b6012546001600160a01b0316156117aa5760405162461bcd60e51b81526004016102109061233f565b600c805460ff1916600417905542601155600f6117c78282612407565b50600954601280546001600160a01b0319166001600160a01b039092169182179055600b5460405181156108fc0291906000818181858888f19350505050158015611816573d6000803e3d6000fd5b507f3849c58b4b39b379bddc5973e71a10ded174f54140916d81986c7eec092e5c424282600e60405161184b939291906124c6565b60405180910390a1600954600b546040519081526001600160a01b03909116907f221c08a06b07a64803b3787861a3f276212fcccb51c2e6234077a9b8cb13047a90602001610974565b6001600160a01b0382166118bf576000604051633250574960e11b81526004016102109190611f73565b60006118cd8383600061168d565b90506001600160a01b03811615610ac15760006040516339e3563760e11b81526004016102109190611f73565b60008281526006602052604090206119128282612407565b506040518281527ff8e1a15aba9398e019f0b49df1a4fde98ee17ae345cb5f6b5e2c27f5033e8ce79060200160405180910390a15050565b6001600160a01b0382166119735781604051630b61174360e31b81526004016102109190611f73565b6001600160a01b03838116600081815260056020908152604080832094871680845294825291829020805460ff191686151590811790915591519182527f17307eab39ab6107e8899845ad3d59bd9653f200f220920489ca2b5937696c31910160405180910390a3505050565b6001600160a01b0383163b15611af257604051630a85bd0160e11b81526001600160a01b0384169063150b7a0290611a22908890889087908790600401612568565b6020604051808303816000875af1925050508015611a5d575060408051601f3d908101601f19168201909252611a5a918101906125a5565b60015b611abd573d808015611a8b576040519150601f19603f3d011682016040523d82523d6000602084013e611a90565b606091505b508051600003611ab55783604051633250574960e11b81526004016102109190611f73565b805181602001fd5b6001600160e01b03198116630a85bd0160e11b14611af05783604051633250574960e11b81526004016102109190611f73565b505b5050505050565b6060611b048261162d565b506000611b1c60408051602081019091526000815290565b90506000815111611b3c5760405180602001604052806000815250611b67565b80611b4684611cea565b604051602001611b57929190612392565b6040516020818303038152906040525b9392505050565b6000908152600260205260409020546001600160a01b031690565b8080611b9d57506001600160a01b03821615155b15611c56576000611bad8461162d565b90506001600160a01b03831615801590611bd95750826001600160a01b0316816001600160a01b031614155b8015611bec5750611bea81846113fe565b155b15611c0c578260405163a9fbf51f60e01b81526004016102109190611f73565b8115611c545783856001600160a01b0316826001600160a01b03167f8c5be1e5ebec7d5bd14f71427d1e84f3dd0314c0f7b2291e5b200ac8c7c3b92560405160405180910390a45b505b5050600090815260046020526040902080546001600160a01b0319166001600160a01b0392909216919091179055565b611c91838383611d7c565b610ac1576001600160a01b038316611cbf57604051637e27328960e01b815260048101829052602401610210565b60405163177e802f60e01b81526001600160a01b038316600482015260248101829052604401610210565b60606000611cf783611de1565b60010190506000816001600160401b03811115611d1657611d1661215f565b6040519080825280601f01601f191660200182016040528015611d40576020820181803683370190505b5090508181016020015b600019016f181899199a1a9b1b9c1cb0b131b232b360811b600a86061a8153600a8504945084611d4a57509392505050565b60006001600160a01b038316158015906113f65750826001600160a01b0316846001600160a01b03161480611db65750611db684846113fe565b806113f65750826001600160a01b0316611dcf83611665565b6001600160a01b031614949350505050565b60008072184f03e93ff9f4daa797ed6e38ed64bf6a1f0160401b8310611e205772184f03e93ff9f4daa797ed6e38ed64bf6a1f0160401b830492506040015b6904ee2d6d415b85acef8160201b8310611e4a576904ee2d6d415b85acef8160201b830492506020015b662386f26fc100008310611e6857662386f26fc10000830492506010015b6305f5e1008310611e80576305f5e100830492506008015b6127108310611e9457612710830492506004015b60648310611ea6576064830492506002015b600a83106106c65760010192915050565b6001600160e01b0319811681146115da57600080fd5b600060208284031215611edf57600080fd5b8135611b6781611eb7565b60005b83811015611f05578181015183820152602001611eed565b50506000910152565b60008151808452611f26816020860160208601611eea565b601f01601f19169290920160200192915050565b602081526000611b676020830184611f0e565b600060208284031215611f5f57600080fd5b5035919050565b6001600160a01b03169052565b6001600160a01b0391909116815260200190565b80356001600160a01b0381168114611f9e57600080fd5b919050565b60008060408385031215611fb657600080fd5b611fbf83611f87565b946020939093013593505050565b634e487b7160e01b600052602160045260246000fd5b6007811061200157634e487b7160e01b600052602160045260246000fd5b9052565b602081016106c68284611fe3565b60008060006060848603121561202857600080fd5b61203184611f87565b925061203f60208501611f87565b9150604084013590509250925092565b60006020828403121561206157600080fd5b611b6782611f87565b8d81526001600160a01b038d16602082015260006101a061208e604084018f611f66565b61209b606084018e611f66565b8b60808401526120ae60a084018c611fe3565b8060c08401526120c08184018b611f0e565b905082810360e08401526120d4818a611f0e565b90508281036101008401526120e98189611f0e565b9150508561012083015284610140830152612108610160830185611f66565b8215156101808301529e9d5050505050505050505050505050565b6000806040838503121561213657600080fd5b61213f83611f87565b91506020830135801515811461215457600080fd5b809150509250929050565b634e487b7160e01b600052604160045260246000fd5b60006001600160401b038084111561218f5761218f61215f565b604051601f8501601f19908116603f011681019082821181831017156121b7576121b761215f565b816040528093508581528686860111156121d057600080fd5b858560208301376000602087830101525050509392505050565b6000806000806080858703121561220057600080fd5b61220985611f87565b935061221760208601611f87565b92506040850135915060608501356001600160401b0381111561223957600080fd5b8501601f8101871361224a57600080fd5b61225987823560208401612175565b91505092959194509250565b6000806040838503121561227857600080fd5b61228183611f87565b915061228f60208401611f87565b90509250929050565b6000602082840312156122aa57600080fd5b81356001600160401b038111156122c057600080fd5b8201601f810184136122d157600080fd5b6113f684823560208401612175565b600181811c908216806122f457607f821691505b60208210810361231457634e487b7160e01b600052602260045260246000fd5b50919050565b6020808252600b908201526a13db9b1e4818db1a595b9d60aa1b604082015260600190565b60208082526010908201526f105b1c9958591e481c185a59081bdd5d60821b604082015260600190565b6020808252600f908201526e27b7363c90333932b2b630b731b2b960891b604082015260600190565b600083516123a4818460208801611eea565b8351908301906123b8818360208801611eea565b01949350505050565b601f821115610ac157600081815260208120601f850160051c810160208610156123e85750805b601f850160051c820191505b81811015611af0578281556001016123f4565b81516001600160401b038111156124205761242061215f565b6124348161242e84546122e0565b846123c1565b602080601f83116001811461246957600084156124515750858301515b600019600386901b1c1916600185901b178555611af0565b600085815260208120601f198616915b8281101561249857888601518255948401946001909101908401612479565b50858210156124b65787850151600019600388901b60f8161c191681555b5050505050600190811b01905550565b838152600060206060818401526124e06060840186611f0e565b8381036040850152600085546124f5816122e0565b80845260018281168015612510576001811461252a57612558565b60ff1984168688015282151560051b860187019450612558565b896000528660002060005b848110156125505781548882018a0152908301908801612535565b870188019550505b50929a9950505050505050505050565b6001600160a01b038581168252841660208201526040810183905260806060820181905260009061259b90830184611f0e565b9695505050505050565b6000602082840312156125b757600080fd5b8151611b6781611eb756fea26469706673582212209fd885a8bcc98a407e79ab38bf9cf7d74042692cb0376476152b936d53516a4b64736f6c63430008140033","opcodes":"PUSH1 0x80 PUSH1 0x40 MSTORE CALLVALUE DUP1 ISZERO PUSH3 0x11 JUMPI PUSH1 0x0 DUP1 REVERT JUMPDEST POP PUSH1 0x40 MLOAD PUSH3 0x29A3 CODESIZE SUB DUP1 PUSH3 0x29A3 DUP4 CODECOPY DUP2 ADD PUSH1 0x40 DUP2 SWAP1 MSTORE PUSH3 0x34 SWAP2 PUSH3 0x132 JUMP JUMPDEST PUSH1 0x40 MLOAD DUP1 PUSH1 0x40 ADD PUSH1 0x40 MSTORE DUP1 PUSH1 0x10 DUP2 MSTORE PUSH1 0x20 ADD PUSH16 0x536563757265576F726B457363726F77 PUSH1 0x80 SHL DUP2 MSTORE POP PUSH1 0x40 MLOAD DUP1 PUSH1 0x40 ADD PUSH1 0x40 MSTORE DUP1 PUSH1 0x3 DUP2 MSTORE PUSH1 0x20 ADD PUSH3 0x535745 PUSH1 0xE8 SHL DUP2 MSTORE POP DUP2 PUSH1 0x0 SWAP1 DUP2 PUSH3 0x8A SWAP2 SWAP1 PUSH3 0x2CF JUMP JUMPDEST POP PUSH1 0x1 PUSH3 0x99 DUP3 DUP3 PUSH3 0x2CF JUMP JUMPDEST POP POP POP PUSH1 0x7 DUP6 SWAP1 SSTORE PUSH1 0x8 DUP1 SLOAD PUSH1 0x1 PUSH1 0x1 PUSH1 0xA0 SHL SUB DUP1 DUP8 AND PUSH1 0x1 PUSH1 0x1 PUSH1 0xA0 SHL SUB NOT SWAP3 DUP4 AND OR SWAP1 SWAP3 SSTORE PUSH1 0xA DUP1 SLOAD SWAP3 DUP7 AND SWAP3 SWAP1 SWAP2 AND SWAP2 SWAP1 SWAP2 OR SWAP1 SSTORE PUSH1 0xB DUP3 SWAP1 SSTORE PUSH1 0xD PUSH3 0xE4 DUP3 DUP3 PUSH3 0x2CF JUMP JUMPDEST POP POP TIMESTAMP PUSH1 0x10 SSTORE POP POP PUSH1 0xC DUP1 SLOAD PUSH1 0xFF NOT AND SWAP1 SSTORE POP PUSH3 0x39B SWAP1 POP JUMP JUMPDEST DUP1 MLOAD PUSH1 0x1 PUSH1 0x1 PUSH1 0xA0 SHL SUB DUP2 AND DUP2 EQ PUSH3 0x117 JUMPI PUSH1 0x0 DUP1 REVERT JUMPDEST SWAP2 SWAP1 POP JUMP JUMPDEST PUSH4 0x4E487B71 PUSH1 0xE0 SHL PUSH1 0x0 MSTORE PUSH1 0x41 PUSH1 0x4 MSTORE PUSH1 0x24 PUSH1 0x0 REVERT JUMPDEST PUSH1 0x0 DUP1 PUSH1 0x0 DUP1 PUSH1 0x0 PUSH1 0xA0 DUP7 DUP9 SUB SLT ISZERO PUSH3 0x14B JUMPI PUSH1 0x0 DUP1 REVERT JUMPDEST DUP6 MLOAD SWAP5 POP PUSH1 0x20 PUSH3 0x15E DUP2 DUP9 ADD PUSH3 0xFF JUMP JUMPDEST SWAP5 POP PUSH3 0x16E PUSH1 0x40 DUP9 ADD PUSH3 0xFF JUMP JUMPDEST PUSH1 0x60 DUP9 ADD MLOAD PUSH1 0x80 DUP10 ADD MLOAD SWAP2 SWAP6 POP SWAP4 POP PUSH1 0x1 PUSH1 0x1 PUSH1 0x40 SHL SUB DUP1 DUP3 GT ISZERO PUSH3 0x193 JUMPI PUSH1 0x0 DUP1 REVERT JUMPDEST DUP2 DUP10 ADD SWAP2 POP DUP10 PUSH1 0x1F DUP4 ADD SLT PUSH3 0x1A8 JUMPI PUSH1 0x0 DUP1 REVERT JUMPDEST DUP2 MLOAD DUP2 DUP2 GT ISZERO PUSH3 0x1BD JUMPI PUSH3 0x1BD PUSH3 0x11C JUMP JUMPDEST PUSH1 0x40 MLOAD PUSH1 0x1F DUP3 ADD PUSH1 0x1F NOT SWAP1 DUP2 AND PUSH1 0x3F ADD AND DUP2 ADD SWAP1 DUP4 DUP3 GT DUP2 DUP4 LT OR ISZERO PUSH3 0x1E8 JUMPI PUSH3 0x1E8 PUSH3 0x11C JUMP JUMPDEST DUP2 PUSH1 0x40 MSTORE DUP3 DUP2 MSTORE DUP13 DUP7 DUP5 DUP8 ADD ADD GT ISZERO PUSH3 0x201 JUMPI PUSH1 0x0 DUP1 REVERT JUMPDEST PUSH1 0x0 SWAP4 POP JUMPDEST DUP3 DUP5 LT ISZERO PUSH3 0x225 JUMPI DUP5 DUP5 ADD DUP7 ADD MLOAD DUP2 DUP6 ADD DUP8 ADD MSTORE SWAP3 DUP6 ADD SWAP3 PUSH3 0x206 JUMP JUMPDEST PUSH1 0x0 DUP7 DUP5 DUP4 ADD ADD MSTORE DUP1 SWAP7 POP POP POP POP POP POP POP SWAP3 SWAP6 POP SWAP3 SWAP6 SWAP1 SWAP4 POP JUMP JUMPDEST PUSH1 0x1 DUP2 DUP2 SHR SWAP1 DUP3 AND DUP1 PUSH3 0x255 JUMPI PUSH1 0x7F DUP3 AND SWAP2 POP JUMPDEST PUSH1 0x20 DUP3 LT DUP2 SUB PUSH3 0x276 JUMPI PUSH4 0x4E487B71 PUSH1 0xE0 SHL PUSH1 0x0 MSTORE PUSH1 0x22 PUSH1 0x4 MSTORE PUSH1 0x24 PUSH1 0x0 REVERT JUMPDEST POP SWAP2 SWAP1 POP JUMP JUMPDEST PUSH1 0x1F DUP3 GT ISZERO PUSH3 0x2CA JUMPI PUSH1 0x0 DUP2 DUP2 MSTORE PUSH1 0x20 DUP2 KECCAK256 PUSH1 0x1F DUP6 ADD PUSH1 0x5 SHR DUP2 ADD PUSH1 0x20 DUP7 LT ISZERO PUSH3 0x2A5 JUMPI POP DUP1 JUMPDEST PUSH1 0x1F DUP6 ADD PUSH1 0x5 SHR DUP3 ADD SWAP2 POP JUMPDEST DUP2 DUP2 LT ISZERO PUSH3 0x2C6 JUMPI DUP3 DUP2 SSTORE PUSH1 0x1 ADD PUSH3 0x2B1 JUMP JUMPDEST POP POP POP JUMPDEST POP POP POP JUMP JUMPDEST DUP2 MLOAD PUSH1 0x1 PUSH1 0x1 PUSH1 0x40 SHL SUB DUP2 GT ISZERO PUSH3 0x2EB JUMPI PUSH3 0x2EB PUSH3 0x11C JUMP JUMPDEST PUSH3 0x303 DUP2 PUSH3 0x2FC DUP5 SLOAD PUSH3 0x240 JUMP JUMPDEST DUP5 PUSH3 0x27C JUMP JUMPDEST PUSH1 0x20 DUP1 PUSH1 0x1F DUP4 GT PUSH1 0x1 DUP2 EQ PUSH3 0x33B JUMPI PUSH1 0x0 DUP5 ISZERO PUSH3 0x322 JUMPI POP DUP6 DUP4 ADD MLOAD JUMPDEST PUSH1 0x0 NOT PUSH1 0x3 DUP7 SWAP1 SHL SHR NOT AND PUSH1 0x1 DUP6 SWAP1 SHL OR DUP6 SSTORE PUSH3 0x2C6 JUMP JUMPDEST PUSH1 0x0 DUP6 DUP2 MSTORE PUSH1 0x20 DUP2 KECCAK256 PUSH1 0x1F NOT DUP7 AND SWAP2 JUMPDEST DUP3 DUP2 LT ISZERO PUSH3 0x36C JUMPI DUP9 DUP7 ADD MLOAD DUP3 SSTORE SWAP5 DUP5 ADD SWAP5 PUSH1 0x1 SWAP1 SWAP2 ADD SWAP1 DUP5 ADD PUSH3 0x34B JUMP JUMPDEST POP DUP6 DUP3 LT ISZERO PUSH3 0x38B JUMPI DUP8 DUP6 ADD MLOAD PUSH1 0x0 NOT PUSH1 0x3 DUP9 SWAP1 SHL PUSH1 0xF8 AND SHR NOT AND DUP2 SSTORE JUMPDEST POP POP POP POP POP PUSH1 0x1 SWAP1 DUP2 SHL ADD SWAP1 SSTORE POP JUMP JUMPDEST PUSH2 0x25F8 DUP1 PUSH3 0x3AB PUSH1 0x0 CODECOPY PUSH1 0x0 RETURN INVALID PUSH1 0x80 PUSH1 0x40 MSTORE PUSH1 0x4 CALLDATASIZE LT PUSH2 0x1C9 JUMPI PUSH1 0x0 CALLDATALOAD PUSH1 0xE0 SHR DUP1 PUSH4 0x88C0D819 GT PUSH2 0xF3 JUMPI DUP1 PUSH4 0x88C0D819 EQ PUSH2 0x4AA JUMPI DUP1 PUSH4 0x9571DCA6 EQ PUSH2 0x4BF JUMPI DUP1 PUSH4 0x95D89B41 EQ PUSH2 0x4D4 JUMPI DUP1 PUSH4 0x9B789B7E EQ PUSH2 0x4E9 JUMPI DUP1 PUSH4 0x9CA2E6C1 EQ PUSH2 0x4FE JUMPI DUP1 PUSH4 0xA22CB465 EQ PUSH2 0x52C JUMPI DUP1 PUSH4 0xA37DDA2C EQ PUSH2 0x54C JUMPI DUP1 PUSH4 0xA5D737AC EQ PUSH2 0x56C JUMPI DUP1 PUSH4 0xAA8C217C EQ PUSH2 0x574 JUMPI DUP1 PUSH4 0xAD84D4BC EQ PUSH2 0x58A JUMPI DUP1 PUSH4 0xB07C7475 EQ PUSH2 0x5AA JUMPI DUP1 PUSH4 0xB88D4FDE EQ PUSH2 0x5BF JUMPI DUP1 PUSH4 0xC2939D97 EQ PUSH2 0x5DF JUMPI DUP1 PUSH4 0xC87B56DD EQ PUSH2 0x5F5 JUMPI DUP1 PUSH4 0xCF09E0D0 EQ PUSH2 0x615 JUMPI DUP1 PUSH4 0xE985E9C5 EQ PUSH2 0x62B JUMPI DUP1 PUSH4 0xEE30CFA0 EQ PUSH2 0x64B JUMPI DUP1 PUSH4 0xF2E29C2E EQ PUSH2 0x661 JUMPI DUP1 PUSH4 0xF7DD865A EQ PUSH2 0x681 JUMPI PUSH2 0x219 JUMP JUMPDEST DUP1 PUSH4 0x1FFC9A7 EQ PUSH2 0x250 JUMPI DUP1 PUSH4 0x3EE438C EQ PUSH2 0x285 JUMPI DUP1 PUSH4 0x6FDDE03 EQ PUSH2 0x2A7 JUMPI DUP1 PUSH4 0x81812FC EQ PUSH2 0x2BC JUMPI DUP1 PUSH4 0x95EA7B3 EQ PUSH2 0x2E9 JUMPI DUP1 PUSH4 0x109E94CF EQ PUSH2 0x30B JUMPI DUP1 PUSH4 0x12DDBF0E EQ PUSH2 0x32B JUMPI DUP1 PUSH4 0x1FC82C01 EQ PUSH2 0x340 JUMPI DUP1 PUSH4 0x200D2ED2 EQ PUSH2 0x360 JUMPI DUP1 PUSH4 0x23B872DD EQ PUSH2 0x387 JUMPI DUP1 PUSH4 0x38771242 EQ PUSH2 0x3A7 JUMPI DUP1 PUSH4 0x393E950B EQ PUSH2 0x3CB JUMPI DUP1 PUSH4 0x3F7E999F EQ PUSH2 0x3E0 JUMPI DUP1 PUSH4 0x42842E0E EQ PUSH2 0x401 JUMPI DUP1 PUSH4 0x6352211E EQ PUSH2 0x421 JUMPI DUP1 PUSH4 0x6E4E15B9 EQ PUSH2 0x441 JUMPI DUP1 PUSH4 0x6F9FB98A EQ PUSH2 0x461 JUMPI DUP1 PUSH4 0x70A08231 EQ PUSH2 0x474 JUMPI DUP1 PUSH4 0x82C83990 EQ PUSH2 0x494 JUMPI PUSH2 0x219 JUMP JUMPDEST CALLDATASIZE PUSH2 0x219 JUMPI PUSH1 0x40 MLOAD PUSH3 0x461BCD PUSH1 0xE5 SHL DUP2 MSTORE PUSH1 0x20 PUSH1 0x4 DUP3 ADD MSTORE PUSH1 0x1B PUSH1 0x24 DUP3 ADD MSTORE PUSH27 0x111A5C9958DD081C185E5B595B9D1CC81B9BDD08185B1B1BDDD959 PUSH1 0x2A SHL PUSH1 0x44 DUP3 ADD MSTORE PUSH1 0x64 ADD JUMPDEST PUSH1 0x40 MLOAD DUP1 SWAP2 SUB SWAP1 REVERT JUMPDEST PUSH1 0x40 MLOAD PUSH3 0x461BCD PUSH1 0xE5 SHL DUP2 MSTORE PUSH1 0x20 PUSH1 0x4 DUP3 ADD MSTORE PUSH1 0xC PUSH1 0x24 DUP3 ADD MSTORE PUSH12 0x125B9D985B1A590818D85B1B PUSH1 0xA2 SHL PUSH1 0x44 DUP3 ADD MSTORE PUSH1 0x64 ADD PUSH2 0x210 JUMP JUMPDEST CALLVALUE DUP1 ISZERO PUSH2 0x25C JUMPI PUSH1 0x0 DUP1 REVERT JUMPDEST POP PUSH2 0x270 PUSH2 0x26B CALLDATASIZE PUSH1 0x4 PUSH2 0x1ECD JUMP JUMPDEST PUSH2 0x6A1 JUMP JUMPDEST PUSH1 0x40 MLOAD SWAP1 ISZERO ISZERO DUP2 MSTORE PUSH1 0x20 ADD JUMPDEST PUSH1 0x40 MLOAD DUP1 SWAP2 SUB SWAP1 RETURN JUMPDEST CALLVALUE DUP1 ISZERO PUSH2 0x291 JUMPI PUSH1 0x0 DUP1 REVERT JUMPDEST POP PUSH2 0x29A PUSH2 0x6CC JUMP JUMPDEST PUSH1 0x40 MLOAD PUSH2 0x27C SWAP2 SWAP1 PUSH2 0x1F3A JUMP JUMPDEST CALLVALUE DUP1 ISZERO PUSH2 0x2B3 JUMPI PUSH1 0x0 DUP1 REVERT JUMPDEST POP PUSH2 0x29A PUSH2 0x75A JUMP JUMPDEST CALLVALUE DUP1 ISZERO PUSH2 0x2C8 JUMPI PUSH1 0x0 DUP1 REVERT JUMPDEST POP PUSH2 0x2DC PUSH2 0x2D7 CALLDATASIZE PUSH1 0x4 PUSH2 0x1F4D JUMP JUMPDEST PUSH2 0x7EC JUMP JUMPDEST PUSH1 0x40 MLOAD PUSH2 0x27C SWAP2 SWAP1 PUSH2 0x1F73 JUMP JUMPDEST CALLVALUE DUP1 ISZERO PUSH2 0x2F5 JUMPI PUSH1 0x0 DUP1 REVERT JUMPDEST POP PUSH2 0x309 PUSH2 0x304 CALLDATASIZE PUSH1 0x4 PUSH2 0x1FA3 JUMP JUMPDEST PUSH2 0x801 JUMP JUMPDEST STOP JUMPDEST CALLVALUE DUP1 ISZERO PUSH2 0x317 JUMPI PUSH1 0x0 DUP1 REVERT JUMPDEST POP PUSH1 0x8 SLOAD PUSH2 0x2DC SWAP1 PUSH1 0x1 PUSH1 0x1 PUSH1 0xA0 SHL SUB AND DUP2 JUMP JUMPDEST CALLVALUE DUP1 ISZERO PUSH2 0x337 JUMPI PUSH1 0x0 DUP1 REVERT JUMPDEST POP PUSH2 0x309 PUSH2 0x810 JUMP JUMPDEST CALLVALUE DUP1 ISZERO PUSH2 0x34C JUMPI PUSH1 0x0 DUP1 REVERT JUMPDEST POP PUSH1 0x12 SLOAD PUSH2 0x2DC SWAP1 PUSH1 0x1 PUSH1 0x1 PUSH1 0xA0 SHL SUB AND DUP2 JUMP JUMPDEST CALLVALUE DUP1 ISZERO PUSH2 0x36C JUMPI PUSH1 0x0 DUP1 REVERT JUMPDEST POP PUSH1 0xC SLOAD PUSH2 0x37A SWAP1 PUSH1 0xFF AND DUP2 JUMP JUMPDEST PUSH1 0x40 MLOAD PUSH2 0x27C SWAP2 SWAP1 PUSH2 0x2005 JUMP JUMPDEST CALLVALUE DUP1 ISZERO PUSH2 0x393 JUMPI PUSH1 0x0 DUP1 REVERT JUMPDEST POP PUSH2 0x309 PUSH2 0x3A2 CALLDATASIZE PUSH1 0x4 PUSH2 0x2013 JUMP JUMPDEST PUSH2 0x97F JUMP JUMPDEST CALLVALUE DUP1 ISZERO PUSH2 0x3B3 JUMPI PUSH1 0x0 DUP1 REVERT JUMPDEST POP PUSH2 0x3BD PUSH1 0x11 SLOAD DUP2 JUMP JUMPDEST PUSH1 0x40 MLOAD SWAP1 DUP2 MSTORE PUSH1 0x20 ADD PUSH2 0x27C JUMP JUMPDEST CALLVALUE DUP1 ISZERO PUSH2 0x3D7 JUMPI PUSH1 0x0 DUP1 REVERT JUMPDEST POP PUSH2 0x309 PUSH2 0xA0A JUMP JUMPDEST CALLVALUE DUP1 ISZERO PUSH2 0x3EC JUMPI PUSH1 0x0 DUP1 REVERT JUMPDEST POP PUSH1 0x12 SLOAD PUSH2 0x270 SWAP1 PUSH1 0x1 PUSH1 0xA0 SHL SWAP1 DIV PUSH1 0xFF AND DUP2 JUMP JUMPDEST CALLVALUE DUP1 ISZERO PUSH2 0x40D JUMPI PUSH1 0x0 DUP1 REVERT JUMPDEST POP PUSH2 0x309 PUSH2 0x41C CALLDATASIZE PUSH1 0x4 PUSH2 0x2013 JUMP JUMPDEST PUSH2 0xAA6 JUMP JUMPDEST CALLVALUE DUP1 ISZERO PUSH2 0x42D JUMPI PUSH1 0x0 DUP1 REVERT JUMPDEST POP PUSH2 0x2DC PUSH2 0x43C CALLDATASIZE PUSH1 0x4 PUSH2 0x1F4D JUMP JUMPDEST PUSH2 0xAC6 JUMP JUMPDEST CALLVALUE DUP1 ISZERO PUSH2 0x44D JUMPI PUSH1 0x0 DUP1 REVERT JUMPDEST POP PUSH1 0xA SLOAD PUSH2 0x2DC SWAP1 PUSH1 0x1 PUSH1 0x1 PUSH1 0xA0 SHL SUB AND DUP2 JUMP JUMPDEST CALLVALUE DUP1 ISZERO PUSH2 0x46D JUMPI PUSH1 0x0 DUP1 REVERT JUMPDEST POP SELFBALANCE PUSH2 0x3BD JUMP JUMPDEST CALLVALUE DUP1 ISZERO PUSH2 0x480 JUMPI PUSH1 0x0 DUP1 REVERT JUMPDEST POP PUSH2 0x3BD PUSH2 0x48F CALLDATASIZE PUSH1 0x4 PUSH2 0x204F JUMP JUMPDEST PUSH2 0xAD1 JUMP JUMPDEST CALLVALUE DUP1 ISZERO PUSH2 0x4A0 JUMPI PUSH1 0x0 DUP1 REVERT JUMPDEST POP PUSH2 0x3BD PUSH1 0x13 SLOAD DUP2 JUMP JUMPDEST CALLVALUE DUP1 ISZERO PUSH2 0x4B6 JUMPI PUSH1 0x0 DUP1 REVERT JUMPDEST POP PUSH2 0x29A PUSH2 0xB19 JUMP JUMPDEST CALLVALUE DUP1 ISZERO PUSH2 0x4CB JUMPI PUSH1 0x0 DUP1 REVERT JUMPDEST POP PUSH2 0x29A PUSH2 0xB26 JUMP JUMPDEST CALLVALUE DUP1 ISZERO PUSH2 0x4E0 JUMPI PUSH1 0x0 DUP1 REVERT JUMPDEST POP PUSH2 0x29A PUSH2 0xB33 JUMP JUMPDEST CALLVALUE DUP1 ISZERO PUSH2 0x4F5 JUMPI PUSH1 0x0 DUP1 REVERT JUMPDEST POP PUSH2 0x309 PUSH2 0xB42 JUMP JUMPDEST CALLVALUE DUP1 ISZERO PUSH2 0x50A JUMPI PUSH1 0x0 DUP1 REVERT JUMPDEST POP PUSH2 0x513 PUSH2 0xD04 JUMP JUMPDEST PUSH1 0x40 MLOAD PUSH2 0x27C SWAP14 SWAP13 SWAP12 SWAP11 SWAP10 SWAP9 SWAP8 SWAP7 SWAP6 SWAP5 SWAP4 SWAP3 SWAP2 SWAP1 PUSH2 0x206A JUMP JUMPDEST CALLVALUE DUP1 ISZERO PUSH2 0x538 JUMPI PUSH1 0x0 DUP1 REVERT JUMPDEST POP PUSH2 0x309 PUSH2 0x547 CALLDATASIZE PUSH1 0x4 PUSH2 0x2123 JUMP JUMPDEST PUSH2 0xF43 JUMP JUMPDEST CALLVALUE DUP1 ISZERO PUSH2 0x558 JUMPI PUSH1 0x0 DUP1 REVERT JUMPDEST POP PUSH1 0x9 SLOAD PUSH2 0x2DC SWAP1 PUSH1 0x1 PUSH1 0x1 PUSH1 0xA0 SHL SUB AND DUP2 JUMP JUMPDEST PUSH2 0x309 PUSH2 0xF4E JUMP JUMPDEST CALLVALUE DUP1 ISZERO PUSH2 0x580 JUMPI PUSH1 0x0 DUP1 REVERT JUMPDEST POP PUSH2 0x3BD PUSH1 0xB SLOAD DUP2 JUMP JUMPDEST CALLVALUE DUP1 ISZERO PUSH2 0x596 JUMPI PUSH1 0x0 DUP1 REVERT JUMPDEST POP PUSH2 0x309 PUSH2 0x5A5 CALLDATASIZE PUSH1 0x4 PUSH2 0x204F JUMP JUMPDEST PUSH2 0x108C JUMP JUMPDEST CALLVALUE DUP1 ISZERO PUSH2 0x5B6 JUMPI PUSH1 0x0 DUP1 REVERT JUMPDEST POP PUSH2 0x309 PUSH2 0x119F JUMP JUMPDEST CALLVALUE DUP1 ISZERO PUSH2 0x5CB JUMPI PUSH1 0x0 DUP1 REVERT JUMPDEST POP PUSH2 0x309 PUSH2 0x5DA CALLDATASIZE PUSH1 0x4 PUSH2 0x21EA JUMP JUMPDEST PUSH2 0x12D5 JUMP JUMPDEST CALLVALUE DUP1 ISZERO PUSH2 0x5EB JUMPI PUSH1 0x0 DUP1 REVERT JUMPDEST POP PUSH2 0x3BD PUSH1 0x7 SLOAD DUP2 JUMP JUMPDEST CALLVALUE DUP1 ISZERO PUSH2 0x601 JUMPI PUSH1 0x0 DUP1 REVERT JUMPDEST POP PUSH2 0x29A PUSH2 0x610 CALLDATASIZE PUSH1 0x4 PUSH2 0x1F4D JUMP JUMPDEST PUSH2 0x12ED JUMP JUMPDEST CALLVALUE DUP1 ISZERO PUSH2 0x621 JUMPI PUSH1 0x0 DUP1 REVERT JUMPDEST POP PUSH2 0x3BD PUSH1 0x10 SLOAD DUP2 JUMP JUMPDEST CALLVALUE DUP1 ISZERO PUSH2 0x637 JUMPI PUSH1 0x0 DUP1 REVERT JUMPDEST POP PUSH2 0x270 PUSH2 0x646 CALLDATASIZE PUSH1 0x4 PUSH2 0x2265 JUMP JUMPDEST PUSH2 0x13FE JUMP JUMPDEST CALLVALUE DUP1 ISZERO PUSH2 0x657 JUMPI PUSH1 0x0 DUP1 REVERT JUMPDEST POP PUSH2 0x3BD PUSH1 0x14 SLOAD DUP2 JUMP JUMPDEST CALLVALUE DUP1 ISZERO PUSH2 0x66D JUMPI PUSH1 0x0 DUP1 REVERT JUMPDEST POP PUSH2 0x309 PUSH2 0x67C CALLDATASIZE PUSH1 0x4 PUSH2 0x2298 JUMP JUMPDEST PUSH2 0x142C JUMP JUMPDEST CALLVALUE DUP1 ISZERO PUSH2 0x68D JUMPI PUSH1 0x0 DUP1 REVERT JUMPDEST POP PUSH2 0x309 PUSH2 0x69C CALLDATASIZE PUSH1 0x4 PUSH2 0x2298 JUMP JUMPDEST PUSH2 0x1508 JUMP JUMPDEST PUSH1 0x0 PUSH1 0x1 PUSH1 0x1 PUSH1 0xE0 SHL SUB NOT DUP3 AND PUSH4 0x24832483 PUSH1 0xE1 SHL EQ DUP1 PUSH2 0x6C6 JUMPI POP PUSH2 0x6C6 DUP3 PUSH2 0x15DD JUMP JUMPDEST SWAP3 SWAP2 POP POP JUMP JUMPDEST PUSH1 0xD DUP1 SLOAD PUSH2 0x6D9 SWAP1 PUSH2 0x22E0 JUMP JUMPDEST DUP1 PUSH1 0x1F ADD PUSH1 0x20 DUP1 SWAP2 DIV MUL PUSH1 0x20 ADD PUSH1 0x40 MLOAD SWAP1 DUP2 ADD PUSH1 0x40 MSTORE DUP1 SWAP3 SWAP2 SWAP1 DUP2 DUP2 MSTORE PUSH1 0x20 ADD DUP3 DUP1 SLOAD PUSH2 0x705 SWAP1 PUSH2 0x22E0 JUMP JUMPDEST DUP1 ISZERO PUSH2 0x752 JUMPI DUP1 PUSH1 0x1F LT PUSH2 0x727 JUMPI PUSH2 0x100 DUP1 DUP4 SLOAD DIV MUL DUP4 MSTORE SWAP2 PUSH1 0x20 ADD SWAP2 PUSH2 0x752 JUMP JUMPDEST DUP3 ADD SWAP2 SWAP1 PUSH1 0x0 MSTORE PUSH1 0x20 PUSH1 0x0 KECCAK256 SWAP1 JUMPDEST DUP2 SLOAD DUP2 MSTORE SWAP1 PUSH1 0x1 ADD SWAP1 PUSH1 0x20 ADD DUP1 DUP4 GT PUSH2 0x735 JUMPI DUP3 SWAP1 SUB PUSH1 0x1F AND DUP3 ADD SWAP2 JUMPDEST POP POP POP POP POP DUP2 JUMP JUMPDEST PUSH1 0x60 PUSH1 0x0 DUP1 SLOAD PUSH2 0x769 SWAP1 PUSH2 0x22E0 JUMP JUMPDEST DUP1 PUSH1 0x1F ADD PUSH1 0x20 DUP1 SWAP2 DIV MUL PUSH1 0x20 ADD PUSH1 0x40 MLOAD SWAP1 DUP2 ADD PUSH1 0x40 MSTORE DUP1 SWAP3 SWAP2 SWAP1 DUP2 DUP2 MSTORE PUSH1 0x20 ADD DUP3 DUP1 SLOAD PUSH2 0x795 SWAP1 PUSH2 0x22E0 JUMP JUMPDEST DUP1 ISZERO PUSH2 0x7E2 JUMPI DUP1 PUSH1 0x1F LT PUSH2 0x7B7 JUMPI PUSH2 0x100 DUP1 DUP4 SLOAD DIV MUL DUP4 MSTORE SWAP2 PUSH1 0x20 ADD SWAP2 PUSH2 0x7E2 JUMP JUMPDEST DUP3 ADD SWAP2 SWAP1 PUSH1 0x0 MSTORE PUSH1 0x20 PUSH1 0x0 KECCAK256 SWAP1 JUMPDEST DUP2 SLOAD DUP2 MSTORE SWAP1 PUSH1 0x1 ADD SWAP1 PUSH1 0x20 ADD DUP1 DUP4 GT PUSH2 0x7C5 JUMPI DUP3 SWAP1 SUB PUSH1 0x1F AND DUP3 ADD SWAP2 JUMPDEST POP POP POP POP POP SWAP1 POP SWAP1 JUMP JUMPDEST PUSH1 0x0 PUSH2 0x7F7 DUP3 PUSH2 0x162D JUMP JUMPDEST POP PUSH2 0x6C6 DUP3 PUSH2 0x1665 JUMP JUMPDEST PUSH2 0x80C DUP3 DUP3 CALLER PUSH2 0x1680 JUMP JUMPDEST POP POP JUMP JUMPDEST PUSH1 0x8 SLOAD PUSH1 0x1 PUSH1 0x1 PUSH1 0xA0 SHL SUB AND CALLER EQ PUSH2 0x83A JUMPI PUSH1 0x40 MLOAD PUSH3 0x461BCD PUSH1 0xE5 SHL DUP2 MSTORE PUSH1 0x4 ADD PUSH2 0x210 SWAP1 PUSH2 0x231A JUMP JUMPDEST PUSH1 0x1 PUSH1 0xC SLOAD PUSH1 0xFF AND PUSH1 0x6 DUP2 GT ISZERO PUSH2 0x853 JUMPI PUSH2 0x853 PUSH2 0x1FCD JUMP JUMPDEST EQ DUP1 PUSH2 0x875 JUMPI POP PUSH1 0x2 PUSH1 0xC SLOAD PUSH1 0xFF AND PUSH1 0x6 DUP2 GT ISZERO PUSH2 0x873 JUMPI PUSH2 0x873 PUSH2 0x1FCD JUMP JUMPDEST EQ JUMPDEST PUSH2 0x8B2 JUMPI PUSH1 0x40 MLOAD PUSH3 0x461BCD PUSH1 0xE5 SHL DUP2 MSTORE PUSH1 0x20 PUSH1 0x4 DUP3 ADD MSTORE PUSH1 0xE PUSH1 0x24 DUP3 ADD MSTORE PUSH14 0x4E6F7420726566756E6461626C65 PUSH1 0x90 SHL PUSH1 0x44 DUP3 ADD MSTORE PUSH1 0x64 ADD PUSH2 0x210 JUMP JUMPDEST PUSH1 0x12 SLOAD PUSH1 0x1 PUSH1 0x1 PUSH1 0xA0 SHL SUB AND ISZERO PUSH2 0x8DB JUMPI PUSH1 0x40 MLOAD PUSH3 0x461BCD PUSH1 0xE5 SHL DUP2 MSTORE PUSH1 0x4 ADD PUSH2 0x210 SWAP1 PUSH2 0x233F JUMP JUMPDEST PUSH1 0xC DUP1 SLOAD PUSH1 0xFF NOT AND PUSH1 0x6 OR SWAP1 SSTORE PUSH1 0x8 SLOAD PUSH1 0x12 DUP1 SLOAD PUSH1 0x1 PUSH1 0x1 PUSH1 0xA0 SHL SUB SWAP1 SWAP3 AND PUSH1 0x1 PUSH1 0x1 PUSH1 0xA0 SHL SUB NOT SWAP1 SWAP3 AND DUP3 OR SWAP1 SSTORE PUSH1 0x40 MLOAD SELFBALANCE SWAP2 SWAP1 PUSH2 0x8FC DUP4 ISZERO MUL SWAP1 DUP4 SWAP1 PUSH1 0x0 DUP2 DUP2 DUP2 DUP6 DUP9 DUP9 CALL SWAP4 POP POP POP POP ISZERO DUP1 ISZERO PUSH2 0x938 JUMPI RETURNDATASIZE PUSH1 0x0 DUP1 RETURNDATACOPY RETURNDATASIZE PUSH1 0x0 REVERT JUMPDEST POP PUSH1 0x8 SLOAD PUSH1 0x40 MLOAD DUP3 DUP2 MSTORE PUSH1 0x1 PUSH1 0x1 PUSH1 0xA0 SHL SUB SWAP1 SWAP2 AND SWAP1 PUSH32 0x73D5BA87E3F97F1BD195D8E3930EE6CAAEB35B20C78AA7C9B7A52727867D46DC SWAP1 PUSH1 0x20 ADD JUMPDEST PUSH1 0x40 MLOAD DUP1 SWAP2 SUB SWAP1 LOG2 POP JUMP JUMPDEST PUSH1 0x1 PUSH1 0x1 PUSH1 0xA0 SHL SUB DUP3 AND PUSH2 0x9A9 JUMPI PUSH1 0x0 PUSH1 0x40 MLOAD PUSH4 0x32505749 PUSH1 0xE1 SHL DUP2 MSTORE PUSH1 0x4 ADD PUSH2 0x210 SWAP2 SWAP1 PUSH2 0x1F73 JUMP JUMPDEST PUSH1 0x0 PUSH2 0x9B6 DUP4 DUP4 CALLER PUSH2 0x168D JUMP JUMPDEST SWAP1 POP DUP4 PUSH1 0x1 PUSH1 0x1 PUSH1 0xA0 SHL SUB AND DUP2 PUSH1 0x1 PUSH1 0x1 PUSH1 0xA0 SHL SUB AND EQ PUSH2 0xA04 JUMPI PUSH1 0x40 MLOAD PUSH4 0x64283D7B PUSH1 0xE0 SHL DUP2 MSTORE PUSH1 0x1 PUSH1 0x1 PUSH1 0xA0 SHL SUB DUP1 DUP7 AND PUSH1 0x4 DUP4 ADD MSTORE PUSH1 0x24 DUP3 ADD DUP5 SWAP1 MSTORE DUP3 AND PUSH1 0x44 DUP3 ADD MSTORE PUSH1 0x64 ADD PUSH2 0x210 JUMP JUMPDEST POP POP POP POP JUMP JUMPDEST PUSH1 0x8 SLOAD PUSH1 0x1 PUSH1 0x1 PUSH1 0xA0 SHL SUB AND CALLER EQ PUSH2 0xA34 JUMPI PUSH1 0x40 MLOAD PUSH3 0x461BCD PUSH1 0xE5 SHL DUP2 MSTORE PUSH1 0x4 ADD PUSH2 0x210 SWAP1 PUSH2 0x231A JUMP JUMPDEST PUSH1 0x12 SLOAD PUSH1 0x1 PUSH1 0xA0 SHL SWAP1 DIV PUSH1 0xFF AND PUSH2 0xA7D JUMPI PUSH1 0x40 MLOAD PUSH3 0x461BCD PUSH1 0xE5 SHL DUP2 MSTORE PUSH1 0x20 PUSH1 0x4 DUP3 ADD MSTORE PUSH1 0xD PUSH1 0x24 DUP3 ADD MSTORE PUSH13 0x139BDD081C995C5D595CDD1959 PUSH1 0x9A SHL PUSH1 0x44 DUP3 ADD MSTORE PUSH1 0x64 ADD PUSH2 0x210 JUMP JUMPDEST PUSH2 0xAA4 PUSH1 0x40 MLOAD DUP1 PUSH1 0x40 ADD PUSH1 0x40 MSTORE DUP1 PUSH1 0x6 DUP2 MSTORE PUSH1 0x20 ADD PUSH6 0x10DB1A595B9D PUSH1 0xD2 SHL DUP2 MSTORE POP PUSH2 0x1781 JUMP JUMPDEST JUMP JUMPDEST PUSH2 0xAC1 DUP4 DUP4 DUP4 PUSH1 0x40 MLOAD DUP1 PUSH1 0x20 ADD PUSH1 0x40 MSTORE DUP1 PUSH1 0x0 DUP2 MSTORE POP PUSH2 0x12D5 JUMP JUMPDEST POP POP POP JUMP JUMPDEST PUSH1 0x0 PUSH2 0x6C6 DUP3 PUSH2 0x162D JUMP JUMPDEST PUSH1 0x0 PUSH1 0x1 PUSH1 0x1 PUSH1 0xA0 SHL SUB DUP3 AND PUSH2 0xAFD JUMPI PUSH1 0x0 PUSH1 0x40 MLOAD PUSH4 0x22718AD9 PUSH1 0xE2 SHL DUP2 MSTORE PUSH1 0x4 ADD PUSH2 0x210 SWAP2 SWAP1 PUSH2 0x1F73 JUMP JUMPDEST POP PUSH1 0x1 PUSH1 0x1 PUSH1 0xA0 SHL SUB AND PUSH1 0x0 SWAP1 DUP2 MSTORE PUSH1 0x3 PUSH1 0x20 MSTORE PUSH1 0x40 SWAP1 KECCAK256 SLOAD SWAP1 JUMP JUMPDEST PUSH1 0xE DUP1 SLOAD PUSH2 0x6D9 SWAP1 PUSH2 0x22E0 JUMP JUMPDEST PUSH1 0xF DUP1 SLOAD PUSH2 0x6D9 SWAP1 PUSH2 0x22E0 JUMP JUMPDEST PUSH1 0x60 PUSH1 0x1 DUP1 SLOAD PUSH2 0x769 SWAP1 PUSH2 0x22E0 JUMP JUMPDEST PUSH1 0x9 SLOAD PUSH1 0x1 PUSH1 0x1 PUSH1 0xA0 SHL SUB AND CALLER EQ PUSH2 0xB6C JUMPI PUSH1 0x40 MLOAD PUSH3 0x461BCD PUSH1 0xE5 SHL DUP2 MSTORE PUSH1 0x4 ADD PUSH2 0x210 SWAP1 PUSH2 0x2369 JUMP JUMPDEST PUSH1 0x1 PUSH1 0xC SLOAD PUSH1 0xFF AND PUSH1 0x6 DUP2 GT ISZERO PUSH2 0xB85 JUMPI PUSH2 0xB85 PUSH2 0x1FCD JUMP JUMPDEST EQ PUSH2 0xBC3 JUMPI PUSH1 0x40 MLOAD PUSH3 0x461BCD PUSH1 0xE5 SHL DUP2 MSTORE PUSH1 0x20 PUSH1 0x4 DUP3 ADD MSTORE PUSH1 0xE PUSH1 0x24 DUP3 ADD MSTORE PUSH14 0x135D5CDD08189948199D5B991959 PUSH1 0x92 SHL PUSH1 0x44 DUP3 ADD MSTORE PUSH1 0x64 ADD PUSH2 0x210 JUMP JUMPDEST PUSH1 0x14 SLOAD PUSH1 0x1 EQ PUSH2 0xC0A JUMPI PUSH1 0x40 MLOAD PUSH3 0x461BCD PUSH1 0xE5 SHL DUP2 MSTORE PUSH1 0x20 PUSH1 0x4 DUP3 ADD MSTORE PUSH1 0x12 PUSH1 0x24 DUP3 ADD MSTORE PUSH18 0x13919508185B1C9958591E481B5A5B9D1959 PUSH1 0x72 SHL PUSH1 0x44 DUP3 ADD MSTORE PUSH1 0x64 ADD PUSH2 0x210 JUMP JUMPDEST PUSH1 0xC DUP1 SLOAD PUSH1 0xFF NOT AND PUSH1 0x2 OR SWAP1 SSTORE PUSH1 0x1 PUSH1 0x14 DUP2 SWAP1 SSTORE PUSH1 0x9 SLOAD PUSH2 0xC36 SWAP2 PUSH1 0x1 PUSH1 0x1 PUSH1 0xA0 SHL SUB SWAP1 SWAP2 AND SWAP1 PUSH2 0x1895 JUMP JUMPDEST PUSH2 0xCCC PUSH1 0x14 SLOAD PUSH1 0xD DUP1 SLOAD PUSH2 0xC49 SWAP1 PUSH2 0x22E0 JUMP JUMPDEST DUP1 PUSH1 0x1F ADD PUSH1 0x20 DUP1 SWAP2 DIV MUL PUSH1 0x20 ADD PUSH1 0x40 MLOAD SWAP1 DUP2 ADD PUSH1 0x40 MSTORE DUP1 SWAP3 SWAP2 SWAP1 DUP2 DUP2 MSTORE PUSH1 0x20 ADD DUP3 DUP1 SLOAD PUSH2 0xC75 SWAP1 PUSH2 0x22E0 JUMP JUMPDEST DUP1 ISZERO PUSH2 0xCC2 JUMPI DUP1 PUSH1 0x1F LT PUSH2 0xC97 JUMPI PUSH2 0x100 DUP1 DUP4 SLOAD DIV MUL DUP4 MSTORE SWAP2 PUSH1 0x20 ADD SWAP2 PUSH2 0xCC2 JUMP JUMPDEST DUP3 ADD SWAP2 SWAP1 PUSH1 0x0 MSTORE PUSH1 0x20 PUSH1 0x0 KECCAK256 SWAP1 JUMPDEST DUP2 SLOAD DUP2 MSTORE SWAP1 PUSH1 0x1 ADD SWAP1 PUSH1 0x20 ADD DUP1 DUP4 GT PUSH2 0xCA5 JUMPI DUP3 SWAP1 SUB PUSH1 0x1F AND DUP3 ADD SWAP2 JUMPDEST POP POP POP POP POP PUSH2 0x18FA JUMP JUMPDEST PUSH1 0x40 MLOAD TIMESTAMP DUP2 MSTORE CALLER SWAP1 PUSH32 0x6C777E30D9C6CF565FF0D7E5D27D65D66CCECC1143DBE98DC30689556FD34E79 SWAP1 PUSH1 0x20 ADD JUMPDEST PUSH1 0x40 MLOAD DUP1 SWAP2 SUB SWAP1 LOG2 JUMP JUMPDEST PUSH1 0x7 SLOAD PUSH1 0x8 SLOAD PUSH1 0x9 SLOAD PUSH1 0xA SLOAD PUSH1 0xB SLOAD PUSH1 0xC SLOAD PUSH1 0x10 SLOAD PUSH1 0x11 SLOAD PUSH1 0x12 SLOAD PUSH1 0xD DUP1 SLOAD PUSH1 0x0 SWAP11 DUP12 SWAP11 DUP12 SWAP11 DUP12 SWAP11 DUP12 SWAP11 DUP12 SWAP11 PUSH1 0x60 SWAP11 DUP12 SWAP11 DUP12 SWAP11 DUP15 SWAP11 DUP12 SWAP11 DUP12 SWAP11 DUP12 SWAP11 SWAP1 SWAP10 PUSH1 0x1 PUSH1 0x1 PUSH1 0xA0 SHL SUB SWAP2 DUP3 AND SWAP10 SWAP1 DUP3 AND SWAP9 SWAP1 DUP3 AND SWAP8 SWAP1 SWAP7 PUSH1 0xFF SWAP2 DUP3 AND SWAP7 SWAP5 SWAP6 PUSH1 0xE SWAP6 PUSH1 0xF SWAP6 SWAP3 SWAP5 SWAP1 SWAP4 SWAP1 DUP3 AND SWAP3 PUSH1 0x1 PUSH1 0xA0 SHL SWAP1 SWAP3 DIV AND SWAP1 DUP8 SWAP1 PUSH2 0xD82 SWAP1 PUSH2 0x22E0 JUMP JUMPDEST DUP1 PUSH1 0x1F ADD PUSH1 0x20 DUP1 SWAP2 DIV MUL PUSH1 0x20 ADD PUSH1 0x40 MLOAD SWAP1 DUP2 ADD PUSH1 0x40 MSTORE DUP1 SWAP3 SWAP2 SWAP1 DUP2 DUP2 MSTORE PUSH1 0x20 ADD DUP3 DUP1 SLOAD PUSH2 0xDAE SWAP1 PUSH2 0x22E0 JUMP JUMPDEST DUP1 ISZERO PUSH2 0xDFB JUMPI DUP1 PUSH1 0x1F LT PUSH2 0xDD0 JUMPI PUSH2 0x100 DUP1 DUP4 SLOAD DIV MUL DUP4 MSTORE SWAP2 PUSH1 0x20 ADD SWAP2 PUSH2 0xDFB JUMP JUMPDEST DUP3 ADD SWAP2 SWAP1 PUSH1 0x0 MSTORE PUSH1 0x20 PUSH1 0x0 KECCAK256 SWAP1 JUMPDEST DUP2 SLOAD DUP2 MSTORE SWAP1 PUSH1 0x1 ADD SWAP1 PUSH1 0x20 ADD DUP1 DUP4 GT PUSH2 0xDDE JUMPI DUP3 SWAP1 SUB PUSH1 0x1F AND DUP3 ADD SWAP2 JUMPDEST POP POP POP POP POP SWAP7 POP DUP6 DUP1 SLOAD PUSH2 0xE0E SWAP1 PUSH2 0x22E0 JUMP JUMPDEST DUP1 PUSH1 0x1F ADD PUSH1 0x20 DUP1 SWAP2 DIV MUL PUSH1 0x20 ADD PUSH1 0x40 MLOAD SWAP1 DUP2 ADD PUSH1 0x40 MSTORE DUP1 SWAP3 SWAP2 SWAP1 DUP2 DUP2 MSTORE PUSH1 0x20 ADD DUP3 DUP1 SLOAD PUSH2 0xE3A SWAP1 PUSH2 0x22E0 JUMP JUMPDEST DUP1 ISZERO PUSH2 0xE87 JUMPI DUP1 PUSH1 0x1F LT PUSH2 0xE5C JUMPI PUSH2 0x100 DUP1 DUP4 SLOAD DIV MUL DUP4 MSTORE SWAP2 PUSH1 0x20 ADD SWAP2 PUSH2 0xE87 JUMP JUMPDEST DUP3 ADD SWAP2 SWAP1 PUSH1 0x0 MSTORE PUSH1 0x20 PUSH1 0x0 KECCAK256 SWAP1 JUMPDEST DUP2 SLOAD DUP2 MSTORE SWAP1 PUSH1 0x1 ADD SWAP1 PUSH1 0x20 ADD DUP1 DUP4 GT PUSH2 0xE6A JUMPI DUP3 SWAP1 SUB PUSH1 0x1F AND DUP3 ADD SWAP2 JUMPDEST POP POP POP POP POP SWAP6 POP DUP5 DUP1 SLOAD PUSH2 0xE9A SWAP1 PUSH2 0x22E0 JUMP JUMPDEST DUP1 PUSH1 0x1F ADD PUSH1 0x20 DUP1 SWAP2 DIV MUL PUSH1 0x20 ADD PUSH1 0x40 MLOAD SWAP1 DUP2 ADD PUSH1 0x40 MSTORE DUP1 SWAP3 SWAP2 SWAP1 DUP2 DUP2 MSTORE PUSH1 0x20 ADD DUP3 DUP1 SLOAD PUSH2 0xEC6 SWAP1 PUSH2 0x22E0 JUMP JUMPDEST DUP1 ISZERO PUSH2 0xF13 JUMPI DUP1 PUSH1 0x1F LT PUSH2 0xEE8 JUMPI PUSH2 0x100 DUP1 DUP4 SLOAD DIV MUL DUP4 MSTORE SWAP2 PUSH1 0x20 ADD SWAP2 PUSH2 0xF13 JUMP JUMPDEST DUP3 ADD SWAP2 SWAP1 PUSH1 0x0 MSTORE PUSH1 0x20 PUSH1 0x0 KECCAK256 SWAP1 JUMPDEST DUP2 SLOAD DUP2 MSTORE SWAP1 PUSH1 0x1 ADD SWAP1 PUSH1 0x20 ADD DUP1 DUP4 GT PUSH2 0xEF6 JUMPI DUP3 SWAP1 SUB PUSH1 0x1F AND DUP3 ADD SWAP2 JUMPDEST POP POP POP POP POP SWAP5 POP SWAP13 POP SWAP13 POP SWAP13 POP SWAP13 POP SWAP13 POP SWAP13 POP SWAP13 POP SWAP13 POP SWAP13 POP SWAP13 POP SWAP13 POP SWAP13 POP SWAP13 POP SWAP1 SWAP2 SWAP3 SWAP4 SWAP5 SWAP6 SWAP7 SWAP8 SWAP9 SWAP10 SWAP11 SWAP12 SWAP13 JUMP JUMPDEST PUSH2 0x80C CALLER DUP4 DUP4 PUSH2 0x194A JUMP JUMPDEST PUSH1 0x8 SLOAD PUSH1 0x1 PUSH1 0x1 PUSH1 0xA0 SHL SUB AND CALLER EQ PUSH2 0xF78 JUMPI PUSH1 0x40 MLOAD PUSH3 0x461BCD PUSH1 0xE5 SHL DUP2 MSTORE PUSH1 0x4 ADD PUSH2 0x210 SWAP1 PUSH2 0x231A JUMP JUMPDEST PUSH1 0x0 PUSH1 0xC SLOAD PUSH1 0xFF AND PUSH1 0x6 DUP2 GT ISZERO PUSH2 0xF91 JUMPI PUSH2 0xF91 PUSH2 0x1FCD JUMP JUMPDEST EQ PUSH2 0xFCF JUMPI PUSH1 0x40 MLOAD PUSH3 0x461BCD PUSH1 0xE5 SHL DUP2 MSTORE PUSH1 0x20 PUSH1 0x4 DUP3 ADD MSTORE PUSH1 0xE PUSH1 0x24 DUP3 ADD MSTORE PUSH14 0x105B1C9958591E48199D5B991959 PUSH1 0x92 SHL PUSH1 0x44 DUP3 ADD MSTORE PUSH1 0x64 ADD PUSH2 0x210 JUMP JUMPDEST PUSH1 0xB SLOAD CALLVALUE EQ PUSH2 0x101B JUMPI PUSH1 0x40 MLOAD PUSH3 0x461BCD PUSH1 0xE5 SHL DUP2 MSTORE PUSH1 0x20 PUSH1 0x4 DUP3 ADD MSTORE PUSH1 0x18 PUSH1 0x24 DUP3 ADD MSTORE PUSH24 0x135D5CDD081B585D18DA081859DC99595908185B5BDD5B9D PUSH1 0x42 SHL PUSH1 0x44 DUP3 ADD MSTORE PUSH1 0x64 ADD PUSH2 0x210 JUMP JUMPDEST PUSH1 0xC DUP1 SLOAD PUSH1 0xFF NOT AND PUSH1 0x1 OR SWAP1 SSTORE PUSH1 0x0 PUSH1 0x13 DUP2 SWAP1 SSTORE PUSH1 0x8 SLOAD PUSH2 0x1047 SWAP2 PUSH1 0x1 PUSH1 0x1 PUSH1 0xA0 SHL SUB SWAP1 SWAP2 AND SWAP1 PUSH2 0x1895 JUMP JUMPDEST PUSH2 0x105A PUSH1 0x13 SLOAD PUSH1 0xD DUP1 SLOAD PUSH2 0xC49 SWAP1 PUSH2 0x22E0 JUMP JUMPDEST PUSH1 0x40 MLOAD CALLVALUE DUP2 MSTORE CALLER SWAP1 PUSH32 0x543137DADE665D4D6CE455FCD386A7703DAD323AEDF71D16AD6116042BCD23D5 SWAP1 PUSH1 0x20 ADD PUSH2 0xCFA JUMP JUMPDEST PUSH1 0x8 SLOAD PUSH1 0x1 PUSH1 0x1 PUSH1 0xA0 SHL SUB AND CALLER EQ PUSH2 0x10B6 JUMPI PUSH1 0x40 MLOAD PUSH3 0x461BCD PUSH1 0xE5 SHL DUP2 MSTORE PUSH1 0x4 ADD PUSH2 0x210 SWAP1 PUSH2 0x231A JUMP JUMPDEST PUSH1 0x9 SLOAD PUSH1 0x1 PUSH1 0x1 PUSH1 0xA0 SHL SUB AND ISZERO PUSH2 0x110D JUMPI PUSH1 0x40 MLOAD PUSH3 0x461BCD PUSH1 0xE5 SHL DUP2 MSTORE PUSH1 0x20 PUSH1 0x4 DUP3 ADD MSTORE PUSH1 0x1B PUSH1 0x24 DUP3 ADD MSTORE PUSH27 0x119C99595B185B98D95C88185B1C9958591E48185CDCDA59DB9959 PUSH1 0x2A SHL PUSH1 0x44 DUP3 ADD MSTORE PUSH1 0x64 ADD PUSH2 0x210 JUMP JUMPDEST PUSH1 0x1 PUSH1 0x1 PUSH1 0xA0 SHL SUB DUP2 AND PUSH2 0x1155 JUMPI PUSH1 0x40 MLOAD PUSH3 0x461BCD PUSH1 0xE5 SHL DUP2 MSTORE PUSH1 0x20 PUSH1 0x4 DUP3 ADD MSTORE PUSH1 0xF PUSH1 0x24 DUP3 ADD MSTORE PUSH15 0x496E76616C69642061646472657373 PUSH1 0x88 SHL PUSH1 0x44 DUP3 ADD MSTORE PUSH1 0x64 ADD PUSH2 0x210 JUMP JUMPDEST PUSH1 0x9 DUP1 SLOAD PUSH1 0x1 PUSH1 0x1 PUSH1 0xA0 SHL SUB NOT AND PUSH1 0x1 PUSH1 0x1 PUSH1 0xA0 SHL SUB DUP4 AND SWAP1 DUP2 OR SWAP1 SWAP2 SSTORE PUSH1 0x40 MLOAD PUSH32 0x6B493DE20A114CABAD54F840AD7BF515CDBF07AE1024CBD8960F15C5101D18E3 SWAP1 PUSH1 0x0 SWAP1 LOG2 POP JUMP JUMPDEST PUSH1 0x8 SLOAD PUSH1 0x1 PUSH1 0x1 PUSH1 0xA0 SHL SUB AND CALLER EQ PUSH2 0x11C9 JUMPI PUSH1 0x40 MLOAD PUSH3 0x461BCD PUSH1 0xE5 SHL DUP2 MSTORE PUSH1 0x4 ADD PUSH2 0x210 SWAP1 PUSH2 0x231A JUMP JUMPDEST PUSH1 0x0 PUSH1 0xC SLOAD PUSH1 0xFF AND PUSH1 0x6 DUP2 GT ISZERO PUSH2 0x11E2 JUMPI PUSH2 0x11E2 PUSH2 0x1FCD JUMP JUMPDEST EQ DUP1 PUSH2 0x1205 JUMPI POP PUSH1 0x2 PUSH1 0xC SLOAD PUSH1 0xFF AND PUSH1 0x6 DUP2 GT ISZERO PUSH2 0x1202 JUMPI PUSH2 0x1202 PUSH2 0x1FCD JUMP JUMPDEST EQ ISZERO JUMPDEST PUSH2 0x1296 JUMPI PUSH1 0x40 MLOAD PUSH3 0x461BCD PUSH1 0xE5 SHL DUP2 MSTORE PUSH1 0x20 PUSH1 0x4 DUP3 ADD MSTORE PUSH1 0x56 PUSH1 0x24 DUP3 ADD MSTORE PUSH32 0x43616E6E6F742063616E63656C20656974686572206E6F742063726561746564 PUSH1 0x44 DUP3 ADD MSTORE PUSH32 0x206F7220616C72656164792061636365707465642C20706C65617365206E6567 PUSH1 0x64 DUP3 ADD MSTORE PUSH22 0x37BA34B0BA32903BB4BA3410333932B2B630B731B2B9 PUSH1 0x51 SHL PUSH1 0x84 DUP3 ADD MSTORE PUSH1 0xA4 ADD PUSH2 0x210 JUMP JUMPDEST PUSH1 0xC DUP1 SLOAD PUSH1 0xFF NOT AND PUSH1 0x5 OR SWAP1 SSTORE PUSH1 0x40 MLOAD TIMESTAMP DUP2 MSTORE CALLER SWAP1 PUSH32 0x802F1675DE6BCAE4F345AB030A16843F3D5C2556A4E27E5BFAAA38EE2C6A0BB6 SWAP1 PUSH1 0x20 ADD PUSH2 0xCFA JUMP JUMPDEST PUSH2 0x12E0 DUP5 DUP5 DUP5 PUSH2 0x97F JUMP JUMPDEST PUSH2 0xA04 CALLER DUP6 DUP6 DUP6 DUP6 PUSH2 0x19E0 JUMP JUMPDEST PUSH1 0x60 PUSH2 0x12F8 DUP3 PUSH2 0x162D JUMP JUMPDEST POP PUSH1 0x0 DUP3 DUP2 MSTORE PUSH1 0x6 PUSH1 0x20 MSTORE PUSH1 0x40 DUP2 KECCAK256 DUP1 SLOAD PUSH2 0x1312 SWAP1 PUSH2 0x22E0 JUMP JUMPDEST DUP1 PUSH1 0x1F ADD PUSH1 0x20 DUP1 SWAP2 DIV MUL PUSH1 0x20 ADD PUSH1 0x40 MLOAD SWAP1 DUP2 ADD PUSH1 0x40 MSTORE DUP1 SWAP3 SWAP2 SWAP1 DUP2 DUP2 MSTORE PUSH1 0x20 ADD DUP3 DUP1 SLOAD PUSH2 0x133E SWAP1 PUSH2 0x22E0 JUMP JUMPDEST DUP1 ISZERO PUSH2 0x138B JUMPI DUP1 PUSH1 0x1F LT PUSH2 0x1360 JUMPI PUSH2 0x100 DUP1 DUP4 SLOAD DIV MUL DUP4 MSTORE SWAP2 PUSH1 0x20 ADD SWAP2 PUSH2 0x138B JUMP JUMPDEST DUP3 ADD SWAP2 SWAP1 PUSH1 0x0 MSTORE PUSH1 0x20 PUSH1 0x0 KECCAK256 SWAP1 JUMPDEST DUP2 SLOAD DUP2 MSTORE SWAP1 PUSH1 0x1 ADD SWAP1 PUSH1 0x20 ADD DUP1 DUP4 GT PUSH2 0x136E JUMPI DUP3 SWAP1 SUB PUSH1 0x1F AND DUP3 ADD SWAP2 JUMPDEST POP POP POP POP POP SWAP1 POP PUSH1 0x0 PUSH2 0x13A9 PUSH1 0x40 DUP1 MLOAD PUSH1 0x20 DUP2 ADD SWAP1 SWAP2 MSTORE PUSH1 0x0 DUP2 MSTORE SWAP1 JUMP JUMPDEST SWAP1 POP DUP1 MLOAD PUSH1 0x0 SUB PUSH2 0x13BB JUMPI POP SWAP3 SWAP2 POP POP JUMP JUMPDEST DUP2 MLOAD ISZERO PUSH2 0x13ED JUMPI DUP1 DUP3 PUSH1 0x40 MLOAD PUSH1 0x20 ADD PUSH2 0x13D5 SWAP3 SWAP2 SWAP1 PUSH2 0x2392 JUMP JUMPDEST PUSH1 0x40 MLOAD PUSH1 0x20 DUP2 DUP4 SUB SUB DUP2 MSTORE SWAP1 PUSH1 0x40 MSTORE SWAP3 POP POP POP SWAP2 SWAP1 POP JUMP JUMPDEST PUSH2 0x13F6 DUP5 PUSH2 0x1AF9 JUMP JUMPDEST SWAP5 SWAP4 POP POP POP POP JUMP JUMPDEST PUSH1 0x1 PUSH1 0x1 PUSH1 0xA0 SHL SUB SWAP2 DUP3 AND PUSH1 0x0 SWAP1 DUP2 MSTORE PUSH1 0x5 PUSH1 0x20 SWAP1 DUP2 MSTORE PUSH1 0x40 DUP1 DUP4 KECCAK256 SWAP4 SWAP1 SWAP5 AND DUP3 MSTORE SWAP2 SWAP1 SWAP2 MSTORE KECCAK256 SLOAD PUSH1 0xFF AND SWAP1 JUMP JUMPDEST PUSH1 0x9 SLOAD PUSH1 0x1 PUSH1 0x1 PUSH1 0xA0 SHL SUB AND CALLER EQ PUSH2 0x1456 JUMPI PUSH1 0x40 MLOAD PUSH3 0x461BCD PUSH1 0xE5 SHL DUP2 MSTORE PUSH1 0x4 ADD PUSH2 0x210 SWAP1 PUSH2 0x2369 JUMP JUMPDEST PUSH1 0x2 PUSH1 0xC SLOAD PUSH1 0xFF AND PUSH1 0x6 DUP2 GT ISZERO PUSH2 0x146F JUMPI PUSH2 0x146F PUSH2 0x1FCD JUMP JUMPDEST EQ PUSH2 0x14AF JUMPI PUSH1 0x40 MLOAD PUSH3 0x461BCD PUSH1 0xE5 SHL DUP2 MSTORE PUSH1 0x20 PUSH1 0x4 DUP3 ADD MSTORE PUSH1 0x10 PUSH1 0x24 DUP3 ADD MSTORE PUSH16 0x129BD8881B9BDD081858D8D95C1D1959 PUSH1 0x82 SHL PUSH1 0x44 DUP3 ADD MSTORE PUSH1 0x64 ADD PUSH2 0x210 JUMP JUMPDEST PUSH1 0x12 DUP1 SLOAD PUSH1 0xFF PUSH1 0xA0 SHL NOT AND PUSH1 0x1 PUSH1 0xA0 SHL OR SWAP1 SSTORE PUSH1 0xE PUSH2 0x14CE DUP3 DUP3 PUSH2 0x2407 JUMP JUMPDEST POP CALLER PUSH1 0x1 PUSH1 0x1 PUSH1 0xA0 SHL SUB AND PUSH32 0xB03097DFEDDA1602FA76F142DFE98DF97517A61FC4217F55178B5235576CF7F DUP3 PUSH1 0x40 MLOAD PUSH2 0x974 SWAP2 SWAP1 PUSH2 0x1F3A JUMP JUMPDEST PUSH1 0xA SLOAD PUSH1 0x1 PUSH1 0x1 PUSH1 0xA0 SHL SUB AND CALLER EQ PUSH2 0x1555 JUMPI PUSH1 0x40 MLOAD PUSH3 0x461BCD PUSH1 0xE5 SHL DUP2 MSTORE PUSH1 0x20 PUSH1 0x4 DUP3 ADD MSTORE PUSH1 0x10 PUSH1 0x24 DUP3 ADD MSTORE PUSH16 0x27B7363C9020A4903B32B934B334B2B9 PUSH1 0x81 SHL PUSH1 0x44 DUP3 ADD MSTORE PUSH1 0x64 ADD PUSH2 0x210 JUMP JUMPDEST PUSH1 0x2 PUSH1 0xC SLOAD PUSH1 0xFF AND PUSH1 0x6 DUP2 GT ISZERO PUSH2 0x156E JUMPI PUSH2 0x156E PUSH2 0x1FCD JUMP JUMPDEST EQ PUSH2 0x15AA JUMPI PUSH1 0x40 MLOAD PUSH3 0x461BCD PUSH1 0xE5 SHL DUP2 MSTORE PUSH1 0x20 PUSH1 0x4 DUP3 ADD MSTORE PUSH1 0xC PUSH1 0x24 DUP3 ADD MSTORE PUSH12 0x139BDD081858D8D95C1D1959 PUSH1 0xA2 SHL PUSH1 0x44 DUP3 ADD MSTORE PUSH1 0x64 ADD PUSH2 0x210 JUMP JUMPDEST PUSH1 0xE PUSH2 0x15B6 DUP3 DUP3 PUSH2 0x2407 JUMP JUMPDEST POP PUSH2 0x15DA PUSH1 0x40 MLOAD DUP1 PUSH1 0x40 ADD PUSH1 0x40 MSTORE DUP1 PUSH1 0x2 DUP2 MSTORE PUSH1 0x20 ADD PUSH2 0x4149 PUSH1 0xF0 SHL DUP2 MSTORE POP PUSH2 0x1781 JUMP JUMPDEST POP JUMP JUMPDEST PUSH1 0x0 PUSH1 0x1 PUSH1 0x1 PUSH1 0xE0 SHL SUB NOT DUP3 AND PUSH4 0x80AC58CD PUSH1 0xE0 SHL EQ DUP1 PUSH2 0x160E JUMPI POP PUSH1 0x1 PUSH1 0x1 PUSH1 0xE0 SHL SUB NOT DUP3 AND PUSH4 0x5B5E139F PUSH1 0xE0 SHL EQ JUMPDEST DUP1 PUSH2 0x6C6 JUMPI POP PUSH4 0x1FFC9A7 PUSH1 0xE0 SHL PUSH1 0x1 PUSH1 0x1 PUSH1 0xE0 SHL SUB NOT DUP4 AND EQ PUSH2 0x6C6 JUMP JUMPDEST PUSH1 0x0 DUP1 PUSH2 0x1639 DUP4 PUSH2 0x1B6E JUMP JUMPDEST SWAP1 POP PUSH1 0x1 PUSH1 0x1 PUSH1 0xA0 SHL SUB DUP2 AND PUSH2 0x6C6 JUMPI PUSH1 0x40 MLOAD PUSH4 0x7E273289 PUSH1 0xE0 SHL DUP2 MSTORE PUSH1 0x4 DUP2 ADD DUP5 SWAP1 MSTORE PUSH1 0x24 ADD PUSH2 0x210 JUMP JUMPDEST PUSH1 0x0 SWAP1 DUP2 MSTORE PUSH1 0x4 PUSH1 0x20 MSTORE PUSH1 0x40 SWAP1 KECCAK256 SLOAD PUSH1 0x1 PUSH1 0x1 PUSH1 0xA0 SHL SUB AND SWAP1 JUMP JUMPDEST PUSH2 0xAC1 DUP4 DUP4 DUP4 PUSH1 0x1 PUSH2 0x1B89 JUMP JUMPDEST PUSH1 0x0 DUP1 PUSH2 0x1699 DUP5 PUSH2 0x1B6E JUMP JUMPDEST SWAP1 POP PUSH1 0x1 PUSH1 0x1 PUSH1 0xA0 SHL SUB DUP4 AND ISZERO PUSH2 0x16B5 JUMPI PUSH2 0x16B5 DUP2 DUP5 DUP7 PUSH2 0x1C86 JUMP JUMPDEST PUSH1 0x1 PUSH1 0x1 PUSH1 0xA0 SHL SUB DUP2 AND ISZERO PUSH2 0x16F3 JUMPI PUSH2 0x16D2 PUSH1 0x0 DUP6 PUSH1 0x0 DUP1 PUSH2 0x1B89 JUMP JUMPDEST PUSH1 0x1 PUSH1 0x1 PUSH1 0xA0 SHL SUB DUP2 AND PUSH1 0x0 SWAP1 DUP2 MSTORE PUSH1 0x3 PUSH1 0x20 MSTORE PUSH1 0x40 SWAP1 KECCAK256 DUP1 SLOAD PUSH1 0x0 NOT ADD SWAP1 SSTORE JUMPDEST PUSH1 0x1 PUSH1 0x1 PUSH1 0xA0 SHL SUB DUP6 AND ISZERO PUSH2 0x1722 JUMPI PUSH1 0x1 PUSH1 0x1 PUSH1 0xA0 SHL SUB DUP6 AND PUSH1 0x0 SWAP1 DUP2 MSTORE PUSH1 0x3 PUSH1 0x20 MSTORE PUSH1 0x40 SWAP1 KECCAK256 DUP1 SLOAD PUSH1 0x1 ADD SWAP1 SSTORE JUMPDEST PUSH1 0x0 DUP5 DUP2 MSTORE PUSH1 0x2 PUSH1 0x20 MSTORE PUSH1 0x40 DUP1 DUP3 KECCAK256 DUP1 SLOAD PUSH1 0x1 PUSH1 0x1 PUSH1 0xA0 SHL SUB NOT AND PUSH1 0x1 PUSH1 0x1 PUSH1 0xA0 SHL SUB DUP10 DUP2 AND SWAP2 DUP3 OR SWAP1 SWAP3 SSTORE SWAP2 MLOAD DUP8 SWAP4 SWAP2 DUP6 AND SWAP2 PUSH32 0xDDF252AD1BE2C89B69C2B068FC378DAA952BA7F163C4A11628F55A4DF523B3EF SWAP2 LOG4 SWAP5 SWAP4 POP POP POP POP JUMP JUMPDEST PUSH1 0x12 SLOAD PUSH1 0x1 PUSH1 0x1 PUSH1 0xA0 SHL SUB AND ISZERO PUSH2 0x17AA JUMPI PUSH1 0x40 MLOAD PUSH3 0x461BCD PUSH1 0xE5 SHL DUP2 MSTORE PUSH1 0x4 ADD PUSH2 0x210 SWAP1 PUSH2 0x233F JUMP JUMPDEST PUSH1 0xC DUP1 SLOAD PUSH1 0xFF NOT AND PUSH1 0x4 OR SWAP1 SSTORE TIMESTAMP PUSH1 0x11 SSTORE PUSH1 0xF PUSH2 0x17C7 DUP3 DUP3 PUSH2 0x2407 JUMP JUMPDEST POP PUSH1 0x9 SLOAD PUSH1 0x12 DUP1 SLOAD PUSH1 0x1 PUSH1 0x1 PUSH1 0xA0 SHL SUB NOT AND PUSH1 0x1 PUSH1 0x1 PUSH1 0xA0 SHL SUB SWAP1 SWAP3 AND SWAP2 DUP3 OR SWAP1 SSTORE PUSH1 0xB SLOAD PUSH1 0x40 MLOAD DUP2 ISZERO PUSH2 0x8FC MUL SWAP2 SWAP1 PUSH1 0x0 DUP2 DUP2 DUP2 DUP6 DUP9 DUP9 CALL SWAP4 POP POP POP POP ISZERO DUP1 ISZERO PUSH2 0x1816 JUMPI RETURNDATASIZE PUSH1 0x0 DUP1 RETURNDATACOPY RETURNDATASIZE PUSH1 0x0 REVERT JUMPDEST POP PUSH32 0x3849C58B4B39B379BDDC5973E71A10DED174F54140916D81986C7EEC092E5C42 TIMESTAMP DUP3 PUSH1 0xE PUSH1 0x40 MLOAD PUSH2 0x184B SWAP4 SWAP3 SWAP2 SWAP1 PUSH2 0x24C6 JUMP JUMPDEST PUSH1 0x40 MLOAD DUP1 SWAP2 SUB SWAP1 LOG1 PUSH1 0x9 SLOAD PUSH1 0xB SLOAD PUSH1 0x40 MLOAD SWAP1 DUP2 MSTORE PUSH1 0x1 PUSH1 0x1 PUSH1 0xA0 SHL SUB SWAP1 SWAP2 AND SWAP1 PUSH32 0x221C08A06B07A64803B3787861A3F276212FCCCB51C2E6234077A9B8CB13047A SWAP1 PUSH1 0x20 ADD PUSH2 0x974 JUMP JUMPDEST PUSH1 0x1 PUSH1 0x1 PUSH1 0xA0 SHL SUB DUP3 AND PUSH2 0x18BF JUMPI PUSH1 0x0 PUSH1 0x40 MLOAD PUSH4 0x32505749 PUSH1 0xE1 SHL DUP2 MSTORE PUSH1 0x4 ADD PUSH2 0x210 SWAP2 SWAP1 PUSH2 0x1F73 JUMP JUMPDEST PUSH1 0x0 PUSH2 0x18CD DUP4 DUP4 PUSH1 0x0 PUSH2 0x168D JUMP JUMPDEST SWAP1 POP PUSH1 0x1 PUSH1 0x1 PUSH1 0xA0 SHL SUB DUP2 AND ISZERO PUSH2 0xAC1 JUMPI PUSH1 0x0 PUSH1 0x40 MLOAD PUSH4 0x39E35637 PUSH1 0xE1 SHL DUP2 MSTORE PUSH1 0x4 ADD PUSH2 0x210 SWAP2 SWAP1 PUSH2 0x1F73 JUMP JUMPDEST PUSH1 0x0 DUP3 DUP2 MSTORE PUSH1 0x6 PUSH1 0x20 MSTORE PUSH1 0x40 SWAP1 KECCAK256 PUSH2 0x1912 DUP3 DUP3 PUSH2 0x2407 JUMP JUMPDEST POP PUSH1 0x40 MLOAD DUP3 DUP2 MSTORE PUSH32 0xF8E1A15ABA9398E019F0B49DF1A4FDE98EE17AE345CB5F6B5E2C27F5033E8CE7 SWAP1 PUSH1 0x20 ADD PUSH1 0x40 MLOAD DUP1 SWAP2 SUB SWAP1 LOG1 POP POP JUMP JUMPDEST PUSH1 0x1 PUSH1 0x1 PUSH1 0xA0 SHL SUB DUP3 AND PUSH2 0x1973 JUMPI DUP2 PUSH1 0x40 MLOAD PUSH4 0xB611743 PUSH1 0xE3 SHL DUP2 MSTORE PUSH1 0x4 ADD PUSH2 0x210 SWAP2 SWAP1 PUSH2 0x1F73 JUMP JUMPDEST PUSH1 0x1 PUSH1 0x1 PUSH1 0xA0 SHL SUB DUP4 DUP2 AND PUSH1 0x0 DUP2 DUP2 MSTORE PUSH1 0x5 PUSH1 0x20 SWAP1 DUP2 MSTORE PUSH1 0x40 DUP1 DUP4 KECCAK256 SWAP5 DUP8 AND DUP1 DUP5 MSTORE SWAP5 DUP3 MSTORE SWAP2 DUP3 SWAP1 KECCAK256 DUP1 SLOAD PUSH1 0xFF NOT AND DUP7 ISZERO ISZERO SWAP1 DUP2 OR SWAP1 SWAP2 SSTORE SWAP2 MLOAD SWAP2 DUP3 MSTORE PUSH32 0x17307EAB39AB6107E8899845AD3D59BD9653F200F220920489CA2B5937696C31 SWAP2 ADD PUSH1 0x40 MLOAD DUP1 SWAP2 SUB SWAP1 LOG3 POP POP POP JUMP JUMPDEST PUSH1 0x1 PUSH1 0x1 PUSH1 0xA0 SHL SUB DUP4 AND EXTCODESIZE ISZERO PUSH2 0x1AF2 JUMPI PUSH1 0x40 MLOAD PUSH4 0xA85BD01 PUSH1 0xE1 SHL DUP2 MSTORE PUSH1 0x1 PUSH1 0x1 PUSH1 0xA0 SHL SUB DUP5 AND SWAP1 PUSH4 0x150B7A02 SWAP1 PUSH2 0x1A22 SWAP1 DUP9 SWAP1 DUP9 SWAP1 DUP8 SWAP1 DUP8 SWAP1 PUSH1 0x4 ADD PUSH2 0x2568 JUMP JUMPDEST PUSH1 0x20 PUSH1 0x40 MLOAD DUP1 DUP4 SUB DUP2 PUSH1 0x0 DUP8 GAS CALL SWAP3 POP POP POP DUP1 ISZERO PUSH2 0x1A5D JUMPI POP PUSH1 0x40 DUP1 MLOAD PUSH1 0x1F RETURNDATASIZE SWAP1 DUP2 ADD PUSH1 0x1F NOT AND DUP3 ADD SWAP1 SWAP3 MSTORE PUSH2 0x1A5A SWAP2 DUP2 ADD SWAP1 PUSH2 0x25A5 JUMP JUMPDEST PUSH1 0x1 JUMPDEST PUSH2 0x1ABD JUMPI RETURNDATASIZE DUP1 DUP1 ISZERO PUSH2 0x1A8B JUMPI PUSH1 0x40 MLOAD SWAP2 POP PUSH1 0x1F NOT PUSH1 0x3F RETURNDATASIZE ADD AND DUP3 ADD PUSH1 0x40 MSTORE RETURNDATASIZE DUP3 MSTORE RETURNDATASIZE PUSH1 0x0 PUSH1 0x20 DUP5 ADD RETURNDATACOPY PUSH2 0x1A90 JUMP JUMPDEST PUSH1 0x60 SWAP2 POP JUMPDEST POP DUP1 MLOAD PUSH1 0x0 SUB PUSH2 0x1AB5 JUMPI DUP4 PUSH1 0x40 MLOAD PUSH4 0x32505749 PUSH1 0xE1 SHL DUP2 MSTORE PUSH1 0x4 ADD PUSH2 0x210 SWAP2 SWAP1 PUSH2 0x1F73 JUMP JUMPDEST DUP1 MLOAD DUP2 PUSH1 0x20 ADD REVERT JUMPDEST PUSH1 0x1 PUSH1 0x1 PUSH1 0xE0 SHL SUB NOT DUP2 AND PUSH4 0xA85BD01 PUSH1 0xE1 SHL EQ PUSH2 0x1AF0 JUMPI DUP4 PUSH1 0x40 MLOAD PUSH4 0x32505749 PUSH1 0xE1 SHL DUP2 MSTORE PUSH1 0x4 ADD PUSH2 0x210 SWAP2 SWAP1 PUSH2 0x1F73 JUMP JUMPDEST POP JUMPDEST POP POP POP POP POP JUMP JUMPDEST PUSH1 0x60 PUSH2 0x1B04 DUP3 PUSH2 0x162D JUMP JUMPDEST POP PUSH1 0x0 PUSH2 0x1B1C PUSH1 0x40 DUP1 MLOAD PUSH1 0x20 DUP2 ADD SWAP1 SWAP2 MSTORE PUSH1 0x0 DUP2 MSTORE SWAP1 JUMP JUMPDEST SWAP1 POP PUSH1 0x0 DUP2 MLOAD GT PUSH2 0x1B3C JUMPI PUSH1 0x40 MLOAD DUP1 PUSH1 0x20 ADD PUSH1 0x40 MSTORE DUP1 PUSH1 0x0 DUP2 MSTORE POP PUSH2 0x1B67 JUMP JUMPDEST DUP1 PUSH2 0x1B46 DUP5 PUSH2 0x1CEA JUMP JUMPDEST PUSH1 0x40 MLOAD PUSH1 0x20 ADD PUSH2 0x1B57 SWAP3 SWAP2 SWAP1 PUSH2 0x2392 JUMP JUMPDEST PUSH1 0x40 MLOAD PUSH1 0x20 DUP2 DUP4 SUB SUB DUP2 MSTORE SWAP1 PUSH1 0x40 MSTORE JUMPDEST SWAP4 SWAP3 POP POP POP JUMP JUMPDEST PUSH1 0x0 SWAP1 DUP2 MSTORE PUSH1 0x2 PUSH1 0x20 MSTORE PUSH1 0x40 SWAP1 KECCAK256 SLOAD PUSH1 0x1 PUSH1 0x1 PUSH1 0xA0 SHL SUB AND SWAP1 JUMP JUMPDEST DUP1 DUP1 PUSH2 0x1B9D JUMPI POP PUSH1 0x1 PUSH1 0x1 PUSH1 0xA0 SHL SUB DUP3 AND ISZERO ISZERO JUMPDEST ISZERO PUSH2 0x1C56 JUMPI PUSH1 0x0 PUSH2 0x1BAD DUP5 PUSH2 0x162D JUMP JUMPDEST SWAP1 POP PUSH1 0x1 PUSH1 0x1 PUSH1 0xA0 SHL SUB DUP4 AND ISZERO DUP1 ISZERO SWAP1 PUSH2 0x1BD9 JUMPI POP DUP3 PUSH1 0x1 PUSH1 0x1 PUSH1 0xA0 SHL SUB AND DUP2 PUSH1 0x1 PUSH1 0x1 PUSH1 0xA0 SHL SUB AND EQ ISZERO JUMPDEST DUP1 ISZERO PUSH2 0x1BEC JUMPI POP PUSH2 0x1BEA DUP2 DUP5 PUSH2 0x13FE JUMP JUMPDEST ISZERO JUMPDEST ISZERO PUSH2 0x1C0C JUMPI DUP3 PUSH1 0x40 MLOAD PUSH4 0xA9FBF51F PUSH1 0xE0 SHL DUP2 MSTORE PUSH1 0x4 ADD PUSH2 0x210 SWAP2 SWAP1 PUSH2 0x1F73 JUMP JUMPDEST DUP2 ISZERO PUSH2 0x1C54 JUMPI DUP4 DUP6 PUSH1 0x1 PUSH1 0x1 PUSH1 0xA0 SHL SUB AND DUP3 PUSH1 0x1 PUSH1 0x1 PUSH1 0xA0 SHL SUB AND PUSH32 0x8C5BE1E5EBEC7D5BD14F71427D1E84F3DD0314C0F7B2291E5B200AC8C7C3B925 PUSH1 0x40 MLOAD PUSH1 0x40 MLOAD DUP1 SWAP2 SUB SWAP1 LOG4 JUMPDEST POP JUMPDEST POP POP PUSH1 0x0 SWAP1 DUP2 MSTORE PUSH1 0x4 PUSH1 0x20 MSTORE PUSH1 0x40 SWAP1 KECCAK256 DUP1 SLOAD PUSH1 0x1 PUSH1 0x1 PUSH1 0xA0 SHL SUB NOT AND PUSH1 0x1 PUSH1 0x1 PUSH1 0xA0 SHL SUB SWAP3 SWAP1 SWAP3 AND SWAP2 SWAP1 SWAP2 OR SWAP1 SSTORE JUMP JUMPDEST PUSH2 0x1C91 DUP4 DUP4 DUP4 PUSH2 0x1D7C JUMP JUMPDEST PUSH2 0xAC1 JUMPI PUSH1 0x1 PUSH1 0x1 PUSH1 0xA0 SHL SUB DUP4 AND PUSH2 0x1CBF JUMPI PUSH1 0x40 MLOAD PUSH4 0x7E273289 PUSH1 0xE0 SHL DUP2 MSTORE PUSH1 0x4 DUP2 ADD DUP3 SWAP1 MSTORE PUSH1 0x24 ADD PUSH2 0x210 JUMP JUMPDEST PUSH1 0x40 MLOAD PUSH4 0x177E802F PUSH1 0xE0 SHL DUP2 MSTORE PUSH1 0x1 PUSH1 0x1 PUSH1 0xA0 SHL SUB DUP4 AND PUSH1 0x4 DUP3 ADD MSTORE PUSH1 0x24 DUP2 ADD DUP3 SWAP1 MSTORE PUSH1 0x44 ADD PUSH2 0x210 JUMP JUMPDEST PUSH1 0x60 PUSH1 0x0 PUSH2 0x1CF7 DUP4 PUSH2 0x1DE1 JUMP JUMPDEST PUSH1 0x1 ADD SWAP1 POP PUSH1 0x0 DUP2 PUSH1 0x1 PUSH1 0x1 PUSH1 0x40 SHL SUB DUP2 GT ISZERO PUSH2 0x1D16 JUMPI PUSH2 0x1D16 PUSH2 0x215F JUMP JUMPDEST PUSH1 0x40 MLOAD SWAP1 DUP1 DUP3 MSTORE DUP1 PUSH1 0x1F ADD PUSH1 0x1F NOT AND PUSH1 0x20 ADD DUP3 ADD PUSH1 0x40 MSTORE DUP1 ISZERO PUSH2 0x1D40 JUMPI PUSH1 0x20 DUP3 ADD DUP2 DUP1 CALLDATASIZE DUP4 CALLDATACOPY ADD SWAP1 POP JUMPDEST POP SWAP1 POP DUP2 DUP2 ADD PUSH1 0x20 ADD JUMPDEST PUSH1 0x0 NOT ADD PUSH16 0x181899199A1A9B1B9C1CB0B131B232B3 PUSH1 0x81 SHL PUSH1 0xA DUP7 MOD BYTE DUP2 MSTORE8 PUSH1 0xA DUP6 DIV SWAP5 POP DUP5 PUSH2 0x1D4A JUMPI POP SWAP4 SWAP3 POP POP POP JUMP JUMPDEST PUSH1 0x0 PUSH1 0x1 PUSH1 0x1 PUSH1 0xA0 SHL SUB DUP4 AND ISZERO DUP1 ISZERO SWAP1 PUSH2 0x13F6 JUMPI POP DUP3 PUSH1 0x1 PUSH1 0x1 PUSH1 0xA0 SHL SUB AND DUP5 PUSH1 0x1 PUSH1 0x1 PUSH1 0xA0 SHL SUB AND EQ DUP1 PUSH2 0x1DB6 JUMPI POP PUSH2 0x1DB6 DUP5 DUP5 PUSH2 0x13FE JUMP JUMPDEST DUP1 PUSH2 0x13F6 JUMPI POP DUP3 PUSH1 0x1 PUSH1 0x1 PUSH1 0xA0 SHL SUB AND PUSH2 0x1DCF DUP4 PUSH2 0x1665 JUMP JUMPDEST PUSH1 0x1 PUSH1 0x1 PUSH1 0xA0 SHL SUB AND EQ SWAP5 SWAP4 POP POP POP POP JUMP JUMPDEST PUSH1 0x0 DUP1 PUSH19 0x184F03E93FF9F4DAA797ED6E38ED64BF6A1F01 PUSH1 0x40 SHL DUP4 LT PUSH2 0x1E20 JUMPI PUSH19 0x184F03E93FF9F4DAA797ED6E38ED64BF6A1F01 PUSH1 0x40 SHL DUP4 DIV SWAP3 POP PUSH1 0x40 ADD JUMPDEST PUSH10 0x4EE2D6D415B85ACEF81 PUSH1 0x20 SHL DUP4 LT PUSH2 0x1E4A JUMPI PUSH10 0x4EE2D6D415B85ACEF81 PUSH1 0x20 SHL DUP4 DIV SWAP3 POP PUSH1 0x20 ADD JUMPDEST PUSH7 0x2386F26FC10000 DUP4 LT PUSH2 0x1E68 JUMPI PUSH7 0x2386F26FC10000 DUP4 DIV SWAP3 POP PUSH1 0x10 ADD JUMPDEST PUSH4 0x5F5E100 DUP4 LT PUSH2 0x1E80 JUMPI PUSH4 0x5F5E100 DUP4 DIV SWAP3 POP PUSH1 0x8 ADD JUMPDEST PUSH2 0x2710 DUP4 LT PUSH2 0x1E94 JUMPI PUSH2 0x2710 DUP4 DIV SWAP3 POP PUSH1 0x4 ADD JUMPDEST PUSH1 0x64 DUP4 LT PUSH2 0x1EA6 JUMPI PUSH1 0x64 DUP4 DIV SWAP3 POP PUSH1 0x2 ADD JUMPDEST PUSH1 0xA DUP4 LT PUSH2 0x6C6 JUMPI PUSH1 0x1 ADD SWAP3 SWAP2 POP POP JUMP JUMPDEST PUSH1 0x1 PUSH1 0x1 PUSH1 0xE0 SHL SUB NOT DUP2 AND DUP2 EQ PUSH2 0x15DA JUMPI PUSH1 0x0 DUP1 REVERT JUMPDEST PUSH1 0x0 PUSH1 0x20 DUP3 DUP5 SUB SLT ISZERO PUSH2 0x1EDF JUMPI PUSH1 0x0 DUP1 REVERT JUMPDEST DUP2 CALLDATALOAD PUSH2 0x1B67 DUP2 PUSH2 0x1EB7 JUMP JUMPDEST PUSH1 0x0 JUMPDEST DUP4 DUP2 LT ISZERO PUSH2 0x1F05 JUMPI DUP2 DUP2 ADD MLOAD DUP4 DUP3 ADD MSTORE PUSH1 0x20 ADD PUSH2 0x1EED JUMP JUMPDEST POP POP PUSH1 0x0 SWAP2 ADD MSTORE JUMP JUMPDEST PUSH1 0x0 DUP2 MLOAD DUP1 DUP5 MSTORE PUSH2 0x1F26 DUP2 PUSH1 0x20 DUP7 ADD PUSH1 0x20 DUP7 ADD PUSH2 0x1EEA JUMP JUMPDEST PUSH1 0x1F ADD PUSH1 0x1F NOT AND SWAP3 SWAP1 SWAP3 ADD PUSH1 0x20 ADD SWAP3 SWAP2 POP POP JUMP JUMPDEST PUSH1 0x20 DUP2 MSTORE PUSH1 0x0 PUSH2 0x1B67 PUSH1 0x20 DUP4 ADD DUP5 PUSH2 0x1F0E JUMP JUMPDEST PUSH1 0x0 PUSH1 0x20 DUP3 DUP5 SUB SLT ISZERO PUSH2 0x1F5F JUMPI PUSH1 0x0 DUP1 REVERT JUMPDEST POP CALLDATALOAD SWAP2 SWAP1 POP JUMP JUMPDEST PUSH1 0x1 PUSH1 0x1 PUSH1 0xA0 SHL SUB AND SWAP1 MSTORE JUMP JUMPDEST PUSH1 0x1 PUSH1 0x1 PUSH1 0xA0 SHL SUB SWAP2 SWAP1 SWAP2 AND DUP2 MSTORE PUSH1 0x20 ADD SWAP1 JUMP JUMPDEST DUP1 CALLDATALOAD PUSH1 0x1 PUSH1 0x1 PUSH1 0xA0 SHL SUB DUP2 AND DUP2 EQ PUSH2 0x1F9E JUMPI PUSH1 0x0 DUP1 REVERT JUMPDEST SWAP2 SWAP1 POP JUMP JUMPDEST PUSH1 0x0 DUP1 PUSH1 0x40 DUP4 DUP6 SUB SLT ISZERO PUSH2 0x1FB6 JUMPI PUSH1 0x0 DUP1 REVERT JUMPDEST PUSH2 0x1FBF DUP4 PUSH2 0x1F87 JUMP JUMPDEST SWAP5 PUSH1 0x20 SWAP4 SWAP1 SWAP4 ADD CALLDATALOAD SWAP4 POP POP POP JUMP JUMPDEST PUSH4 0x4E487B71 PUSH1 0xE0 SHL PUSH1 0x0 MSTORE PUSH1 0x21 PUSH1 0x4 MSTORE PUSH1 0x24 PUSH1 0x0 REVERT JUMPDEST PUSH1 0x7 DUP2 LT PUSH2 0x2001 JUMPI PUSH4 0x4E487B71 PUSH1 0xE0 SHL PUSH1 0x0 MSTORE PUSH1 0x21 PUSH1 0x4 MSTORE PUSH1 0x24 PUSH1 0x0 REVERT JUMPDEST SWAP1 MSTORE JUMP JUMPDEST PUSH1 0x20 DUP2 ADD PUSH2 0x6C6 DUP3 DUP5 PUSH2 0x1FE3 JUMP JUMPDEST PUSH1 0x0 DUP1 PUSH1 0x0 PUSH1 0x60 DUP5 DUP7 SUB SLT ISZERO PUSH2 0x2028 JUMPI PUSH1 0x0 DUP1 REVERT JUMPDEST PUSH2 0x2031 DUP5 PUSH2 0x1F87 JUMP JUMPDEST SWAP3 POP PUSH2 0x203F PUSH1 0x20 DUP6 ADD PUSH2 0x1F87 JUMP JUMPDEST SWAP2 POP PUSH1 0x40 DUP5 ADD CALLDATALOAD SWAP1 POP SWAP3 POP SWAP3 POP SWAP3 JUMP JUMPDEST PUSH1 0x0 PUSH1 0x20 DUP3 DUP5 SUB SLT ISZERO PUSH2 0x2061 JUMPI PUSH1 0x0 DUP1 REVERT JUMPDEST PUSH2 0x1B67 DUP3 PUSH2 0x1F87 JUMP JUMPDEST DUP14 DUP2 MSTORE PUSH1 0x1 PUSH1 0x1 PUSH1 0xA0 SHL SUB DUP14 AND PUSH1 0x20 DUP3 ADD MSTORE PUSH1 0x0 PUSH2 0x1A0 PUSH2 0x208E PUSH1 0x40 DUP5 ADD DUP16 PUSH2 0x1F66 JUMP JUMPDEST PUSH2 0x209B PUSH1 0x60 DUP5 ADD DUP15 PUSH2 0x1F66 JUMP JUMPDEST DUP12 PUSH1 0x80 DUP5 ADD MSTORE PUSH2 0x20AE PUSH1 0xA0 DUP5 ADD DUP13 PUSH2 0x1FE3 JUMP JUMPDEST DUP1 PUSH1 0xC0 DUP5 ADD MSTORE PUSH2 0x20C0 DUP2 DUP5 ADD DUP12 PUSH2 0x1F0E JUMP JUMPDEST SWAP1 POP DUP3 DUP2 SUB PUSH1 0xE0 DUP5 ADD MSTORE PUSH2 0x20D4 DUP2 DUP11 PUSH2 0x1F0E JUMP JUMPDEST SWAP1 POP DUP3 DUP2 SUB PUSH2 0x100 DUP5 ADD MSTORE PUSH2 0x20E9 DUP2 DUP10 PUSH2 0x1F0E JUMP JUMPDEST SWAP2 POP POP DUP6 PUSH2 0x120 DUP4 ADD MSTORE DUP5 PUSH2 0x140 DUP4 ADD MSTORE PUSH2 0x2108 PUSH2 0x160 DUP4 ADD DUP6 PUSH2 0x1F66 JUMP JUMPDEST DUP3 ISZERO ISZERO PUSH2 0x180 DUP4 ADD MSTORE SWAP15 SWAP14 POP POP POP POP POP POP POP POP POP POP POP POP POP POP JUMP JUMPDEST PUSH1 0x0 DUP1 PUSH1 0x40 DUP4 DUP6 SUB SLT ISZERO PUSH2 0x2136 JUMPI PUSH1 0x0 DUP1 REVERT JUMPDEST PUSH2 0x213F DUP4 PUSH2 0x1F87 JUMP JUMPDEST SWAP2 POP PUSH1 0x20 DUP4 ADD CALLDATALOAD DUP1 ISZERO ISZERO DUP2 EQ PUSH2 0x2154 JUMPI PUSH1 0x0 DUP1 REVERT JUMPDEST DUP1 SWAP2 POP POP SWAP3 POP SWAP3 SWAP1 POP JUMP JUMPDEST PUSH4 0x4E487B71 PUSH1 0xE0 SHL PUSH1 0x0 MSTORE PUSH1 0x41 PUSH1 0x4 MSTORE PUSH1 0x24 PUSH1 0x0 REVERT JUMPDEST PUSH1 0x0 PUSH1 0x1 PUSH1 0x1 PUSH1 0x40 SHL SUB DUP1 DUP5 GT ISZERO PUSH2 0x218F JUMPI PUSH2 0x218F PUSH2 0x215F JUMP JUMPDEST PUSH1 0x40 MLOAD PUSH1 0x1F DUP6 ADD PUSH1 0x1F NOT SWAP1 DUP2 AND PUSH1 0x3F ADD AND DUP2 ADD SWAP1 DUP3 DUP3 GT DUP2 DUP4 LT OR ISZERO PUSH2 0x21B7 JUMPI PUSH2 0x21B7 PUSH2 0x215F JUMP JUMPDEST DUP2 PUSH1 0x40 MSTORE DUP1 SWAP4 POP DUP6 DUP2 MSTORE DUP7 DUP7 DUP7 ADD GT ISZERO PUSH2 0x21D0 JUMPI PUSH1 0x0 DUP1 REVERT JUMPDEST DUP6 DUP6 PUSH1 0x20 DUP4 ADD CALLDATACOPY PUSH1 0x0 PUSH1 0x20 DUP8 DUP4 ADD ADD MSTORE POP POP POP SWAP4 SWAP3 POP POP POP JUMP JUMPDEST PUSH1 0x0 DUP1 PUSH1 0x0 DUP1 PUSH1 0x80 DUP6 DUP8 SUB SLT ISZERO PUSH2 0x2200 JUMPI PUSH1 0x0 DUP1 REVERT JUMPDEST PUSH2 0x2209 DUP6 PUSH2 0x1F87 JUMP JUMPDEST SWAP4 POP PUSH2 0x2217 PUSH1 0x20 DUP7 ADD PUSH2 0x1F87 JUMP JUMPDEST SWAP3 POP PUSH1 0x40 DUP6 ADD CALLDATALOAD SWAP2 POP PUSH1 0x60 DUP6 ADD CALLDATALOAD PUSH1 0x1 PUSH1 0x1 PUSH1 0x40 SHL SUB DUP2 GT ISZERO PUSH2 0x2239 JUMPI PUSH1 0x0 DUP1 REVERT JUMPDEST DUP6 ADD PUSH1 0x1F DUP2 ADD DUP8 SGT PUSH2 0x224A JUMPI PUSH1 0x0 DUP1 REVERT JUMPDEST PUSH2 0x2259 DUP8 DUP3 CALLDATALOAD PUSH1 0x20 DUP5 ADD PUSH2 0x2175 JUMP JUMPDEST SWAP2 POP POP SWAP3 SWAP6 SWAP2 SWAP5 POP SWAP3 POP JUMP JUMPDEST PUSH1 0x0 DUP1 PUSH1 0x40 DUP4 DUP6 SUB SLT ISZERO PUSH2 0x2278 JUMPI PUSH1 0x0 DUP1 REVERT JUMPDEST PUSH2 0x2281 DUP4 PUSH2 0x1F87 JUMP JUMPDEST SWAP2 POP PUSH2 0x228F PUSH1 0x20 DUP5 ADD PUSH2 0x1F87 JUMP JUMPDEST SWAP1 POP SWAP3 POP SWAP3 SWAP1 POP JUMP JUMPDEST PUSH1 0x0 PUSH1 0x20 DUP3 DUP5 SUB SLT ISZERO PUSH2 0x22AA JUMPI PUSH1 0x0 DUP1 REVERT JUMPDEST DUP2 CALLDATALOAD PUSH1 0x1 PUSH1 0x1 PUSH1 0x40 SHL SUB DUP2 GT ISZERO PUSH2 0x22C0 JUMPI PUSH1 0x0 DUP1 REVERT JUMPDEST DUP3 ADD PUSH1 0x1F DUP2 ADD DUP5 SGT PUSH2 0x22D1 JUMPI PUSH1 0x0 DUP1 REVERT JUMPDEST PUSH2 0x13F6 DUP5 DUP3 CALLDATALOAD PUSH1 0x20 DUP5 ADD PUSH2 0x2175 JUMP JUMPDEST PUSH1 0x1 DUP2 DUP2 SHR SWAP1 DUP3 AND DUP1 PUSH2 0x22F4 JUMPI PUSH1 0x7F DUP3 AND SWAP2 POP JUMPDEST PUSH1 0x20 DUP3 LT DUP2 SUB PUSH2 0x2314 JUMPI PUSH4 0x4E487B71 PUSH1 0xE0 SHL PUSH1 0x0 MSTORE PUSH1 0x22 PUSH1 0x4 MSTORE PUSH1 0x24 PUSH1 0x0 REVERT JUMPDEST POP SWAP2 SWAP1 POP JUMP JUMPDEST PUSH1 0x20 DUP1 DUP3 MSTORE PUSH1 0xB SWAP1 DUP3 ADD MSTORE PUSH11 0x13DB9B1E4818DB1A595B9D PUSH1 0xAA SHL PUSH1 0x40 DUP3 ADD MSTORE PUSH1 0x60 ADD SWAP1 JUMP JUMPDEST PUSH1 0x20 DUP1 DUP3 MSTORE PUSH1 0x10 SWAP1 DUP3 ADD MSTORE PUSH16 0x105B1C9958591E481C185A59081BDD5D PUSH1 0x82 SHL PUSH1 0x40 DUP3 ADD MSTORE PUSH1 0x60 ADD SWAP1 JUMP JUMPDEST PUSH1 0x20 DUP1 DUP3 MSTORE PUSH1 0xF SWAP1 DUP3 ADD MSTORE PUSH15 0x27B7363C90333932B2B630B731B2B9 PUSH1 0x89 SHL PUSH1 0x40 DUP3 ADD MSTORE PUSH1 0x60 ADD SWAP1 JUMP JUMPDEST PUSH1 0x0 DUP4 MLOAD PUSH2 0x23A4 DUP2 DUP5 PUSH1 0x20 DUP9 ADD PUSH2 0x1EEA JUMP JUMPDEST DUP4 MLOAD SWAP1 DUP4 ADD SWAP1 PUSH2 0x23B8 DUP2 DUP4 PUSH1 0x20 DUP9 ADD PUSH2 0x1EEA JUMP JUMPDEST ADD SWAP5 SWAP4 POP POP POP POP JUMP JUMPDEST PUSH1 0x1F DUP3 GT ISZERO PUSH2 0xAC1 JUMPI PUSH1 0x0 DUP2 DUP2 MSTORE PUSH1 0x20 DUP2 KECCAK256 PUSH1 0x1F DUP6 ADD PUSH1 0x5 SHR DUP2 ADD PUSH1 0x20 DUP7 LT ISZERO PUSH2 0x23E8 JUMPI POP DUP1 JUMPDEST PUSH1 0x1F DUP6 ADD PUSH1 0x5 SHR DUP3 ADD SWAP2 POP JUMPDEST DUP2 DUP2 LT ISZERO PUSH2 0x1AF0 JUMPI DUP3 DUP2 SSTORE PUSH1 0x1 ADD PUSH2 0x23F4 JUMP JUMPDEST DUP2 MLOAD PUSH1 0x1 PUSH1 0x1 PUSH1 0x40 SHL SUB DUP2 GT ISZERO PUSH2 0x2420 JUMPI PUSH2 0x2420 PUSH2 0x215F JUMP JUMPDEST PUSH2 0x2434 DUP2 PUSH2 0x242E DUP5 SLOAD PUSH2 0x22E0 JUMP JUMPDEST DUP5 PUSH2 0x23C1 JUMP JUMPDEST PUSH1 0x20 DUP1 PUSH1 0x1F DUP4 GT PUSH1 0x1 DUP2 EQ PUSH2 0x2469 JUMPI PUSH1 0x0 DUP5 ISZERO PUSH2 0x2451 JUMPI POP DUP6 DUP4 ADD MLOAD JUMPDEST PUSH1 0x0 NOT PUSH1 0x3 DUP7 SWAP1 SHL SHR NOT AND PUSH1 0x1 DUP6 SWAP1 SHL OR DUP6 SSTORE PUSH2 0x1AF0 JUMP JUMPDEST PUSH1 0x0 DUP6 DUP2 MSTORE PUSH1 0x20 DUP2 KECCAK256 PUSH1 0x1F NOT DUP7 AND SWAP2 JUMPDEST DUP3 DUP2 LT ISZERO PUSH2 0x2498 JUMPI DUP9 DUP7 ADD MLOAD DUP3 SSTORE SWAP5 DUP5 ADD SWAP5 PUSH1 0x1 SWAP1 SWAP2 ADD SWAP1 DUP5 ADD PUSH2 0x2479 JUMP JUMPDEST POP DUP6 DUP3 LT ISZERO PUSH2 0x24B6 JUMPI DUP8 DUP6 ADD MLOAD PUSH1 0x0 NOT PUSH1 0x3 DUP9 SWAP1 SHL PUSH1 0xF8 AND SHR NOT AND DUP2 SSTORE JUMPDEST POP POP POP POP POP PUSH1 0x1 SWAP1 DUP2 SHL ADD SWAP1 SSTORE POP JUMP JUMPDEST DUP4 DUP2 MSTORE PUSH1 0x0 PUSH1 0x20 PUSH1 0x60 DUP2 DUP5 ADD MSTORE PUSH2 0x24E0 PUSH1 0x60 DUP5 ADD DUP7 PUSH2 0x1F0E JUMP JUMPDEST DUP4 DUP2 SUB PUSH1 0x40 DUP6 ADD MSTORE PUSH1 0x0 DUP6 SLOAD PUSH2 0x24F5 DUP2 PUSH2 0x22E0 JUMP JUMPDEST DUP1 DUP5 MSTORE PUSH1 0x1 DUP3 DUP2 AND DUP1 ISZERO PUSH2 0x2510 JUMPI PUSH1 0x1 DUP2 EQ PUSH2 0x252A JUMPI PUSH2 0x2558 JUMP JUMPDEST PUSH1 0xFF NOT DUP5 AND DUP7 DUP9 ADD MSTORE DUP3 ISZERO ISZERO PUSH1 0x5 SHL DUP7 ADD DUP8 ADD SWAP5 POP PUSH2 0x2558 JUMP JUMPDEST DUP10 PUSH1 0x0 MSTORE DUP7 PUSH1 0x0 KECCAK256 PUSH1 0x0 JUMPDEST DUP5 DUP2 LT ISZERO PUSH2 0x2550 JUMPI DUP2 SLOAD DUP9 DUP3 ADD DUP11 ADD MSTORE SWAP1 DUP4 ADD SWAP1 DUP9 ADD PUSH2 0x2535 JUMP JUMPDEST DUP8 ADD DUP9 ADD SWAP6 POP POP JUMPDEST POP SWAP3 SWAP11 SWAP10 POP POP POP POP POP POP POP POP POP POP JUMP JUMPDEST PUSH1 0x1 PUSH1 0x1 PUSH1 0xA0 SHL SUB DUP6 DUP2 AND DUP3 MSTORE DUP5 AND PUSH1 0x20 DUP3 ADD MSTORE PUSH1 0x40 DUP2 ADD DUP4 SWAP1 MSTORE PUSH1 0x80 PUSH1 0x60 DUP3 ADD DUP2 SWAP1 MSTORE PUSH1 0x0 SWAP1 PUSH2 0x259B SWAP1 DUP4 ADD DUP5 PUSH2 0x1F0E JUMP JUMPDEST SWAP7 SWAP6 POP POP POP POP POP POP JUMP JUMPDEST PUSH1 0x0 PUSH1 0x20 DUP3 DUP5 SUB SLT ISZERO PUSH2 0x25B7 JUMPI PUSH1 0x0 DUP1 REVERT JUMPDEST DUP2 MLOAD PUSH2 0x1B67 DUP2 PUSH2 0x1EB7 JUMP INVALID LOG2 PUSH5 0x6970667358 0x22 SLT KECCAK256 SWAP16 0xD8 DUP6 0xA8 0xBC 0xC9 DUP11 BLOCKHASH PUSH31 0x79AB38BF9CF7D74042692CB0376476152B936D53516A4B64736F6C63430008 EQ STOP CALLER "},"methodIdentifiers":{"acceptJob()":"9b789b7e","aiVerifier()":"6e4e15b9","amount()":"aa8c217c","approve(address,uint256)":"095ea7b3","assignFreelancer(address)":"ad84d4bc","balanceOf(address)":"70a08231","cancelJob()":"b07c7475","client()":"109e94cf","clientTokenId()":"82c83990","clientVerificationRequested()":"3f7e999f","completedAt()":"38771242","createdAt()":"cf09e0d0","dropboxFinalSubmission()":"88c0d819","freelancer()":"a37dda2c","freelancerTokenId()":"ee30cfa0","fundEscrow()":"a5d737ac","fundsReleasedTo()":"1fc82c01","getApproved(uint256)":"081812fc","getContractBalance()":"6f9fb98a","getJobInfo()":"9ca2e6c1","isApprovedForAll(address,address)":"e985e9c5","jobId()":"c2939d97","metadataURI()":"03ee438c","name()":"06fdde03","ownerOf(uint256)":"6352211e","refundToClient()":"12ddbf0e","requestClientVerification(string)":"f2e29c2e","safeTransferFrom(address,address,uint256)":"42842e0e","safeTransferFrom(address,address,uint256,bytes)":"b88d4fde","setApprovalForAll(address,bool)":"a22cb465","status()":"200d2ed2","supportsInterface(bytes4)":"01ffc9a7","symbol()":"95d89b41","tokenURI(uint256)":"c87b56dd","transferFrom(address,address,uint256)":"23b872dd","verifiedBy()":"9571dca6","verifyByAI(string)":"f7dd865a","verifyByClient()":"393e950b"}}}}}