{
  "_format": "hh-sol-artifact-1",
  "contractName": "JobEscrowFactory",
  "sourceName": "contracts/JobEscrowFactory.sol",
  "abi": [
    {
      "inputs": [
        {
          "internalType": "address",
          "name": "_aiVerifier",
          "type": "address"
        },
        {
          "internalType": "address",
          "name": "_feeCollector",
          "type": "address"
        }
      ],
      "stateMutability": "nonpayable",
      "type": "constructor"
    },
    {
      "inputs": [
        {
          "internalType": "address",
          "name": "owner",
          "type": "address"
        }
      ],
      "name": "OwnableInvalidOwner",
      "type": "error"
    },
    {
      "inputs": [
        {
          "internalType": "address",
          "name": "account",
          "type": "address"
        }
      ],
      "name": "OwnableUnauthorizedAccount",
      "type": "error"
    },
    {
      "anonymous": false,
      "inputs": [
        {
          "indexed": false,
          "internalType": "address",
          "name": "newVerifier",
          "type": "address"
        }
      ],
      "name": "AiVerifierUpdated",
      "type": "event"
    },
    {
      "anonymous": false,
      "inputs": [
        {
          "indexed": true,
          "internalType": "uint256",
          "name": "jobId",
          "type": "uint256"
        },
        {
          "indexed": true,
          "internalType": "address",
          "name": "jobContract",
          "type": "address"
        },
        {
          "indexed": true,
          "internalType": "address",
          "name": "client",
          "type": "address"
        },
        {
          "indexed": false,
          "internalType": "string",
          "name": "metadataURI",
          "type": "string"
        }
      ],
      "name": "JobCreated",
      "type": "event"
    },
    {
      "anonymous": false,
      "inputs": [
        {
          "indexed": true,
          "internalType": "address",
          "name": "previousOwner",
          "type": "address"
        },
        {
          "indexed": true,
          "internalType": "address",
          "name": "newOwner",
          "type": "address"
        }
      ],
      "name": "OwnershipTransferred",
      "type": "event"
    },
    {
      "anonymous": false,
      "inputs": [
        {
          "indexed": false,
          "internalType": "address",
          "name": "newCollector",
          "type": "address"
        }
      ],
      "name": "PlatformFeeCollectorUpdated",
      "type": "event"
    },
    {
      "anonymous": false,
      "inputs": [
        {
          "indexed": false,
          "internalType": "uint256",
          "name": "newFee",
          "type": "uint256"
        }
      ],
      "name": "PlatformFeeUpdated",
      "type": "event"
    },
    {
      "inputs": [],
      "name": "aiVerifier",
      "outputs": [
        {
          "internalType": "address",
          "name": "",
          "type": "address"
        }
      ],
      "stateMutability": "view",
      "type": "function"
    },
    {
      "inputs": [
        {
          "internalType": "uint256",
          "name": "",
          "type": "uint256"
        }
      ],
      "name": "allJobs",
      "outputs": [
        {
          "internalType": "address",
          "name": "",
          "type": "address"
        }
      ],
      "stateMutability": "view",
      "type": "function"
    },
    {
      "inputs": [
        {
          "internalType": "uint256",
          "name": "jobId",
          "type": "uint256"
        },
        {
          "internalType": "address",
          "name": "freelancer",
          "type": "address"
        }
      ],
      "name": "assignFreelancer",
      "outputs": [],
      "stateMutability": "nonpayable",
      "type": "function"
    },
    {
      "inputs": [
        {
          "internalType": "address",
          "name": "",
          "type": "address"
        },
        {
          "internalType": "uint256",
          "name": "",
          "type": "uint256"
        }
      ],
      "name": "clientJobs",
      "outputs": [
        {
          "internalType": "uint256",
          "name": "",
          "type": "uint256"
        }
      ],
      "stateMutability": "view",
      "type": "function"
    },
    {
      "inputs": [],
      "name": "contractCreationFee",
      "outputs": [
        {
          "internalType": "uint256",
          "name": "",
          "type": "uint256"
        }
      ],
      "stateMutability": "view",
      "type": "function"
    },
    {
      "inputs": [],
      "name": "contractFeeCollector",
      "outputs": [
        {
          "internalType": "address",
          "name": "",
          "type": "address"
        }
      ],
      "stateMutability": "view",
      "type": "function"
    },
    {
      "inputs": [
        {
          "internalType": "string",
          "name": "_metadataURI",
          "type": "string"
        }
      ],
      "name": "createJobEscrow",
      "outputs": [
        {
          "internalType": "uint256",
          "name": "jobId",
          "type": "uint256"
        },
        {
          "internalType": "address",
          "name": "jobContract",
          "type": "address"
        }
      ],
      "stateMutability": "payable",
      "type": "function"
    },
    {
      "inputs": [
        {
          "internalType": "address",
          "name": "",
          "type": "address"
        },
        {
          "internalType": "uint256",
          "name": "",
          "type": "uint256"
        }
      ],
      "name": "freelancerJobs",
      "outputs": [
        {
          "internalType": "uint256",
          "name": "",
          "type": "uint256"
        }
      ],
      "stateMutability": "view",
      "type": "function"
    },
    {
      "inputs": [],
      "name": "getAllJobs",
      "outputs": [
        {
          "internalType": "address[]",
          "name": "",
          "type": "address[]"
        }
      ],
      "stateMutability": "view",
      "type": "function"
    },
    {
      "inputs": [
        {
          "internalType": "address",
          "name": "_client",
          "type": "address"
        }
      ],
      "name": "getClientJobs",
      "outputs": [
        {
          "internalType": "uint256[]",
          "name": "",
          "type": "uint256[]"
        }
      ],
      "stateMutability": "view",
      "type": "function"
    },
    {
      "inputs": [],
      "name": "getContractCreationFee",
      "outputs": [
        {
          "internalType": "uint256",
          "name": "",
          "type": "uint256"
        }
      ],
      "stateMutability": "view",
      "type": "function"
    },
    {
      "inputs": [
        {
          "internalType": "address",
          "name": "_freelancer",
          "type": "address"
        }
      ],
      "name": "getFreelancerJobs",
      "outputs": [
        {
          "internalType": "uint256[]",
          "name": "",
          "type": "uint256[]"
        }
      ],
      "stateMutability": "view",
      "type": "function"
    },
    {
      "inputs": [
        {
          "internalType": "uint256",
          "name": "",
          "type": "uint256"
        }
      ],
      "name": "jobContracts",
      "outputs": [
        {
          "internalType": "address",
          "name": "",
          "type": "address"
        }
      ],
      "stateMutability": "view",
      "type": "function"
    },
    {
      "inputs": [],
      "name": "jobCounter",
      "outputs": [
        {
          "internalType": "uint256",
          "name": "",
          "type": "uint256"
        }
      ],
      "stateMutability": "view",
      "type": "function"
    },
    {
      "inputs": [],
      "name": "owner",
      "outputs": [
        {
          "internalType": "address",
          "name": "",
          "type": "address"
        }
      ],
      "stateMutability": "view",
      "type": "function"
    },
    {
      "inputs": [],
      "name": "renounceOwnership",
      "outputs": [],
      "stateMutability": "nonpayable",
      "type": "function"
    },
    {
      "inputs": [
        {
          "internalType": "address",
          "name": "newOwner",
          "type": "address"
        }
      ],
      "name": "transferOwnership",
      "outputs": [],
      "stateMutability": "nonpayable",
      "type": "function"
    },
    {
      "inputs": [
        {
          "internalType": "address",
          "name": "_newAiVerifier",
          "type": "address"
        }
      ],
      "name": "updateAiVerifier",
      "outputs": [],
      "stateMutability": "nonpayable",
      "type": "function"
    },
    {
      "inputs": [
        {
          "internalType": "uint256",
          "name": "_newFee",
          "type": "uint256"
        }
      ],
      "name": "updateContractCreationFee",
      "outputs": [],
      "stateMutability": "nonpayable",
      "type": "function"
    },
    {
      "inputs": [
        {
          "internalType": "address",
          "name": "_newCollector",
          "type": "address"
        }
      ],
      "name": "updateContractFeeCollector",
      "outputs": [],
      "stateMutability": "nonpayable",
      "type": "function"
    }
  ],
  "bytecode": "0x608060405266038d7ea4c6800060025534801561001b57600080fd5b50604051620039f4380380620039f483398101604081905261003c91610160565b338061006357604051631e4fbdf760e01b8152600060048201526024015b60405180910390fd5b61006c816100f4565b506001600160a01b0381166100c35760405162461bcd60e51b815260206004820152601560248201527f496e76616c69642066656520636f6c6c6563746f720000000000000000000000604482015260640161005a565b600580546001600160a01b039384166001600160a01b03199182161790915560048054929093169116179055610193565b600080546001600160a01b038381166001600160a01b0319831681178455604051919092169283917f8be0079c531659141344cd1fd0a4f28419497f9722a3daafe3b4186f6b6457e09190a35050565b80516001600160a01b038116811461015b57600080fd5b919050565b6000806040838503121561017357600080fd5b61017c83610144565b915061018a60208401610144565b90509250929050565b61385180620001a36000396000f3fe608060405260043610620001045760003560e01c80630b2220d114620001095780633f8896c5146200013457806340f70be4146200017d578063442f5c8814620001b157806350355d7614620001d657806365fab3e214620001ee578063686edd2014620002155780636d0896e3146200023a5780636e4e15b9146200026f578063715018a614620002915780638da5cb5b14620002a95780638facd85914620002c157806390c3e97914620002e6578063965a79fb146200030b578063c949756c1462000332578063cf2646c21462000357578063f2fde38b146200037c578063f5358af614620003a1578063f673c57214620003c3578063fb822b3114620003da575b600080fd5b3480156200011657600080fd5b506200012160025481565b6040519081526020015b60405180910390f35b3480156200014157600080fd5b506200016e6200015336600462000b66565b6006602052600090815260409020546001600160a01b031681565b6040516200012b919062000b80565b3480156200018a57600080fd5b50620001a26200019c36600462000baa565b620003ff565b6040516200012b919062000bd1565b348015620001be57600080fd5b5062000121620001d036600462000c17565b6200046d565b348015620001e357600080fd5b506200012160015481565b348015620001fb57600080fd5b50620002136200020d36600462000b66565b6200049f565b005b3480156200022257600080fd5b50620002136200023436600462000baa565b620004e5565b620002516200024b36600462000c5c565b6200053c565b604080519283526001600160a01b039091166020830152016200012b565b3480156200027c57600080fd5b506005546200016e906001600160a01b031681565b3480156200029e57600080fd5b50620002136200077d565b348015620002b657600080fd5b506200016e62000795565b348015620002ce57600080fd5b5062000121620002e036600462000c17565b620007a4565b348015620002f357600080fd5b506200016e6200030536600462000b66565b620007c1565b3480156200031857600080fd5b5062000323620007ec565b6040516200012b919062000d17565b3480156200033f57600080fd5b50620002136200035136600462000d5a565b62000850565b3480156200036457600080fd5b50620001a26200037636600462000baa565b620009c9565b3480156200038957600080fd5b50620002136200039b36600462000baa565b62000a35565b348015620003ae57600080fd5b506004546200016e906001600160a01b031681565b348015620003d057600080fd5b5060025462000121565b348015620003e757600080fd5b5062000213620003f936600462000baa565b62000a7a565b6001600160a01b0381166000908152600860209081526040918290208054835181840281018401909452808452606093928301828280156200046157602002820191906000526020600020905b8154815260200190600101908083116200044c575b50505050509050919050565b600860205281600052604060002081815481106200048a57600080fd5b90600052602060002001600091509150505481565b620004a962000ad1565b60028190556040518181527f45610d581145924dd7090a5017e5f2b1d6f42213bb2e95707ff86846bbfcb1ca906020015b60405180910390a150565b620004ef62000ad1565b600480546001600160a01b0319166001600160a01b0383161790556040517f3b2d4d50caa431082e62262a911eef6a5f784d24d4661f67e9860360f374216e90620004da90839062000b80565b6000806002543414620005945760405162461bcd60e51b815260206004820152601b60248201527a4d75737420706179206578616374206372656174696f6e2066656560281b60448201526064015b60405180910390fd5b60018054906000620005a68362000d8d565b91905055915060008233600560009054906101000a90046001600160a01b0316600087604051620005d79062000b58565b620005e795949392919062000dfd565b604051809103906000f08015801562000604573d6000803e3d6000fd5b50600084815260066020908152604080832080546001600160a01b0386166001600160a01b0319918216811790925533808652600785528386208054600181810183559188529587209095018a90556003805495860181559095527fc2575a0e9e593c00f959f8c92f12db2869c3395a3b0502d05e2516446f71f85b9093018054909316811790925551929450849350909185907f80db542af6c20f3e65ef1491b0e21348d7e0886188a155c44e2fb98be44c232b90620006c790899062000e43565b60405180910390a46004546040516000916001600160a01b03169034908381818185875af1925050503d80600081146200071e576040519150601f19603f3d011682016040523d82523d6000602084013e62000723565b606091505b5050905080620007765760405162461bcd60e51b815260206004820152601f60248201527f4661696c656420746f207472616e73666572206372656174696f6e206665650060448201526064016200058b565b5050915091565b6200078762000ad1565b62000793600062000b08565b565b6000546001600160a01b031690565b600760205281600052604060002081815481106200048a57600080fd5b60038181548110620007d257600080fd5b6000918252602090912001546001600160a01b0316905081565b606060038054806020026020016040519081016040528092919081815260200182805480156200084657602002820191906000526020600020905b81546001600160a01b0316815260019091019060200180831162000827575b5050505050905090565b60008281526006602090815260409182902054825163109e94cf60e01b815292516001600160a01b0390911692839263109e94cf926004808401938290030181865afa158015620008a5573d6000803e3d6000fd5b505050506040513d601f19601f82011682018060405250810190620008cb919062000e58565b6001600160a01b0316336001600160a01b031614620009375760405162461bcd60e51b815260206004820152602160248201527f4f6e6c7920636c69656e742063616e2061737369676e20667265656c616e63656044820152603960f91b60648201526084016200058b565b604051632b61352f60e21b81526001600160a01b0382169063ad84d4bc906200096590859060040162000b80565b600060405180830381600087803b1580156200098057600080fd5b505af115801562000995573d6000803e3d6000fd5b5050506001600160a01b03909216600090815260086020908152604082208054600181018255908352912001929092555050565b6001600160a01b0381166000908152600760209081526040918290208054835181840281018401909452808452606093928301828280156200046157602002820191906000526020600020908154815260200190600101908083116200044c5750505050509050919050565b62000a3f62000ad1565b6001600160a01b03811662000a6c576000604051631e4fbdf760e01b81526004016200058b919062000b80565b62000a778162000b08565b50565b62000a8462000ad1565b600580546001600160a01b0319166001600160a01b0383161790556040517f4fdaa4aad1f33e80581579cee351d8e175b1d1bea397784d3c3af6a906475aab90620004da90839062000b80565b3362000adc62000795565b6001600160a01b03161462000793573360405163118cdaa760e01b81526004016200058b919062000b80565b600080546001600160a01b038381166001600160a01b0319831681178455604051919092169283917f8be0079c531659141344cd1fd0a4f28419497f9722a3daafe3b4186f6b6457e09190a35050565b6129a38062000e7983390190565b60006020828403121562000b7957600080fd5b5035919050565b6001600160a01b0391909116815260200190565b6001600160a01b038116811462000a7757600080fd5b60006020828403121562000bbd57600080fd5b813562000bca8162000b94565b9392505050565b6020808252825182820181905260009190848201906040850190845b8181101562000c0b5783518352928401929184019160010162000bed565b50909695505050505050565b6000806040838503121562000c2b57600080fd5b823562000c388162000b94565b946020939093013593505050565b634e487b7160e01b600052604160045260246000fd5b60006020828403121562000c6f57600080fd5b813567ffffffffffffffff8082111562000c8857600080fd5b818401915084601f83011262000c9d57600080fd5b81358181111562000cb25762000cb262000c46565b604051601f8201601f19908116603f0116810190838211818310171562000cdd5762000cdd62000c46565b8160405282815287602084870101111562000cf757600080fd5b826020860160208301376000928101602001929092525095945050505050565b6020808252825182820181905260009190848201906040850190845b8181101562000c0b5783516001600160a01b03168352928401929184019160010162000d33565b6000806040838503121562000d6e57600080fd5b82359150602083013562000d828162000b94565b809150509250929050565b60006001820162000dae57634e487b7160e01b600052601160045260246000fd5b5060010190565b6000815180845260005b8181101562000ddd5760208185018101518683018201520162000dbf565b506000602082860101526020601f19601f83011685010191505092915050565b8581526001600160a01b038581166020830152841660408201526060810183905260a06080820181905260009062000e389083018462000db5565b979650505050505050565b60208152600062000bca602083018462000db5565b60006020828403121562000e6b57600080fd5b815162000bca8162000b9456fe60806040523480156200001157600080fd5b50604051620029a3380380620029a3833981016040819052620000349162000132565b6040518060400160405280601081526020016f536563757265576f726b457363726f7760801b8152506040518060400160405280600381526020016253574560e81b81525081600090816200008a9190620002cf565b506001620000998282620002cf565b5050506007859055600880546001600160a01b038087166001600160a01b031992831617909255600a805492861692909116919091179055600b829055600d620000e48282620002cf565b5050426010555050600c805460ff19169055506200039b9050565b80516001600160a01b03811681146200011757600080fd5b919050565b634e487b7160e01b600052604160045260246000fd5b600080600080600060a086880312156200014b57600080fd5b8551945060206200015e818801620000ff565b94506200016e60408801620000ff565b6060880151608089015191955093506001600160401b03808211156200019357600080fd5b818901915089601f830112620001a857600080fd5b815181811115620001bd57620001bd6200011c565b604051601f8201601f19908116603f01168101908382118183101715620001e857620001e86200011c565b816040528281528c868487010111156200020157600080fd5b600093505b8284101562000225578484018601518185018701529285019262000206565b60008684830101528096505050505050509295509295909350565b600181811c908216806200025557607f821691505b6020821081036200027657634e487b7160e01b600052602260045260246000fd5b50919050565b601f821115620002ca57600081815260208120601f850160051c81016020861015620002a55750805b601f850160051c820191505b81811015620002c657828155600101620002b1565b5050505b505050565b81516001600160401b03811115620002eb57620002eb6200011c565b6200030381620002fc845462000240565b846200027c565b602080601f8311600181146200033b5760008415620003225750858301515b600019600386901b1c1916600185901b178555620002c6565b600085815260208120601f198616915b828110156200036c578886015182559484019460019091019084016200034b565b50858210156200038b5787850151600019600388901b60f8161c191681555b5050505050600190811b01905550565b6125f880620003ab6000396000f3fe6080604052600436106101c95760003560e01c806388c0d819116100f357806388c0d819146104aa5780639571dca6146104bf57806395d89b41146104d45780639b789b7e146104e95780639ca2e6c1146104fe578063a22cb4651461052c578063a37dda2c1461054c578063a5d737ac1461056c578063aa8c217c14610574578063ad84d4bc1461058a578063b07c7475146105aa578063b88d4fde146105bf578063c2939d97146105df578063c87b56dd146105f5578063cf09e0d014610615578063e985e9c51461062b578063ee30cfa01461064b578063f2e29c2e14610661578063f7dd865a1461068157610219565b806301ffc9a71461025057806303ee438c1461028557806306fdde03146102a7578063081812fc146102bc578063095ea7b3146102e9578063109e94cf1461030b57806312ddbf0e1461032b5780631fc82c0114610340578063200d2ed21461036057806323b872dd1461038757806338771242146103a7578063393e950b146103cb5780633f7e999f146103e057806342842e0e146104015780636352211e146104215780636e4e15b9146104415780636f9fb98a1461046157806370a082311461047457806382c839901461049457610219565b366102195760405162461bcd60e51b815260206004820152601b60248201527a111a5c9958dd081c185e5b595b9d1cc81b9bdd08185b1b1bddd959602a1b60448201526064015b60405180910390fd5b60405162461bcd60e51b815260206004820152600c60248201526b125b9d985b1a590818d85b1b60a21b6044820152606401610210565b34801561025c57600080fd5b5061027061026b366004611ecd565b6106a1565b60405190151581526020015b60405180910390f35b34801561029157600080fd5b5061029a6106cc565b60405161027c9190611f3a565b3480156102b357600080fd5b5061029a61075a565b3480156102c857600080fd5b506102dc6102d7366004611f4d565b6107ec565b60405161027c9190611f73565b3480156102f557600080fd5b50610309610304366004611fa3565b610801565b005b34801561031757600080fd5b506008546102dc906001600160a01b031681565b34801561033757600080fd5b50610309610810565b34801561034c57600080fd5b506012546102dc906001600160a01b031681565b34801561036c57600080fd5b50600c5461037a9060ff1681565b60405161027c9190612005565b34801561039357600080fd5b506103096103a2366004612013565b61097f565b3480156103b357600080fd5b506103bd60115481565b60405190815260200161027c565b3480156103d757600080fd5b50610309610a0a565b3480156103ec57600080fd5b5060125461027090600160a01b900460ff1681565b34801561040d57600080fd5b5061030961041c366004612013565b610aa6565b34801561042d57600080fd5b506102dc61043c366004611f4d565b610ac6565b34801561044d57600080fd5b50600a546102dc906001600160a01b031681565b34801561046d57600080fd5b50476103bd565b34801561048057600080fd5b506103bd61048f36600461204f565b610ad1565b3480156104a057600080fd5b506103bd60135481565b3480156104b657600080fd5b5061029a610b19565b3480156104cb57600080fd5b5061029a610b26565b3480156104e057600080fd5b5061029a610b33565b3480156104f557600080fd5b50610309610b42565b34801561050a57600080fd5b50610513610d04565b60405161027c9d9c9b9a9998979695949392919061206a565b34801561053857600080fd5b50610309610547366004612123565b610f43565b34801561055857600080fd5b506009546102dc906001600160a01b031681565b610309610f4e565b34801561058057600080fd5b506103bd600b5481565b34801561059657600080fd5b506103096105a536600461204f565b61108c565b3480156105b657600080fd5b5061030961119f565b3480156105cb57600080fd5b506103096105da3660046121ea565b6112d5565b3480156105eb57600080fd5b506103bd60075481565b34801561060157600080fd5b5061029a610610366004611f4d565b6112ed565b34801561062157600080fd5b506103bd60105481565b34801561063757600080fd5b50610270610646366004612265565b6113fe565b34801561065757600080fd5b506103bd60145481565b34801561066d57600080fd5b5061030961067c366004612298565b61142c565b34801561068d57600080fd5b5061030961069c366004612298565b611508565b60006001600160e01b03198216632483248360e11b14806106c657506106c6826115dd565b92915050565b600d80546106d9906122e0565b80601f0160208091040260200160405190810160405280929190818152602001828054610705906122e0565b80156107525780601f1061072757610100808354040283529160200191610752565b820191906000526020600020905b81548152906001019060200180831161073557829003601f168201915b505050505081565b606060008054610769906122e0565b80601f0160208091040260200160405190810160405280929190818152602001828054610795906122e0565b80156107e25780601f106107b7576101008083540402835291602001916107e2565b820191906000526020600020905b8154815290600101906020018083116107c557829003601f168201915b5050505050905090565b60006107f78261162d565b506106c682611665565b61080c828233611680565b5050565b6008546001600160a01b0316331461083a5760405162461bcd60e51b81526004016102109061231a565b6001600c5460ff16600681111561085357610853611fcd565b148061087557506002600c5460ff16600681111561087357610873611fcd565b145b6108b25760405162461bcd60e51b815260206004820152600e60248201526d4e6f7420726566756e6461626c6560901b6044820152606401610210565b6012546001600160a01b0316156108db5760405162461bcd60e51b81526004016102109061233f565b600c805460ff19166006179055600854601280546001600160a01b039092166001600160a01b0319909216821790556040514791906108fc8315029083906000818181858888f19350505050158015610938573d6000803e3d6000fd5b506008546040518281526001600160a01b03909116907f73d5ba87e3f97f1bd195d8e3930ee6caaeb35b20c78aa7c9b7a52727867d46dc906020015b60405180910390a250565b6001600160a01b0382166109a9576000604051633250574960e11b81526004016102109190611f73565b60006109b683833361168d565b9050836001600160a01b0316816001600160a01b031614610a04576040516364283d7b60e01b81526001600160a01b0380861660048301526024820184905282166044820152606401610210565b50505050565b6008546001600160a01b03163314610a345760405162461bcd60e51b81526004016102109061231a565b601254600160a01b900460ff16610a7d5760405162461bcd60e51b815260206004820152600d60248201526c139bdd081c995c5d595cdd1959609a1b6044820152606401610210565b610aa46040518060400160405280600681526020016510db1a595b9d60d21b815250611781565b565b610ac1838383604051806020016040528060008152506112d5565b505050565b60006106c68261162d565b60006001600160a01b038216610afd5760006040516322718ad960e21b81526004016102109190611f73565b506001600160a01b031660009081526003602052604090205490565b600e80546106d9906122e0565b600f80546106d9906122e0565b606060018054610769906122e0565b6009546001600160a01b03163314610b6c5760405162461bcd60e51b815260040161021090612369565b6001600c5460ff166006811115610b8557610b85611fcd565b14610bc35760405162461bcd60e51b815260206004820152600e60248201526d135d5cdd08189948199d5b99195960921b6044820152606401610210565b601454600114610c0a5760405162461bcd60e51b815260206004820152601260248201527113919508185b1c9958591e481b5a5b9d195960721b6044820152606401610210565b600c805460ff1916600217905560016014819055600954610c36916001600160a01b0390911690611895565b610ccc601454600d8054610c49906122e0565b80601f0160208091040260200160405190810160405280929190818152602001828054610c75906122e0565b8015610cc25780601f10610c9757610100808354040283529160200191610cc2565b820191906000526020600020905b815481529060010190602001808311610ca557829003601f168201915b50505050506118fa565b60405142815233907f6c777e30d9c6cf565ff0d7e5d27d65d66ccecc1143dbe98dc30689556fd34e79906020015b60405180910390a2565b600754600854600954600a54600b54600c54601054601154601254600d805460009a8b9a8b9a8b9a8b9a8b9a60609a8b9a8b9a8e9a8b9a8b9a8b9a90996001600160a01b03918216999082169890821697909660ff918216969495600e95600f959294909390821692600160a01b90920416908790610d82906122e0565b80601f0160208091040260200160405190810160405280929190818152602001828054610dae906122e0565b8015610dfb5780601f10610dd057610100808354040283529160200191610dfb565b820191906000526020600020905b815481529060010190602001808311610dde57829003601f168201915b50505050509650858054610e0e906122e0565b80601f0160208091040260200160405190810160405280929190818152602001828054610e3a906122e0565b8015610e875780601f10610e5c57610100808354040283529160200191610e87565b820191906000526020600020905b815481529060010190602001808311610e6a57829003601f168201915b50505050509550848054610e9a906122e0565b80601f0160208091040260200160405190810160405280929190818152602001828054610ec6906122e0565b8015610f135780601f10610ee857610100808354040283529160200191610f13565b820191906000526020600020905b815481529060010190602001808311610ef657829003601f168201915b505050505094509c509c509c509c509c509c509c509c509c509c509c509c509c50909192939495969798999a9b9c565b61080c33838361194a565b6008546001600160a01b03163314610f785760405162461bcd60e51b81526004016102109061231a565b6000600c5460ff166006811115610f9157610f91611fcd565b14610fcf5760405162461bcd60e51b815260206004820152600e60248201526d105b1c9958591e48199d5b99195960921b6044820152606401610210565b600b54341461101b5760405162461bcd60e51b8152602060048201526018602482015277135d5cdd081b585d18da081859dc99595908185b5bdd5b9d60421b6044820152606401610210565b600c805460ff1916600117905560006013819055600854611047916001600160a01b0390911690611895565b61105a601354600d8054610c49906122e0565b60405134815233907f543137dade665d4d6ce455fcd386a7703dad323aedf71d16ad6116042bcd23d590602001610cfa565b6008546001600160a01b031633146110b65760405162461bcd60e51b81526004016102109061231a565b6009546001600160a01b03161561110d5760405162461bcd60e51b815260206004820152601b60248201527a119c99595b185b98d95c88185b1c9958591e48185cdcda59db9959602a1b6044820152606401610210565b6001600160a01b0381166111555760405162461bcd60e51b815260206004820152600f60248201526e496e76616c6964206164647265737360881b6044820152606401610210565b600980546001600160a01b0319166001600160a01b0383169081179091556040517f6b493de20a114cabad54f840ad7bf515cdbf07ae1024cbd8960f15c5101d18e390600090a250565b6008546001600160a01b031633146111c95760405162461bcd60e51b81526004016102109061231a565b6000600c5460ff1660068111156111e2576111e2611fcd565b148061120557506002600c5460ff16600681111561120257611202611fcd565b14155b6112965760405162461bcd60e51b815260206004820152605660248201527f43616e6e6f742063616e63656c20656974686572206e6f74206372656174656460448201527f206f7220616c72656164792061636365707465642c20706c65617365206e656760648201527537ba34b0ba32903bb4ba3410333932b2b630b731b2b960511b608482015260a401610210565b600c805460ff1916600517905560405142815233907f802f1675de6bcae4f345ab030a16843f3d5c2556a4e27e5bfaaa38ee2c6a0bb690602001610cfa565b6112e084848461097f565b610a0433858585856119e0565b60606112f88261162d565b5060008281526006602052604081208054611312906122e0565b80601f016020809104026020016040519081016040528092919081815260200182805461133e906122e0565b801561138b5780601f106113605761010080835404028352916020019161138b565b820191906000526020600020905b81548152906001019060200180831161136e57829003601f168201915b5050505050905060006113a960408051602081019091526000815290565b905080516000036113bb575092915050565b8151156113ed5780826040516020016113d5929190612392565b60405160208183030381529060405292505050919050565b6113f684611af9565b949350505050565b6001600160a01b03918216600090815260056020908152604080832093909416825291909152205460ff1690565b6009546001600160a01b031633146114565760405162461bcd60e51b815260040161021090612369565b6002600c5460ff16600681111561146f5761146f611fcd565b146114af5760405162461bcd60e51b815260206004820152601060248201526f129bd8881b9bdd081858d8d95c1d195960821b6044820152606401610210565b6012805460ff60a01b1916600160a01b179055600e6114ce8282612407565b50336001600160a01b03167f0b03097dfedda1602fa76f142dfe98df97517a61fc4217f55178b5235576cf7f826040516109749190611f3a565b600a546001600160a01b031633146115555760405162461bcd60e51b815260206004820152601060248201526f27b7363c9020a4903b32b934b334b2b960811b6044820152606401610210565b6002600c5460ff16600681111561156e5761156e611fcd565b146115aa5760405162461bcd60e51b815260206004820152600c60248201526b139bdd081858d8d95c1d195960a21b6044820152606401610210565b600e6115b68282612407565b506115da60405180604001604052806002815260200161414960f01b815250611781565b50565b60006001600160e01b031982166380ac58cd60e01b148061160e57506001600160e01b03198216635b5e139f60e01b145b806106c657506301ffc9a760e01b6001600160e01b03198316146106c6565b60008061163983611b6e565b90506001600160a01b0381166106c657604051637e27328960e01b815260048101849052602401610210565b6000908152600460205260409020546001600160a01b031690565b610ac18383836001611b89565b60008061169984611b6e565b90506001600160a01b038316156116b5576116b5818486611c86565b6001600160a01b038116156116f3576116d2600085600080611b89565b6001600160a01b038116600090815260036020526040902080546000190190555b6001600160a01b03851615611722576001600160a01b0385166000908152600360205260409020805460010190555b60008481526002602052604080822080546001600160a01b0319166001600160a01b0389811691821790925591518793918516917fddf252ad1be2c89b69c2b068fc378daa952ba7f163c4a11628f55a4df523b3ef91a4949350505050565b6012546001600160a01b0316156117aa5760405162461bcd60e51b81526004016102109061233f565b600c805460ff1916600417905542601155600f6117c78282612407565b50600954601280546001600160a01b0319166001600160a01b039092169182179055600b5460405181156108fc0291906000818181858888f19350505050158015611816573d6000803e3d6000fd5b507f3849c58b4b39b379bddc5973e71a10ded174f54140916d81986c7eec092e5c424282600e60405161184b939291906124c6565b60405180910390a1600954600b546040519081526001600160a01b03909116907f221c08a06b07a64803b3787861a3f276212fcccb51c2e6234077a9b8cb13047a90602001610974565b6001600160a01b0382166118bf576000604051633250574960e11b81526004016102109190611f73565b60006118cd8383600061168d565b90506001600160a01b03811615610ac15760006040516339e3563760e11b81526004016102109190611f73565b60008281526006602052604090206119128282612407565b506040518281527ff8e1a15aba9398e019f0b49df1a4fde98ee17ae345cb5f6b5e2c27f5033e8ce79060200160405180910390a15050565b6001600160a01b0382166119735781604051630b61174360e31b81526004016102109190611f73565b6001600160a01b03838116600081815260056020908152604080832094871680845294825291829020805460ff191686151590811790915591519182527f17307eab39ab6107e8899845ad3d59bd9653f200f220920489ca2b5937696c31910160405180910390a3505050565b6001600160a01b0383163b15611af257604051630a85bd0160e11b81526001600160a01b0384169063150b7a0290611a22908890889087908790600401612568565b6020604051808303816000875af1925050508015611a5d575060408051601f3d908101601f19168201909252611a5a918101906125a5565b60015b611abd573d808015611a8b576040519150601f19603f3d011682016040523d82523d6000602084013e611a90565b606091505b508051600003611ab55783604051633250574960e11b81526004016102109190611f73565b805181602001fd5b6001600160e01b03198116630a85bd0160e11b14611af05783604051633250574960e11b81526004016102109190611f73565b505b5050505050565b6060611b048261162d565b506000611b1c60408051602081019091526000815290565b90506000815111611b3c5760405180602001604052806000815250611b67565b80611b4684611cea565b604051602001611b57929190612392565b6040516020818303038152906040525b9392505050565b6000908152600260205260409020546001600160a01b031690565b8080611b9d57506001600160a01b03821615155b15611c56576000611bad8461162d565b90506001600160a01b03831615801590611bd95750826001600160a01b0316816001600160a01b031614155b8015611bec5750611bea81846113fe565b155b15611c0c578260405163a9fbf51f60e01b81526004016102109190611f73565b8115611c545783856001600160a01b0316826001600160a01b03167f8c5be1e5ebec7d5bd14f71427d1e84f3dd0314c0f7b2291e5b200ac8c7c3b92560405160405180910390a45b505b5050600090815260046020526040902080546001600160a01b0319166001600160a01b0392909216919091179055565b611c91838383611d7c565b610ac1576001600160a01b038316611cbf57604051637e27328960e01b815260048101829052602401610210565b60405163177e802f60e01b81526001600160a01b038316600482015260248101829052604401610210565b60606000611cf783611de1565b60010190506000816001600160401b03811115611d1657611d1661215f565b6040519080825280601f01601f191660200182016040528015611d40576020820181803683370190505b5090508181016020015b600019016f181899199a1a9b1b9c1cb0b131b232b360811b600a86061a8153600a8504945084611d4a57509392505050565b60006001600160a01b038316158015906113f65750826001600160a01b0316846001600160a01b03161480611db65750611db684846113fe565b806113f65750826001600160a01b0316611dcf83611665565b6001600160a01b031614949350505050565b60008072184f03e93ff9f4daa797ed6e38ed64bf6a1f0160401b8310611e205772184f03e93ff9f4daa797ed6e38ed64bf6a1f0160401b830492506040015b6904ee2d6d415b85acef8160201b8310611e4a576904ee2d6d415b85acef8160201b830492506020015b662386f26fc100008310611e6857662386f26fc10000830492506010015b6305f5e1008310611e80576305f5e100830492506008015b6127108310611e9457612710830492506004015b60648310611ea6576064830492506002015b600a83106106c65760010192915050565b6001600160e01b0319811681146115da57600080fd5b600060208284031215611edf57600080fd5b8135611b6781611eb7565b60005b83811015611f05578181015183820152602001611eed565b50506000910152565b60008151808452611f26816020860160208601611eea565b601f01601f19169290920160200192915050565b602081526000611b676020830184611f0e565b600060208284031215611f5f57600080fd5b5035919050565b6001600160a01b03169052565b6001600160a01b0391909116815260200190565b80356001600160a01b0381168114611f9e57600080fd5b919050565b60008060408385031215611fb657600080fd5b611fbf83611f87565b946020939093013593505050565b634e487b7160e01b600052602160045260246000fd5b6007811061200157634e487b7160e01b600052602160045260246000fd5b9052565b602081016106c68284611fe3565b60008060006060848603121561202857600080fd5b61203184611f87565b925061203f60208501611f87565b9150604084013590509250925092565b60006020828403121561206157600080fd5b611b6782611f87565b8d81526001600160a01b038d16602082015260006101a061208e604084018f611f66565b61209b606084018e611f66565b8b60808401526120ae60a084018c611fe3565b8060c08401526120c08184018b611f0e565b905082810360e08401526120d4818a611f0e565b90508281036101008401526120e98189611f0e565b9150508561012083015284610140830152612108610160830185611f66565b8215156101808301529e9d5050505050505050505050505050565b6000806040838503121561213657600080fd5b61213f83611f87565b91506020830135801515811461215457600080fd5b809150509250929050565b634e487b7160e01b600052604160045260246000fd5b60006001600160401b038084111561218f5761218f61215f565b604051601f8501601f19908116603f011681019082821181831017156121b7576121b761215f565b816040528093508581528686860111156121d057600080fd5b858560208301376000602087830101525050509392505050565b6000806000806080858703121561220057600080fd5b61220985611f87565b935061221760208601611f87565b92506040850135915060608501356001600160401b0381111561223957600080fd5b8501601f8101871361224a57600080fd5b61225987823560208401612175565b91505092959194509250565b6000806040838503121561227857600080fd5b61228183611f87565b915061228f60208401611f87565b90509250929050565b6000602082840312156122aa57600080fd5b81356001600160401b038111156122c057600080fd5b8201601f810184136122d157600080fd5b6113f684823560208401612175565b600181811c908216806122f457607f821691505b60208210810361231457634e487b7160e01b600052602260045260246000fd5b50919050565b6020808252600b908201526a13db9b1e4818db1a595b9d60aa1b604082015260600190565b60208082526010908201526f105b1c9958591e481c185a59081bdd5d60821b604082015260600190565b6020808252600f908201526e27b7363c90333932b2b630b731b2b960891b604082015260600190565b600083516123a4818460208801611eea565b8351908301906123b8818360208801611eea565b01949350505050565b601f821115610ac157600081815260208120601f850160051c810160208610156123e85750805b601f850160051c820191505b81811015611af0578281556001016123f4565b81516001600160401b038111156124205761242061215f565b6124348161242e84546122e0565b846123c1565b602080601f83116001811461246957600084156124515750858301515b600019600386901b1c1916600185901b178555611af0565b600085815260208120601f198616915b8281101561249857888601518255948401946001909101908401612479565b50858210156124b65787850151600019600388901b60f8161c191681555b5050505050600190811b01905550565b838152600060206060818401526124e06060840186611f0e565b8381036040850152600085546124f5816122e0565b80845260018281168015612510576001811461252a57612558565b60ff1984168688015282151560051b860187019450612558565b896000528660002060005b848110156125505781548882018a0152908301908801612535565b870188019550505b50929a9950505050505050505050565b6001600160a01b038581168252841660208201526040810183905260806060820181905260009061259b90830184611f0e565b9695505050505050565b6000602082840312156125b757600080fd5b8151611b6781611eb756fea26469706673582212209fd885a8bcc98a407e79ab38bf9cf7d74042692cb0376476152b936d53516a4b64736f6c63430008140033a26469706673582212206a6254d244c09c4d44d55001a5066869383d51e007fd95c1e58af05cdcce6c6964736f6c63430008140033",
  "linkReferences": {},
  "deployedLinkReferences": {}
}