{
  "_format": "hh-sol-artifact-1",
  "contractName": "JobEscrowFactory",
  "sourceName": "contracts/JobEscrowFactory.sol",
  "abi": [
    {
      "inputs": [
        {
          "internalType": "address",
          "name": "_aiVerifier",
          "type": "address"
        },
        {
          "internalType": "address",
          "name": "_feeCollector",
          "type": "address"
        }
      ],
      "stateMutability": "nonpayable",
      "type": "constructor"
    },
    {
      "inputs": [
        {
          "internalType": "address",
          "name": "owner",
          "type": "address"
        }
      ],
      "name": "OwnableInvalidOwner",
      "type": "error"
    },
    {
      "inputs": [
        {
          "internalType": "address",
          "name": "account",
          "type": "address"
        }
      ],
      "name": "OwnableUnauthorizedAccount",
      "type": "error"
    },
    {
      "anonymous": false,
      "inputs": [
        {
          "indexed": false,
          "internalType": "address",
          "name": "newVerifier",
          "type": "address"
        }
      ],
      "name": "AiVerifierUpdated",
      "type": "event"
    },
    {
      "anonymous": false,
      "inputs": [
        {
          "indexed": true,
          "internalType": "uint256",
          "name": "jobId",
          "type": "uint256"
        },
        {
          "indexed": true,
          "internalType": "address",
          "name": "jobContract",
          "type": "address"
        },
        {
          "indexed": true,
          "internalType": "address",
          "name": "client",
          "type": "address"
        },
        {
          "indexed": false,
          "internalType": "string",
          "name": "metadataURI",
          "type": "string"
        }
      ],
      "name": "JobCreated",
      "type": "event"
    },
    {
      "anonymous": false,
      "inputs": [
        {
          "indexed": true,
          "internalType": "address",
          "name": "previousOwner",
          "type": "address"
        },
        {
          "indexed": true,
          "internalType": "address",
          "name": "newOwner",
          "type": "address"
        }
      ],
      "name": "OwnershipTransferred",
      "type": "event"
    },
    {
      "anonymous": false,
      "inputs": [
        {
          "indexed": false,
          "internalType": "address",
          "name": "newCollector",
          "type": "address"
        }
      ],
      "name": "PlatformFeeCollectorUpdated",
      "type": "event"
    },
    {
      "anonymous": false,
      "inputs": [
        {
          "indexed": false,
          "internalType": "uint256",
          "name": "newFee",
          "type": "uint256"
        }
      ],
      "name": "PlatformFeeUpdated",
      "type": "event"
    },
    {
      "inputs": [],
      "name": "aiVerifier",
      "outputs": [
        {
          "internalType": "address",
          "name": "",
          "type": "address"
        }
      ],
      "stateMutability": "view",
      "type": "function"
    },
    {
      "inputs": [
        {
          "internalType": "uint256",
          "name": "",
          "type": "uint256"
        }
      ],
      "name": "allJobs",
      "outputs": [
        {
          "internalType": "address",
          "name": "",
          "type": "address"
        }
      ],
      "stateMutability": "view",
      "type": "function"
    },
    {
      "inputs": [
        {
          "internalType": "uint256",
          "name": "jobId",
          "type": "uint256"
        },
        {
          "internalType": "address",
          "name": "freelancer",
          "type": "address"
        }
      ],
      "name": "assignFreelancer",
      "outputs": [],
      "stateMutability": "nonpayable",
      "type": "function"
    },
    {
      "inputs": [
        {
          "internalType": "address",
          "name": "",
          "type": "address"
        },
        {
          "internalType": "uint256",
          "name": "",
          "type": "uint256"
        }
      ],
      "name": "clientJobs",
      "outputs": [
        {
          "internalType": "uint256",
          "name": "",
          "type": "uint256"
        }
      ],
      "stateMutability": "view",
      "type": "function"
    },
    {
      "inputs": [],
      "name": "contractCreationFee",
      "outputs": [
        {
          "internalType": "uint256",
          "name": "",
          "type": "uint256"
        }
      ],
      "stateMutability": "view",
      "type": "function"
    },
    {
      "inputs": [],
      "name": "contractFeeCollector",
      "outputs": [
        {
          "internalType": "address",
          "name": "",
          "type": "address"
        }
      ],
      "stateMutability": "view",
      "type": "function"
    },
    {
      "inputs": [
        {
          "internalType": "string",
          "name": "_metadataURI",
          "type": "string"
        }
      ],
      "name": "createJobEscrow",
      "outputs": [
        {
          "internalType": "uint256",
          "name": "jobId",
          "type": "uint256"
        },
        {
          "internalType": "address",
          "name": "jobContract",
          "type": "address"
        }
      ],
      "stateMutability": "payable",
      "type": "function"
    },
    {
      "inputs": [
        {
          "internalType": "address",
          "name": "",
          "type": "address"
        },
        {
          "internalType": "uint256",
          "name": "",
          "type": "uint256"
        }
      ],
      "name": "freelancerJobs",
      "outputs": [
        {
          "internalType": "uint256",
          "name": "",
          "type": "uint256"
        }
      ],
      "stateMutability": "view",
      "type": "function"
    },
    {
      "inputs": [],
      "name": "getAllJobs",
      "outputs": [
        {
          "internalType": "address[]",
          "name": "",
          "type": "address[]"
        }
      ],
      "stateMutability": "view",
      "type": "function"
    },
    {
      "inputs": [
        {
          "internalType": "address",
          "name": "_client",
          "type": "address"
        }
      ],
      "name": "getClientJobs",
      "outputs": [
        {
          "internalType": "uint256[]",
          "name": "",
          "type": "uint256[]"
        }
      ],
      "stateMutability": "view",
      "type": "function"
    },
    {
      "inputs": [],
      "name": "getContractCreationFee",
      "outputs": [
        {
          "internalType": "uint256",
          "name": "",
          "type": "uint256"
        }
      ],
      "stateMutability": "view",
      "type": "function"
    },
    {
      "inputs": [
        {
          "internalType": "address",
          "name": "_freelancer",
          "type": "address"
        }
      ],
      "name": "getFreelancerJobs",
      "outputs": [
        {
          "internalType": "uint256[]",
          "name": "",
          "type": "uint256[]"
        }
      ],
      "stateMutability": "view",
      "type": "function"
    },
    {
      "inputs": [
        {
          "internalType": "uint256",
          "name": "",
          "type": "uint256"
        }
      ],
      "name": "jobContracts",
      "outputs": [
        {
          "internalType": "address",
          "name": "",
          "type": "address"
        }
      ],
      "stateMutability": "view",
      "type": "function"
    },
    {
      "inputs": [],
      "name": "jobCounter",
      "outputs": [
        {
          "internalType": "uint256",
          "name": "",
          "type": "uint256"
        }
      ],
      "stateMutability": "view",
      "type": "function"
    },
    {
      "inputs": [],
      "name": "owner",
      "outputs": [
        {
          "internalType": "address",
          "name": "",
          "type": "address"
        }
      ],
      "stateMutability": "view",
      "type": "function"
    },
    {
      "inputs": [],
      "name": "renounceOwnership",
      "outputs": [],
      "stateMutability": "nonpayable",
      "type": "function"
    },
    {
      "inputs": [
        {
          "internalType": "address",
          "name": "newOwner",
          "type": "address"
        }
      ],
      "name": "transferOwnership",
      "outputs": [],
      "stateMutability": "nonpayable",
      "type": "function"
    },
    {
      "inputs": [
        {
          "internalType": "address",
          "name": "_newAiVerifier",
          "type": "address"
        }
      ],
      "name": "updateAiVerifier",
      "outputs": [],
      "stateMutability": "nonpayable",
      "type": "function"
    },
    {
      "inputs": [
        {
          "internalType": "uint256",
          "name": "_newFee",
          "type": "uint256"
        }
      ],
      "name": "updateContractCreationFee",
      "outputs": [],
      "stateMutability": "nonpayable",
      "type": "function"
    },
    {
      "inputs": [
        {
          "internalType": "address",
          "name": "_newCollector",
          "type": "address"
        }
      ],
      "name": "updateContractFeeCollector",
      "outputs": [],
      "stateMutability": "nonpayable",
      "type": "function"
    }
  ],
  "bytecode": "0x608060405266038d7ea4c6800060025534801561001b57600080fd5b5060405162003b0538038062003b0583398101604081905261003c91610160565b338061006357604051631e4fbdf760e01b8152600060048201526024015b60405180910390fd5b61006c816100f4565b506001600160a01b0381166100c35760405162461bcd60e51b815260206004820152601560248201527f496e76616c69642066656520636f6c6c6563746f720000000000000000000000604482015260640161005a565b600580546001600160a01b039384166001600160a01b03199182161790915560048054929093169116179055610193565b600080546001600160a01b038381166001600160a01b0319831681178455604051919092169283917f8be0079c531659141344cd1fd0a4f28419497f9722a3daafe3b4186f6b6457e09190a35050565b80516001600160a01b038116811461015b57600080fd5b919050565b6000806040838503121561017357600080fd5b61017c83610144565b915061018a60208401610144565b90509250929050565b61396280620001a36000396000f3fe608060405260043610620001045760003560e01c80630b2220d114620001095780633f8896c5146200013457806340f70be4146200017d578063442f5c8814620001b157806350355d7614620001d657806365fab3e214620001ee578063686edd2014620002155780636d0896e3146200023a5780636e4e15b9146200026f578063715018a614620002915780638da5cb5b14620002a95780638facd85914620002c157806390c3e97914620002e6578063965a79fb146200030b578063c949756c1462000332578063cf2646c21462000357578063f2fde38b146200037c578063f5358af614620003a1578063f673c57214620003c3578063fb822b3114620003da575b600080fd5b3480156200011657600080fd5b506200012160025481565b6040519081526020015b60405180910390f35b3480156200014157600080fd5b506200016e6200015336600462000b66565b6006602052600090815260409020546001600160a01b031681565b6040516200012b919062000b80565b3480156200018a57600080fd5b50620001a26200019c36600462000baa565b620003ff565b6040516200012b919062000bd1565b348015620001be57600080fd5b5062000121620001d036600462000c17565b6200046d565b348015620001e357600080fd5b506200012160015481565b348015620001fb57600080fd5b50620002136200020d36600462000b66565b6200049f565b005b3480156200022257600080fd5b50620002136200023436600462000baa565b620004e5565b620002516200024b36600462000c5c565b6200053c565b604080519283526001600160a01b039091166020830152016200012b565b3480156200027c57600080fd5b506005546200016e906001600160a01b031681565b3480156200029e57600080fd5b50620002136200077d565b348015620002b657600080fd5b506200016e62000795565b348015620002ce57600080fd5b5062000121620002e036600462000c17565b620007a4565b348015620002f357600080fd5b506200016e6200030536600462000b66565b620007c1565b3480156200031857600080fd5b5062000323620007ec565b6040516200012b919062000d17565b3480156200033f57600080fd5b50620002136200035136600462000d5a565b62000850565b3480156200036457600080fd5b50620001a26200037636600462000baa565b620009c9565b3480156200038957600080fd5b50620002136200039b36600462000baa565b62000a35565b348015620003ae57600080fd5b506004546200016e906001600160a01b031681565b348015620003d057600080fd5b5060025462000121565b348015620003e757600080fd5b5062000213620003f936600462000baa565b62000a7a565b6001600160a01b0381166000908152600860209081526040918290208054835181840281018401909452808452606093928301828280156200046157602002820191906000526020600020905b8154815260200190600101908083116200044c575b50505050509050919050565b600860205281600052604060002081815481106200048a57600080fd5b90600052602060002001600091509150505481565b620004a962000ad1565b60028190556040518181527f45610d581145924dd7090a5017e5f2b1d6f42213bb2e95707ff86846bbfcb1ca906020015b60405180910390a150565b620004ef62000ad1565b600480546001600160a01b0319166001600160a01b0383161790556040517f3b2d4d50caa431082e62262a911eef6a5f784d24d4661f67e9860360f374216e90620004da90839062000b80565b6000806002543414620005945760405162461bcd60e51b815260206004820152601b60248201527a4d75737420706179206578616374206372656174696f6e2066656560281b60448201526064015b60405180910390fd5b60018054906000620005a68362000d8d565b91905055915060008233600560009054906101000a90046001600160a01b0316600087604051620005d79062000b58565b620005e795949392919062000dfd565b604051809103906000f08015801562000604573d6000803e3d6000fd5b50600084815260066020908152604080832080546001600160a01b0386166001600160a01b0319918216811790925533808652600785528386208054600181810183559188529587209095018a90556003805495860181559095527fc2575a0e9e593c00f959f8c92f12db2869c3395a3b0502d05e2516446f71f85b9093018054909316811790925551929450849350909185907f80db542af6c20f3e65ef1491b0e21348d7e0886188a155c44e2fb98be44c232b90620006c790899062000e43565b60405180910390a46004546040516000916001600160a01b03169034908381818185875af1925050503d80600081146200071e576040519150601f19603f3d011682016040523d82523d6000602084013e62000723565b606091505b5050905080620007765760405162461bcd60e51b815260206004820152601f60248201527f4661696c656420746f207472616e73666572206372656174696f6e206665650060448201526064016200058b565b5050915091565b6200078762000ad1565b62000793600062000b08565b565b6000546001600160a01b031690565b600760205281600052604060002081815481106200048a57600080fd5b60038181548110620007d257600080fd5b6000918252602090912001546001600160a01b0316905081565b606060038054806020026020016040519081016040528092919081815260200182805480156200084657602002820191906000526020600020905b81546001600160a01b0316815260019091019060200180831162000827575b5050505050905090565b60008281526006602090815260409182902054825163109e94cf60e01b815292516001600160a01b0390911692839263109e94cf926004808401938290030181865afa158015620008a5573d6000803e3d6000fd5b505050506040513d601f19601f82011682018060405250810190620008cb919062000e58565b6001600160a01b0316336001600160a01b031614620009375760405162461bcd60e51b815260206004820152602160248201527f4f6e6c7920636c69656e742063616e2061737369676e20667265656c616e63656044820152603960f91b60648201526084016200058b565b604051632b61352f60e21b81526001600160a01b0382169063ad84d4bc906200096590859060040162000b80565b600060405180830381600087803b1580156200098057600080fd5b505af115801562000995573d6000803e3d6000fd5b5050506001600160a01b03909216600090815260086020908152604082208054600181018255908352912001929092555050565b6001600160a01b0381166000908152600760209081526040918290208054835181840281018401909452808452606093928301828280156200046157602002820191906000526020600020908154815260200190600101908083116200044c5750505050509050919050565b62000a3f62000ad1565b6001600160a01b03811662000a6c576000604051631e4fbdf760e01b81526004016200058b919062000b80565b62000a778162000b08565b50565b62000a8462000ad1565b600580546001600160a01b0319166001600160a01b0383161790556040517f4fdaa4aad1f33e80581579cee351d8e175b1d1bea397784d3c3af6a906475aab90620004da90839062000b80565b3362000adc62000795565b6001600160a01b03161462000793573360405163118cdaa760e01b81526004016200058b919062000b80565b600080546001600160a01b038381166001600160a01b0319831681178455604051919092169283917f8be0079c531659141344cd1fd0a4f28419497f9722a3daafe3b4186f6b6457e09190a35050565b612ab48062000e7983390190565b60006020828403121562000b7957600080fd5b5035919050565b6001600160a01b0391909116815260200190565b6001600160a01b038116811462000a7757600080fd5b60006020828403121562000bbd57600080fd5b813562000bca8162000b94565b9392505050565b6020808252825182820181905260009190848201906040850190845b8181101562000c0b5783518352928401929184019160010162000bed565b50909695505050505050565b6000806040838503121562000c2b57600080fd5b823562000c388162000b94565b946020939093013593505050565b634e487b7160e01b600052604160045260246000fd5b60006020828403121562000c6f57600080fd5b813567ffffffffffffffff8082111562000c8857600080fd5b818401915084601f83011262000c9d57600080fd5b81358181111562000cb25762000cb262000c46565b604051601f8201601f19908116603f0116810190838211818310171562000cdd5762000cdd62000c46565b8160405282815287602084870101111562000cf757600080fd5b826020860160208301376000928101602001929092525095945050505050565b6020808252825182820181905260009190848201906040850190845b8181101562000c0b5783516001600160a01b03168352928401929184019160010162000d33565b6000806040838503121562000d6e57600080fd5b82359150602083013562000d828162000b94565b809150509250929050565b60006001820162000dae57634e487b7160e01b600052601160045260246000fd5b5060010190565b6000815180845260005b8181101562000ddd5760208185018101518683018201520162000dbf565b506000602082860101526020601f19601f83011685010191505092915050565b8581526001600160a01b038581166020830152841660408201526060810183905260a06080820181905260009062000e389083018462000db5565b979650505050505050565b60208152600062000bca602083018462000db5565b60006020828403121562000e6b57600080fd5b815162000bca8162000b9456fe60806040523480156200001157600080fd5b5060405162002ab438038062002ab4833981016040819052620000349162000132565b6040518060400160405280601081526020016f536563757265576f726b457363726f7760801b8152506040518060400160405280600381526020016253574560e81b81525081600090816200008a9190620002cf565b506001620000998282620002cf565b5050506007859055600880546001600160a01b038087166001600160a01b031992831617909255600a805492861692909116919091179055600b829055600e620000e48282620002cf565b5050426011555050600c805460ff19169055506200039b9050565b80516001600160a01b03811681146200011757600080fd5b919050565b634e487b7160e01b600052604160045260246000fd5b600080600080600060a086880312156200014b57600080fd5b8551945060206200015e818801620000ff565b94506200016e60408801620000ff565b6060880151608089015191955093506001600160401b03808211156200019357600080fd5b818901915089601f830112620001a857600080fd5b815181811115620001bd57620001bd6200011c565b604051601f8201601f19908116603f01168101908382118183101715620001e857620001e86200011c565b816040528281528c868487010111156200020157600080fd5b600093505b8284101562000225578484018601518185018701529285019262000206565b60008684830101528096505050505050509295509295909350565b600181811c908216806200025557607f821691505b6020821081036200027657634e487b7160e01b600052602260045260246000fd5b50919050565b601f821115620002ca57600081815260208120601f850160051c81016020861015620002a55750805b601f850160051c820191505b81811015620002c657828155600101620002b1565b5050505b505050565b81516001600160401b03811115620002eb57620002eb6200011c565b6200030381620002fc845462000240565b846200027c565b602080601f8311600181146200033b5760008415620003225750858301515b600019600386901b1c1916600185901b178555620002c6565b600085815260208120601f198616915b828110156200036c578886015182559484019460019091019084016200034b565b50858210156200038b5787850151600019600388901b60f8161c191681555b5050505050600190811b01905550565b61270980620003ab6000396000f3fe6080604052600436106101d45760003560e01c806388c0d819116100fe57806388c0d819146104b55780639571dca6146104ca57806395d89b41146104df57806399001c5c146104f45780639b789b7e1461050a5780639ca2e6c11461051f578063a22cb4651461054d578063a37dda2c1461056d578063a5d737ac1461058d578063aa8c217c14610595578063ad84d4bc146105ab578063b88d4fde146105cb578063c2939d97146105eb578063c87b56dd14610601578063c8fa8ab714610621578063cf09e0d014610636578063e985e9c51461064c578063ee30cfa01461066c578063f2e29c2e14610682578063f7dd865a146106a257610224565b806301ffc9a71461025b57806303ee438c1461029057806306fdde03146102b2578063081812fc146102c7578063095ea7b3146102f4578063109e94cf146103165780631fc82c0114610336578063200d2ed21461035657806323b872dd1461037d578063387712421461039d578063393e950b146103c15780633f7e999f146103d657806342842e0e146103f75780636352211e146104175780636e4e15b9146104375780636f9fb98a1461045757806370a082311461046a578063786bcd7d1461048a57806382c839901461049f57610224565b366102245760405162461bcd60e51b815260206004820152601b60248201527a111a5c9958dd081c185e5b595b9d1cc81b9bdd08185b1b1bddd959602a1b60448201526064015b60405180910390fd5b60405162461bcd60e51b815260206004820152600c60248201526b125b9d985b1a590818d85b1b60a21b604482015260640161021b565b34801561026757600080fd5b5061027b610276366004611fe7565b6106c2565b60405190151581526020015b60405180910390f35b34801561029c57600080fd5b506102a56106ed565b6040516102879190612054565b3480156102be57600080fd5b506102a561077b565b3480156102d357600080fd5b506102e76102e2366004612067565b61080d565b604051610287919061208d565b34801561030057600080fd5b5061031461030f3660046120bd565b610822565b005b34801561032257600080fd5b506008546102e7906001600160a01b031681565b34801561034257600080fd5b506013546102e7906001600160a01b031681565b34801561036257600080fd5b50600c546103709060ff1681565b604051610287919061211f565b34801561038957600080fd5b5061031461039836600461212d565b610831565b3480156103a957600080fd5b506103b360125481565b604051908152602001610287565b3480156103cd57600080fd5b506103146108bc565b3480156103e257600080fd5b5060135461027b90600160a01b900460ff1681565b34801561040357600080fd5b5061031461041236600461212d565b610958565b34801561042357600080fd5b506102e7610432366004612067565b610978565b34801561044357600080fd5b50600a546102e7906001600160a01b031681565b34801561046357600080fd5b50476103b3565b34801561047657600080fd5b506103b3610485366004612169565b610983565b34801561049657600080fd5b506103146109cb565b3480156104ab57600080fd5b506103b360145481565b3480156104c157600080fd5b506102a5610c4c565b3480156104d657600080fd5b506102a5610c59565b3480156104eb57600080fd5b506102a5610c66565b34801561050057600080fd5b506103b3600d5481565b34801561051657600080fd5b50610314610c75565b34801561052b57600080fd5b50610534610e3b565b6040516102879d9c9b9a99989796959493929190612184565b34801561055957600080fd5b5061031461056836600461223d565b61107a565b34801561057957600080fd5b506009546102e7906001600160a01b031681565b610314611085565b3480156105a157600080fd5b506103b3600b5481565b3480156105b757600080fd5b506103146105c6366004612169565b6111c3565b3480156105d757600080fd5b506103146105e6366004612304565b6112d6565b3480156105f757600080fd5b506103b360075481565b34801561060d57600080fd5b506102a561061c366004612067565b6112ee565b34801561062d57600080fd5b506103146113ff565b34801561064257600080fd5b506103b360115481565b34801561065857600080fd5b5061027b61066736600461237f565b6114f5565b34801561067857600080fd5b506103b360155481565b34801561068e57600080fd5b5061031461069d3660046123b2565b611523565b3480156106ae57600080fd5b506103146106bd3660046123b2565b6115ff565b60006001600160e01b03198216632483248360e11b14806106e757506106e7826116d4565b92915050565b600e80546106fa906123fa565b80601f0160208091040260200160405190810160405280929190818152602001828054610726906123fa565b80156107735780601f1061074857610100808354040283529160200191610773565b820191906000526020600020905b81548152906001019060200180831161075657829003601f168201915b505050505081565b60606000805461078a906123fa565b80601f01602080910402602001604051908101604052809291908181526020018280546107b6906123fa565b80156108035780601f106107d857610100808354040283529160200191610803565b820191906000526020600020905b8154815290600101906020018083116107e657829003601f168201915b5050505050905090565b600061081882611724565b506106e78261175c565b61082d828233611777565b5050565b6001600160a01b03821661085b576000604051633250574960e11b815260040161021b919061208d565b6000610868838333611784565b9050836001600160a01b0316816001600160a01b0316146108b6576040516364283d7b60e01b81526001600160a01b038086166004830152602482018490528216604482015260640161021b565b50505050565b6008546001600160a01b031633146108e65760405162461bcd60e51b815260040161021b90612434565b601354600160a01b900460ff1661092f5760405162461bcd60e51b815260206004820152600d60248201526c139bdd081c995c5d595cdd1959609a1b604482015260640161021b565b6109566040518060400160405280600681526020016510db1a595b9d60d21b815250611878565b565b610973838383604051806020016040528060008152506112d6565b505050565b60006106e782611724565b60006001600160a01b0382166109af5760006040516322718ad960e21b815260040161021b919061208d565b506001600160a01b031660009081526003602052604090205490565b6008546001600160a01b031633146109f55760405162461bcd60e51b815260040161021b90612434565b6002600c5460ff166006811115610a0e57610a0e6120e7565b14610a4e5760405162461bcd60e51b815260206004820152601060248201526f135d5cdd081899481858d8d95c1d195960821b604482015260640161021b565b601354600160a01b900460ff1615610ab65760405162461bcd60e51b815260206004820152602560248201527f436c69656e7420766572696669636174696f6e20616c72656164792072657175604482015264195cdd195960da1b606482015260840161021b565b600d54610ac69062ed4e00612459565b421015610b155760405162461bcd60e51b815260206004820152601f60248201527f546f6f206561726c7920746f2063616e63656c2062792067686f7374696e6700604482015260640161021b565b6013546001600160a01b031615610b5d5760405162461bcd60e51b815260206004820152600c60248201526b105b1c9958591e481c185a5960a21b604482015260640161021b565b600c805460ff19166005179055600854601380546001600160a01b039092166001600160a01b0319909216919091179055478015610c13576008546040516001600160a01b039091169082156108fc029083906000818181858888f19350505050158015610bcf573d6000803e3d6000fd5b506008546040518281526001600160a01b03909116907f73d5ba87e3f97f1bd195d8e3930ee6caaeb35b20c78aa7c9b7a52727867d46dc9060200160405180910390a25b60405142815233907f802f1675de6bcae4f345ab030a16843f3d5c2556a4e27e5bfaaa38ee2c6a0bb6906020015b60405180910390a250565b600f80546106fa906123fa565b601080546106fa906123fa565b60606001805461078a906123fa565b6009546001600160a01b03163314610c9f5760405162461bcd60e51b815260040161021b9061247a565b6001600c5460ff166006811115610cb857610cb86120e7565b14610cf65760405162461bcd60e51b815260206004820152600e60248201526d135d5cdd08189948199d5b99195960921b604482015260640161021b565b601554600114610d3d5760405162461bcd60e51b815260206004820152601260248201527113919508185b1c9958591e481b5a5b9d195960721b604482015260640161021b565b600c805460ff191660021790556001601581905542600d55600954610d6d916001600160a01b03909116906119af565b610e03601554600e8054610d80906123fa565b80601f0160208091040260200160405190810160405280929190818152602001828054610dac906123fa565b8015610df95780601f10610dce57610100808354040283529160200191610df9565b820191906000526020600020905b815481529060010190602001808311610ddc57829003601f168201915b5050505050611a14565b60405142815233907f6c777e30d9c6cf565ff0d7e5d27d65d66ccecc1143dbe98dc30689556fd34e79906020015b60405180910390a2565b600754600854600954600a54600b54600c54601154601254601354600e805460009a8b9a8b9a8b9a8b9a8b9a60609a8b9a8b9a8e9a8b9a8b9a8b9a90996001600160a01b03918216999082169890821697909660ff918216969495600f956010959294909390821692600160a01b90920416908790610eb9906123fa565b80601f0160208091040260200160405190810160405280929190818152602001828054610ee5906123fa565b8015610f325780601f10610f0757610100808354040283529160200191610f32565b820191906000526020600020905b815481529060010190602001808311610f1557829003601f168201915b50505050509650858054610f45906123fa565b80601f0160208091040260200160405190810160405280929190818152602001828054610f71906123fa565b8015610fbe5780601f10610f9357610100808354040283529160200191610fbe565b820191906000526020600020905b815481529060010190602001808311610fa157829003601f168201915b50505050509550848054610fd1906123fa565b80601f0160208091040260200160405190810160405280929190818152602001828054610ffd906123fa565b801561104a5780601f1061101f5761010080835404028352916020019161104a565b820191906000526020600020905b81548152906001019060200180831161102d57829003601f168201915b505050505094509c509c509c509c509c509c509c509c509c509c509c509c509c50909192939495969798999a9b9c565b61082d338383611a64565b6008546001600160a01b031633146110af5760405162461bcd60e51b815260040161021b90612434565b6000600c5460ff1660068111156110c8576110c86120e7565b146111065760405162461bcd60e51b815260206004820152600e60248201526d105b1c9958591e48199d5b99195960921b604482015260640161021b565b600b5434146111525760405162461bcd60e51b8152602060048201526018602482015277135d5cdd081b585d18da081859dc99595908185b5bdd5b9d60421b604482015260640161021b565b600c805460ff191660011790556000601481905560085461117e916001600160a01b03909116906119af565b611191601454600e8054610d80906123fa565b60405134815233907f543137dade665d4d6ce455fcd386a7703dad323aedf71d16ad6116042bcd23d590602001610e31565b6008546001600160a01b031633146111ed5760405162461bcd60e51b815260040161021b90612434565b6009546001600160a01b0316156112445760405162461bcd60e51b815260206004820152601b60248201527a119c99595b185b98d95c88185b1c9958591e48185cdcda59db9959602a1b604482015260640161021b565b6001600160a01b03811661128c5760405162461bcd60e51b815260206004820152600f60248201526e496e76616c6964206164647265737360881b604482015260640161021b565b600980546001600160a01b0319166001600160a01b0383169081179091556040517f6b493de20a114cabad54f840ad7bf515cdbf07ae1024cbd8960f15c5101d18e390600090a250565b6112e1848484610831565b6108b63385858585611afa565b60606112f982611724565b5060008281526006602052604081208054611313906123fa565b80601f016020809104026020016040519081016040528092919081815260200182805461133f906123fa565b801561138c5780601f106113615761010080835404028352916020019161138c565b820191906000526020600020905b81548152906001019060200180831161136f57829003601f168201915b5050505050905060006113aa60408051602081019091526000815290565b905080516000036113bc575092915050565b8151156113ee5780826040516020016113d69291906124a3565b60405160208183030381529060405292505050919050565b6113f784611c13565b949350505050565b6008546001600160a01b031633146114295760405162461bcd60e51b815260040161021b90612434565b6002600c5460ff166006811115611442576114426120e7565b036114a35760405162461bcd60e51b815260206004820152602b60248201527f43616e6e6f742063616e63656c20616674657220667265656c616e636572206860448201526a185cc81858d8d95c1d195960aa1b606482015260840161021b565b6013546001600160a01b031615610b5d5760405162461bcd60e51b8152602060048201526016602482015275119d5b991cc8185b1c9958591e481c995b19585cd95960521b604482015260640161021b565b6001600160a01b03918216600090815260056020908152604080832093909416825291909152205460ff1690565b6009546001600160a01b0316331461154d5760405162461bcd60e51b815260040161021b9061247a565b6002600c5460ff166006811115611566576115666120e7565b146115a65760405162461bcd60e51b815260206004820152601060248201526f129bd8881b9bdd081858d8d95c1d195960821b604482015260640161021b565b6013805460ff60a01b1916600160a01b179055600f6115c58282612518565b50336001600160a01b03167f0b03097dfedda1602fa76f142dfe98df97517a61fc4217f55178b5235576cf7f82604051610c419190612054565b600a546001600160a01b0316331461164c5760405162461bcd60e51b815260206004820152601060248201526f27b7363c9020a4903b32b934b334b2b960811b604482015260640161021b565b6002600c5460ff166006811115611665576116656120e7565b146116a15760405162461bcd60e51b815260206004820152600c60248201526b139bdd081858d8d95c1d195960a21b604482015260640161021b565b600f6116ad8282612518565b506116d160405180604001604052806002815260200161414960f01b815250611878565b50565b60006001600160e01b031982166380ac58cd60e01b148061170557506001600160e01b03198216635b5e139f60e01b145b806106e757506301ffc9a760e01b6001600160e01b03198316146106e7565b60008061173083611c88565b90506001600160a01b0381166106e757604051637e27328960e01b81526004810184905260240161021b565b6000908152600460205260409020546001600160a01b031690565b6109738383836001611ca3565b60008061179084611c88565b90506001600160a01b038316156117ac576117ac818486611da0565b6001600160a01b038116156117ea576117c9600085600080611ca3565b6001600160a01b038116600090815260036020526040902080546000190190555b6001600160a01b03851615611819576001600160a01b0385166000908152600360205260409020805460010190555b60008481526002602052604080822080546001600160a01b0319166001600160a01b0389811691821790925591518793918516917fddf252ad1be2c89b69c2b068fc378daa952ba7f163c4a11628f55a4df523b3ef91a4949350505050565b6013546001600160a01b0316156118c45760405162461bcd60e51b815260206004820152601060248201526f105b1c9958591e481c185a59081bdd5d60821b604482015260640161021b565b600c805460ff191660041790554260125560106118e18282612518565b50600954601380546001600160a01b0319166001600160a01b039092169182179055600b5460405181156108fc0291906000818181858888f19350505050158015611930573d6000803e3d6000fd5b507f3849c58b4b39b379bddc5973e71a10ded174f54140916d81986c7eec092e5c424282600f604051611965939291906125d7565b60405180910390a1600954600b546040519081526001600160a01b03909116907f221c08a06b07a64803b3787861a3f276212fcccb51c2e6234077a9b8cb13047a90602001610c41565b6001600160a01b0382166119d9576000604051633250574960e11b815260040161021b919061208d565b60006119e783836000611784565b90506001600160a01b038116156109735760006040516339e3563760e11b815260040161021b919061208d565b6000828152600660205260409020611a2c8282612518565b506040518281527ff8e1a15aba9398e019f0b49df1a4fde98ee17ae345cb5f6b5e2c27f5033e8ce79060200160405180910390a15050565b6001600160a01b038216611a8d5781604051630b61174360e31b815260040161021b919061208d565b6001600160a01b03838116600081815260056020908152604080832094871680845294825291829020805460ff191686151590811790915591519182527f17307eab39ab6107e8899845ad3d59bd9653f200f220920489ca2b5937696c31910160405180910390a3505050565b6001600160a01b0383163b15611c0c57604051630a85bd0160e11b81526001600160a01b0384169063150b7a0290611b3c908890889087908790600401612679565b6020604051808303816000875af1925050508015611b77575060408051601f3d908101601f19168201909252611b74918101906126b6565b60015b611bd7573d808015611ba5576040519150601f19603f3d011682016040523d82523d6000602084013e611baa565b606091505b508051600003611bcf5783604051633250574960e11b815260040161021b919061208d565b805181602001fd5b6001600160e01b03198116630a85bd0160e11b14611c0a5783604051633250574960e11b815260040161021b919061208d565b505b5050505050565b6060611c1e82611724565b506000611c3660408051602081019091526000815290565b90506000815111611c565760405180602001604052806000815250611c81565b80611c6084611e04565b604051602001611c719291906124a3565b6040516020818303038152906040525b9392505050565b6000908152600260205260409020546001600160a01b031690565b8080611cb757506001600160a01b03821615155b15611d70576000611cc784611724565b90506001600160a01b03831615801590611cf35750826001600160a01b0316816001600160a01b031614155b8015611d065750611d0481846114f5565b155b15611d26578260405163a9fbf51f60e01b815260040161021b919061208d565b8115611d6e5783856001600160a01b0316826001600160a01b03167f8c5be1e5ebec7d5bd14f71427d1e84f3dd0314c0f7b2291e5b200ac8c7c3b92560405160405180910390a45b505b5050600090815260046020526040902080546001600160a01b0319166001600160a01b0392909216919091179055565b611dab838383611e96565b610973576001600160a01b038316611dd957604051637e27328960e01b81526004810182905260240161021b565b60405163177e802f60e01b81526001600160a01b03831660048201526024810182905260440161021b565b60606000611e1183611efb565b60010190506000816001600160401b03811115611e3057611e30612279565b6040519080825280601f01601f191660200182016040528015611e5a576020820181803683370190505b5090508181016020015b600019016f181899199a1a9b1b9c1cb0b131b232b360811b600a86061a8153600a8504945084611e6457509392505050565b60006001600160a01b038316158015906113f75750826001600160a01b0316846001600160a01b03161480611ed05750611ed084846114f5565b806113f75750826001600160a01b0316611ee98361175c565b6001600160a01b031614949350505050565b60008072184f03e93ff9f4daa797ed6e38ed64bf6a1f0160401b8310611f3a5772184f03e93ff9f4daa797ed6e38ed64bf6a1f0160401b830492506040015b6904ee2d6d415b85acef8160201b8310611f64576904ee2d6d415b85acef8160201b830492506020015b662386f26fc100008310611f8257662386f26fc10000830492506010015b6305f5e1008310611f9a576305f5e100830492506008015b6127108310611fae57612710830492506004015b60648310611fc0576064830492506002015b600a83106106e75760010192915050565b6001600160e01b0319811681146116d157600080fd5b600060208284031215611ff957600080fd5b8135611c8181611fd1565b60005b8381101561201f578181015183820152602001612007565b50506000910152565b60008151808452612040816020860160208601612004565b601f01601f19169290920160200192915050565b602081526000611c816020830184612028565b60006020828403121561207957600080fd5b5035919050565b6001600160a01b03169052565b6001600160a01b0391909116815260200190565b80356001600160a01b03811681146120b857600080fd5b919050565b600080604083850312156120d057600080fd5b6120d9836120a1565b946020939093013593505050565b634e487b7160e01b600052602160045260246000fd5b6007811061211b57634e487b7160e01b600052602160045260246000fd5b9052565b602081016106e782846120fd565b60008060006060848603121561214257600080fd5b61214b846120a1565b9250612159602085016120a1565b9150604084013590509250925092565b60006020828403121561217b57600080fd5b611c81826120a1565b8d81526001600160a01b038d16602082015260006101a06121a8604084018f612080565b6121b5606084018e612080565b8b60808401526121c860a084018c6120fd565b8060c08401526121da8184018b612028565b905082810360e08401526121ee818a612028565b90508281036101008401526122038189612028565b9150508561012083015284610140830152612222610160830185612080565b8215156101808301529e9d5050505050505050505050505050565b6000806040838503121561225057600080fd5b612259836120a1565b91506020830135801515811461226e57600080fd5b809150509250929050565b634e487b7160e01b600052604160045260246000fd5b60006001600160401b03808411156122a9576122a9612279565b604051601f8501601f19908116603f011681019082821181831017156122d1576122d1612279565b816040528093508581528686860111156122ea57600080fd5b858560208301376000602087830101525050509392505050565b6000806000806080858703121561231a57600080fd5b612323856120a1565b9350612331602086016120a1565b92506040850135915060608501356001600160401b0381111561235357600080fd5b8501601f8101871361236457600080fd5b6123738782356020840161228f565b91505092959194509250565b6000806040838503121561239257600080fd5b61239b836120a1565b91506123a9602084016120a1565b90509250929050565b6000602082840312156123c457600080fd5b81356001600160401b038111156123da57600080fd5b8201601f810184136123eb57600080fd5b6113f78482356020840161228f565b600181811c9082168061240e57607f821691505b60208210810361242e57634e487b7160e01b600052602260045260246000fd5b50919050565b6020808252600b908201526a13db9b1e4818db1a595b9d60aa1b604082015260600190565b808201808211156106e757634e487b7160e01b600052601160045260246000fd5b6020808252600f908201526e27b7363c90333932b2b630b731b2b960891b604082015260600190565b600083516124b5818460208801612004565b8351908301906124c9818360208801612004565b01949350505050565b601f82111561097357600081815260208120601f850160051c810160208610156124f95750805b601f850160051c820191505b81811015611c0a57828155600101612505565b81516001600160401b0381111561253157612531612279565b6125458161253f84546123fa565b846124d2565b602080601f83116001811461257a57600084156125625750858301515b600019600386901b1c1916600185901b178555611c0a565b600085815260208120601f198616915b828110156125a95788860151825594840194600190910190840161258a565b50858210156125c75787850151600019600388901b60f8161c191681555b5050505050600190811b01905550565b838152600060206060818401526125f16060840186612028565b838103604085015260008554612606816123fa565b80845260018281168015612621576001811461263b57612669565b60ff1984168688015282151560051b860187019450612669565b896000528660002060005b848110156126615781548882018a0152908301908801612646565b870188019550505b50929a9950505050505050505050565b6001600160a01b03858116825284166020820152604081018390526080606082018190526000906126ac90830184612028565b9695505050505050565b6000602082840312156126c857600080fd5b8151611c8181611fd156fea264697066735822122001a96492cdf800728da7e5c3ae165cb8d0e374d960311059ffeb80869497184964736f6c63430008140033a2646970667358221220eb930a9f0052a72b350b585a46d5b8194c52a49c04357d73a8c5ac84205e318b64736f6c63430008140033",
  "linkReferences": {},
  "deployedLinkReferences": {}
}